{
  "contractName": "Anoying",
  "abi": [
    {
      "inputs": [],
      "stateMutability": "nonpayable",
      "type": "constructor"
    },
    {
      "anonymous": false,
      "inputs": [
        {
          "indexed": true,
          "internalType": "address",
          "name": "account",
          "type": "address"
        },
        {
          "indexed": true,
          "internalType": "address",
          "name": "operator",
          "type": "address"
        },
        {
          "indexed": false,
          "internalType": "bool",
          "name": "approved",
          "type": "bool"
        }
      ],
      "name": "ApprovalForAll",
      "type": "event"
    },
    {
      "anonymous": false,
      "inputs": [
        {
          "indexed": false,
          "internalType": "address",
          "name": "account",
          "type": "address"
        }
      ],
      "name": "Paused",
      "type": "event"
    },
    {
      "anonymous": false,
      "inputs": [
        {
          "indexed": true,
          "internalType": "bytes32",
          "name": "role",
          "type": "bytes32"
        },
        {
          "indexed": true,
          "internalType": "bytes32",
          "name": "previousAdminRole",
          "type": "bytes32"
        },
        {
          "indexed": true,
          "internalType": "bytes32",
          "name": "newAdminRole",
          "type": "bytes32"
        }
      ],
      "name": "RoleAdminChanged",
      "type": "event"
    },
    {
      "anonymous": false,
      "inputs": [
        {
          "indexed": true,
          "internalType": "bytes32",
          "name": "role",
          "type": "bytes32"
        },
        {
          "indexed": true,
          "internalType": "address",
          "name": "account",
          "type": "address"
        },
        {
          "indexed": true,
          "internalType": "address",
          "name": "sender",
          "type": "address"
        }
      ],
      "name": "RoleGranted",
      "type": "event"
    },
    {
      "anonymous": false,
      "inputs": [
        {
          "indexed": true,
          "internalType": "bytes32",
          "name": "role",
          "type": "bytes32"
        },
        {
          "indexed": true,
          "internalType": "address",
          "name": "account",
          "type": "address"
        },
        {
          "indexed": true,
          "internalType": "address",
          "name": "sender",
          "type": "address"
        }
      ],
      "name": "RoleRevoked",
      "type": "event"
    },
    {
      "anonymous": false,
      "inputs": [
        {
          "indexed": true,
          "internalType": "address",
          "name": "operator",
          "type": "address"
        },
        {
          "indexed": true,
          "internalType": "address",
          "name": "from",
          "type": "address"
        },
        {
          "indexed": true,
          "internalType": "address",
          "name": "to",
          "type": "address"
        },
        {
          "indexed": false,
          "internalType": "uint256[]",
          "name": "ids",
          "type": "uint256[]"
        },
        {
          "indexed": false,
          "internalType": "uint256[]",
          "name": "values",
          "type": "uint256[]"
        }
      ],
      "name": "TransferBatch",
      "type": "event"
    },
    {
      "anonymous": false,
      "inputs": [
        {
          "indexed": true,
          "internalType": "address",
          "name": "operator",
          "type": "address"
        },
        {
          "indexed": true,
          "internalType": "address",
          "name": "from",
          "type": "address"
        },
        {
          "indexed": true,
          "internalType": "address",
          "name": "to",
          "type": "address"
        },
        {
          "indexed": false,
          "internalType": "uint256",
          "name": "id",
          "type": "uint256"
        },
        {
          "indexed": false,
          "internalType": "uint256",
          "name": "value",
          "type": "uint256"
        }
      ],
      "name": "TransferSingle",
      "type": "event"
    },
    {
      "anonymous": false,
      "inputs": [
        {
          "indexed": false,
          "internalType": "string",
          "name": "value",
          "type": "string"
        },
        {
          "indexed": true,
          "internalType": "uint256",
          "name": "id",
          "type": "uint256"
        }
      ],
      "name": "URI",
      "type": "event"
    },
    {
      "anonymous": false,
      "inputs": [
        {
          "indexed": false,
          "internalType": "address",
          "name": "account",
          "type": "address"
        }
      ],
      "name": "Unpaused",
      "type": "event"
    },
    {
      "inputs": [],
      "name": "DEFAULT_ADMIN_ROLE",
      "outputs": [
        {
          "internalType": "bytes32",
          "name": "",
          "type": "bytes32"
        }
      ],
      "stateMutability": "view",
      "type": "function",
      "constant": true
    },
    {
      "inputs": [],
      "name": "MINTER_ROLE",
      "outputs": [
        {
          "internalType": "bytes32",
          "name": "",
          "type": "bytes32"
        }
      ],
      "stateMutability": "view",
      "type": "function",
      "constant": true
    },
    {
      "inputs": [],
      "name": "PAUSER_ROLE",
      "outputs": [
        {
          "internalType": "bytes32",
          "name": "",
          "type": "bytes32"
        }
      ],
      "stateMutability": "view",
      "type": "function",
      "constant": true
    },
    {
      "inputs": [
        {
          "internalType": "address",
          "name": "account",
          "type": "address"
        },
        {
          "internalType": "uint256",
          "name": "id",
          "type": "uint256"
        }
      ],
      "name": "balanceOf",
      "outputs": [
        {
          "internalType": "uint256",
          "name": "",
          "type": "uint256"
        }
      ],
      "stateMutability": "view",
      "type": "function",
      "constant": true
    },
    {
      "inputs": [
        {
          "internalType": "address[]",
          "name": "accounts",
          "type": "address[]"
        },
        {
          "internalType": "uint256[]",
          "name": "ids",
          "type": "uint256[]"
        }
      ],
      "name": "balanceOfBatch",
      "outputs": [
        {
          "internalType": "uint256[]",
          "name": "",
          "type": "uint256[]"
        }
      ],
      "stateMutability": "view",
      "type": "function",
      "constant": true
    },
    {
      "inputs": [
        {
          "internalType": "address",
          "name": "account",
          "type": "address"
        },
        {
          "internalType": "uint256",
          "name": "id",
          "type": "uint256"
        },
        {
          "internalType": "uint256",
          "name": "value",
          "type": "uint256"
        }
      ],
      "name": "burn",
      "outputs": [],
      "stateMutability": "nonpayable",
      "type": "function"
    },
    {
      "inputs": [
        {
          "internalType": "address",
          "name": "account",
          "type": "address"
        },
        {
          "internalType": "uint256[]",
          "name": "ids",
          "type": "uint256[]"
        },
        {
          "internalType": "uint256[]",
          "name": "values",
          "type": "uint256[]"
        }
      ],
      "name": "burnBatch",
      "outputs": [],
      "stateMutability": "nonpayable",
      "type": "function"
    },
    {
      "inputs": [
        {
          "internalType": "bytes32",
          "name": "role",
          "type": "bytes32"
        }
      ],
      "name": "getRoleAdmin",
      "outputs": [
        {
          "internalType": "bytes32",
          "name": "",
          "type": "bytes32"
        }
      ],
      "stateMutability": "view",
      "type": "function",
      "constant": true
    },
    {
      "inputs": [
        {
          "internalType": "bytes32",
          "name": "role",
          "type": "bytes32"
        },
        {
          "internalType": "uint256",
          "name": "index",
          "type": "uint256"
        }
      ],
      "name": "getRoleMember",
      "outputs": [
        {
          "internalType": "address",
          "name": "",
          "type": "address"
        }
      ],
      "stateMutability": "view",
      "type": "function",
      "constant": true
    },
    {
      "inputs": [
        {
          "internalType": "bytes32",
          "name": "role",
          "type": "bytes32"
        }
      ],
      "name": "getRoleMemberCount",
      "outputs": [
        {
          "internalType": "uint256",
          "name": "",
          "type": "uint256"
        }
      ],
      "stateMutability": "view",
      "type": "function",
      "constant": true
    },
    {
      "inputs": [
        {
          "internalType": "bytes32",
          "name": "role",
          "type": "bytes32"
        },
        {
          "internalType": "address",
          "name": "account",
          "type": "address"
        }
      ],
      "name": "grantRole",
      "outputs": [],
      "stateMutability": "nonpayable",
      "type": "function"
    },
    {
      "inputs": [
        {
          "internalType": "bytes32",
          "name": "role",
          "type": "bytes32"
        },
        {
          "internalType": "address",
          "name": "account",
          "type": "address"
        }
      ],
      "name": "hasRole",
      "outputs": [
        {
          "internalType": "bool",
          "name": "",
          "type": "bool"
        }
      ],
      "stateMutability": "view",
      "type": "function",
      "constant": true
    },
    {
      "inputs": [
        {
          "internalType": "address",
          "name": "account",
          "type": "address"
        },
        {
          "internalType": "address",
          "name": "operator",
          "type": "address"
        }
      ],
      "name": "isApprovedForAll",
      "outputs": [
        {
          "internalType": "bool",
          "name": "",
          "type": "bool"
        }
      ],
      "stateMutability": "view",
      "type": "function",
      "constant": true
    },
    {
      "inputs": [
        {
          "internalType": "address",
          "name": "to",
          "type": "address"
        },
        {
          "internalType": "uint256",
          "name": "id",
          "type": "uint256"
        },
        {
          "internalType": "uint256",
          "name": "amount",
          "type": "uint256"
        },
        {
          "internalType": "bytes",
          "name": "data",
          "type": "bytes"
        }
      ],
      "name": "mint",
      "outputs": [],
      "stateMutability": "nonpayable",
      "type": "function"
    },
    {
      "inputs": [
        {
          "internalType": "address",
          "name": "to",
          "type": "address"
        },
        {
          "internalType": "uint256[]",
          "name": "ids",
          "type": "uint256[]"
        },
        {
          "internalType": "uint256[]",
          "name": "amounts",
          "type": "uint256[]"
        },
        {
          "internalType": "bytes",
          "name": "data",
          "type": "bytes"
        }
      ],
      "name": "mintBatch",
      "outputs": [],
      "stateMutability": "nonpayable",
      "type": "function"
    },
    {
      "inputs": [
        {
          "internalType": "uint256",
          "name": "",
          "type": "uint256"
        }
      ],
      "name": "ownership",
      "outputs": [
        {
          "internalType": "uint256",
          "name": "id",
          "type": "uint256"
        },
        {
          "internalType": "address",
          "name": "owner",
          "type": "address"
        },
        {
          "internalType": "string",
          "name": "dataKey",
          "type": "string"
        },
        {
          "internalType": "uint256",
          "name": "balance",
          "type": "uint256"
        }
      ],
      "stateMutability": "view",
      "type": "function",
      "constant": true
    },
    {
      "inputs": [],
      "name": "pause",
      "outputs": [],
      "stateMutability": "nonpayable",
      "type": "function"
    },
    {
      "inputs": [],
      "name": "paused",
      "outputs": [
        {
          "internalType": "bool",
          "name": "",
          "type": "bool"
        }
      ],
      "stateMutability": "view",
      "type": "function",
      "constant": true
    },
    {
      "inputs": [
        {
          "internalType": "bytes32",
          "name": "role",
          "type": "bytes32"
        },
        {
          "internalType": "address",
          "name": "account",
          "type": "address"
        }
      ],
      "name": "renounceRole",
      "outputs": [],
      "stateMutability": "nonpayable",
      "type": "function"
    },
    {
      "inputs": [
        {
          "internalType": "bytes32",
          "name": "role",
          "type": "bytes32"
        },
        {
          "internalType": "address",
          "name": "account",
          "type": "address"
        }
      ],
      "name": "revokeRole",
      "outputs": [],
      "stateMutability": "nonpayable",
      "type": "function"
    },
    {
      "inputs": [
        {
          "internalType": "address",
          "name": "from",
          "type": "address"
        },
        {
          "internalType": "address",
          "name": "to",
          "type": "address"
        },
        {
          "internalType": "uint256[]",
          "name": "ids",
          "type": "uint256[]"
        },
        {
          "internalType": "uint256[]",
          "name": "amounts",
          "type": "uint256[]"
        },
        {
          "internalType": "bytes",
          "name": "data",
          "type": "bytes"
        }
      ],
      "name": "safeBatchTransferFrom",
      "outputs": [],
      "stateMutability": "nonpayable",
      "type": "function"
    },
    {
      "inputs": [
        {
          "internalType": "address",
          "name": "from",
          "type": "address"
        },
        {
          "internalType": "address",
          "name": "to",
          "type": "address"
        },
        {
          "internalType": "uint256",
          "name": "id",
          "type": "uint256"
        },
        {
          "internalType": "uint256",
          "name": "amount",
          "type": "uint256"
        },
        {
          "internalType": "bytes",
          "name": "data",
          "type": "bytes"
        }
      ],
      "name": "safeTransferFrom",
      "outputs": [],
      "stateMutability": "nonpayable",
      "type": "function"
    },
    {
      "inputs": [
        {
          "internalType": "address",
          "name": "operator",
          "type": "address"
        },
        {
          "internalType": "bool",
          "name": "approved",
          "type": "bool"
        }
      ],
      "name": "setApprovalForAll",
      "outputs": [],
      "stateMutability": "nonpayable",
      "type": "function"
    },
    {
      "inputs": [
        {
          "internalType": "bytes4",
          "name": "interfaceId",
          "type": "bytes4"
        }
      ],
      "name": "supportsInterface",
      "outputs": [
        {
          "internalType": "bool",
          "name": "",
          "type": "bool"
        }
      ],
      "stateMutability": "view",
      "type": "function",
      "constant": true
    },
    {
      "inputs": [],
      "name": "unpause",
      "outputs": [],
      "stateMutability": "nonpayable",
      "type": "function"
    },
    {
      "inputs": [
        {
          "internalType": "uint256",
          "name": "",
          "type": "uint256"
        }
      ],
      "name": "uri",
      "outputs": [
        {
          "internalType": "string",
          "name": "",
          "type": "string"
        }
      ],
      "stateMutability": "view",
      "type": "function",
      "constant": true
    },
    {
      "inputs": [
        {
          "internalType": "address",
          "name": "to",
          "type": "address"
        },
        {
          "internalType": "uint256",
          "name": "amount",
          "type": "uint256"
        },
        {
          "internalType": "string",
          "name": "data",
          "type": "string"
        }
      ],
      "name": "mintToken",
      "outputs": [
        {
          "internalType": "uint256",
          "name": "",
          "type": "uint256"
        }
      ],
      "stateMutability": "nonpayable",
      "type": "function"
    },
    {
      "inputs": [
        {
          "internalType": "address",
          "name": "from",
          "type": "address"
        }
      ],
      "name": "isMinter",
      "outputs": [
        {
          "internalType": "bool",
          "name": "",
          "type": "bool"
        }
      ],
      "stateMutability": "view",
      "type": "function",
      "constant": true
    },
    {
      "inputs": [
        {
          "internalType": "address",
          "name": "owner",
          "type": "address"
        }
      ],
      "name": "getTokens",
      "outputs": [
        {
          "components": [
            {
              "internalType": "uint256",
              "name": "id",
              "type": "uint256"
            },
            {
              "internalType": "address",
              "name": "owner",
              "type": "address"
            },
            {
              "internalType": "string",
              "name": "dataKey",
              "type": "string"
            },
            {
              "internalType": "uint256",
              "name": "balance",
              "type": "uint256"
            }
          ],
          "internalType": "struct Anoying.Token[]",
          "name": "",
          "type": "tuple[]"
        }
      ],
      "stateMutability": "view",
      "type": "function",
      "constant": true
    },
    {
      "inputs": [
        {
          "internalType": "uint256",
          "name": "tokenId",
          "type": "uint256"
        },
        {
          "internalType": "uint256",
          "name": "amount",
          "type": "uint256"
        }
      ],
      "name": "burnToken",
      "outputs": [],
      "stateMutability": "nonpayable",
      "type": "function"
    }
  ],
  "bytecode": "0x608060405260006006553480156200001657600080fd5b506040518060400160405280602081526020017f687474703a2f2f6c6f63616c686f73743a333030333f746f6b656e3d7b69647d815250806200005f816200016960201b60201c565b506000600560006101000a81548160ff0219169083151502179055506200009f6000801b620000936200018560201b60201c565b6200018d60201b60201c565b620000e07f9f2df0fed2c77648de5860a4cc508cd0818c85b8b8a1ab4ceeef8d981c8956a6620000d46200018560201b60201c565b6200018d60201b60201c565b620001217f65d7a28e3265b37a6474929f336521b332c1681b933f6cb9f3376673440d862a620001156200018560201b60201c565b6200018d60201b60201c565b5033600560016101000a81548173ffffffffffffffffffffffffffffffffffffffff021916908373ffffffffffffffffffffffffffffffffffffffff16021790555062000530565b8060049080519060200190620001819291906200041b565b5050565b600033905090565b6200019f8282620001a360201b60201c565b5050565b620001ba8282620001eb60201b620017291760201c565b620001e68160016000858152602001908152602001600020620002dc60201b620018091790919060201c565b505050565b620001fd82826200031460201b60201c565b620002d857600160008084815260200190815260200160002060000160008373ffffffffffffffffffffffffffffffffffffffff1673ffffffffffffffffffffffffffffffffffffffff16815260200190815260200160002060006101000a81548160ff0219169083151502179055506200027d6200018560201b60201c565b73ffffffffffffffffffffffffffffffffffffffff168173ffffffffffffffffffffffffffffffffffffffff16837f2f8788117e7eff1d82e926ec794901d17c78024a50270940304540a733656f0d60405160405180910390a45b5050565b60006200030c836000018373ffffffffffffffffffffffffffffffffffffffff1660001b6200037e60201b60201c565b905092915050565b600080600084815260200190815260200160002060000160008373ffffffffffffffffffffffffffffffffffffffff1673ffffffffffffffffffffffffffffffffffffffff16815260200190815260200160002060009054906101000a900460ff16905092915050565b6000620003928383620003f860201b60201c565b620003ed578260000182908060018154018082558091505060019003906000526020600020016000909190919091505582600001805490508360010160008481526020019081526020016000208190555060019050620003f2565b600090505b92915050565b600080836001016000848152602001908152602001600020541415905092915050565b8280546200042990620004fa565b90600052602060002090601f0160209004810192826200044d576000855562000499565b82601f106200046857805160ff191683800117855562000499565b8280016001018555821562000499579182015b82811115620004985782518255916020019190600101906200047b565b5b509050620004a89190620004ac565b5090565b5b80821115620004c7576000816000905550600101620004ad565b5090565b7f4e487b7100000000000000000000000000000000000000000000000000000000600052602260045260246000fd5b600060028204905060018216806200051357607f821691505b602082108114156200052a5762000529620004cb565b5b50919050565b61598380620005406000396000f3fe608060405234801561001057600080fd5b50600436106101d95760003560e01c80638456cb5911610104578063ca15c873116100a2578063e985e9c511610071578063e985e9c514610579578063f242432a146105a9578063f5298aca146105c5578063f76e8ba9146105e1576101d9565b8063ca15c873146104f1578063d539139314610521578063d547741f1461053f578063e63ab1e91461055b576101d9565b8063a0f45b69116100de578063a0f45b6914610454578063a217fddf14610487578063a22cb465146104a5578063aa271e1a146104c1576101d9565b80638456cb59146103ea5780639010d07c146103f457806391d1485414610424576101d9565b806336568abe1161017c5780635c975abb1161014b5780635c975abb146103785780636b20c45414610396578063731133e9146103b25780638225b247146103ce576101d9565b806336568abe146102f25780633f4ba83a1461030e578063450efe21146103185780634e1273f414610348576101d9565b80631f7fdffa116101b85780631f7fdffa1461026e578063248a9ca31461028a5780632eb2c2d6146102ba5780632f2ff15d146102d6576101d9565b8062fdd58e146101de57806301ffc9a71461020e5780630e89341c1461023e575b600080fd5b6101f860048036038101906101f39190613829565b610611565b6040516102059190613878565b60405180910390f35b610228600480360381019061022391906138eb565b6106db565b6040516102359190613933565b60405180910390f35b6102586004803603810190610253919061394e565b6106ed565b6040516102659190613a14565b60405180910390f35b61028860048036038101906102839190613c33565b610781565b005b6102a4600480360381019061029f9190613d24565b610803565b6040516102b19190613d60565b60405180910390f35b6102d460048036038101906102cf9190613d7b565b610822565b005b6102f060048036038101906102eb9190613e4a565b6108c3565b005b61030c60048036038101906103079190613e4a565b6108ec565b005b61031661096f565b005b610332600480360381019061032d9190613e8a565b6109e9565b60405161033f9190614044565b60405180910390f35b610362600480360381019061035d9190614129565b610d18565b60405161036f9190614250565b60405180910390f35b610380610e31565b60405161038d9190613933565b60405180910390f35b6103b060048036038101906103ab9190614272565b610e48565b005b6103cc60048036038101906103c791906142fd565b610ee5565b005b6103e860048036038101906103e39190614380565b610f67565b005b6103f2611105565b005b61040e600480360381019061040991906143c0565b61117f565b60405161041b919061440f565b60405180910390f35b61043e60048036038101906104399190613e4a565b6111ae565b60405161044b9190613933565b60405180910390f35b61046e6004803603810190610469919061394e565b611218565b60405161047e949392919061442a565b60405180910390f35b61048f6112f0565b60405161049c9190613d60565b60405180910390f35b6104bf60048036038101906104ba91906144a2565b6112f7565b005b6104db60048036038101906104d69190613e8a565b61130d565b6040516104e89190613933565b60405180910390f35b61050b60048036038101906105069190613d24565b611367565b6040516105189190613878565b60405180910390f35b61052961138b565b6040516105369190613d60565b60405180910390f35b61055960048036038101906105549190613e4a565b6113af565b005b6105636113d8565b6040516105709190613d60565b60405180910390f35b610593600480360381019061058e91906144e2565b6113fc565b6040516105a09190613933565b60405180910390f35b6105c360048036038101906105be9190614522565b611490565b005b6105df60048036038101906105da91906145b9565b611531565b005b6105fb60048036038101906105f691906146ad565b6115ce565b6040516106089190613878565b60405180910390f35b60008073ffffffffffffffffffffffffffffffffffffffff168373ffffffffffffffffffffffffffffffffffffffff161415610682576040517f08c379a00000000000000000000000000000000000000000000000000000000081526004016106799061478e565b60405180910390fd5b6002600083815260200190815260200160002060008473ffffffffffffffffffffffffffffffffffffffff1673ffffffffffffffffffffffffffffffffffffffff16815260200190815260200160002054905092915050565b60006106e682611839565b9050919050565b6060600480546106fc906147dd565b80601f0160208091040260200160405190810160405280929190818152602001828054610728906147dd565b80156107755780601f1061074a57610100808354040283529160200191610775565b820191906000526020600020905b81548152906001019060200180831161075857829003601f168201915b50505050509050919050565b6107b27f9f2df0fed2c77648de5860a4cc508cd0818c85b8b8a1ab4ceeef8d981c8956a66107ad61191b565b6111ae565b6107f1576040517f08c379a00000000000000000000000000000000000000000000000000000000081526004016107e890614881565b60405180910390fd5b6107fd84848484611923565b50505050565b6000806000838152602001908152602001600020600101549050919050565b61082a61191b565b73ffffffffffffffffffffffffffffffffffffffff168573ffffffffffffffffffffffffffffffffffffffff161480610870575061086f8561086a61191b565b6113fc565b5b6108af576040517f08c379a00000000000000000000000000000000000000000000000000000000081526004016108a690614913565b60405180910390fd5b6108bc8585858585611b42565b5050505050565b6108cc82610803565b6108dd816108d861191b565b611e59565b6108e78383611ef6565b505050565b6108f461191b565b73ffffffffffffffffffffffffffffffffffffffff168173ffffffffffffffffffffffffffffffffffffffff1614610961576040517f08c379a0000000000000000000000000000000000000000000000000000000008152600401610958906149a5565b60405180910390fd5b61096b8282611f2a565b5050565b6109a07f65d7a28e3265b37a6474929f336521b332c1681b933f6cb9f3376673440d862a61099b61191b565b6111ae565b6109df576040517f08c379a00000000000000000000000000000000000000000000000000000000081526004016109d690614a37565b60405180910390fd5b6109e7611f5e565b565b6060600080600190505b6006548111610ab2578373ffffffffffffffffffffffffffffffffffffffff166007600083815260200190815260200160002060010160009054906101000a900473ffffffffffffffffffffffffffffffffffffffff1673ffffffffffffffffffffffffffffffffffffffff16148015610a83575060006007600083815260200190815260200160002060030154115b15610a9f57610a9c60018361200090919063ffffffff16565b91505b8080610aaa90614a86565b9150506109f3565b5060008167ffffffffffffffff811115610acf57610ace613a3b565b5b604051908082528060200260200182016040528015610b0857816020015b610af56136a0565b815260200190600190039081610aed5790505b509050600091506000600190505b6006548111610d0d578473ffffffffffffffffffffffffffffffffffffffff166007600083815260200190815260200160002060010160009054906101000a900473ffffffffffffffffffffffffffffffffffffffff1673ffffffffffffffffffffffffffffffffffffffff16148015610ba6575060006007600083815260200190815260200160002060030154115b15610cfa5760076000828152602001908152602001600020604051806080016040529081600082015481526020016001820160009054906101000a900473ffffffffffffffffffffffffffffffffffffffff1673ffffffffffffffffffffffffffffffffffffffff1673ffffffffffffffffffffffffffffffffffffffff168152602001600282018054610c39906147dd565b80601f0160208091040260200160405190810160405280929190818152602001828054610c65906147dd565b8015610cb25780601f10610c8757610100808354040283529160200191610cb2565b820191906000526020600020905b815481529060010190602001808311610c9557829003601f168201915b50505050508152602001600382015481525050828481518110610cd857610cd7614acf565b5b6020026020010181905250610cf760018461200090919063ffffffff16565b92505b8080610d0590614a86565b915050610b16565b508092505050919050565b60608151835114610d5e576040517f08c379a0000000000000000000000000000000000000000000000000000000008152600401610d5590614b70565b60405180910390fd5b6000835167ffffffffffffffff811115610d7b57610d7a613a3b565b5b604051908082528060200260200182016040528015610da95781602001602082028036833780820191505090505b50905060005b8451811015610e2657610df6858281518110610dce57610dcd614acf565b5b6020026020010151858381518110610de957610de8614acf565b5b6020026020010151610611565b828281518110610e0957610e08614acf565b5b60200260200101818152505080610e1f90614a86565b9050610daf565b508091505092915050565b6000600560009054906101000a900460ff16905090565b610e5061191b565b73ffffffffffffffffffffffffffffffffffffffff168373ffffffffffffffffffffffffffffffffffffffff161480610e965750610e9583610e9061191b565b6113fc565b5b610ed5576040517f08c379a0000000000000000000000000000000000000000000000000000000008152600401610ecc90614c02565b60405180910390fd5b610ee0838383612016565b505050565b610f167f9f2df0fed2c77648de5860a4cc508cd0818c85b8b8a1ab4ceeef8d981c8956a6610f1161191b565b6111ae565b610f55576040517f08c379a0000000000000000000000000000000000000000000000000000000008152600401610f4c90614881565b60405180910390fd5b610f61848484846122c9565b50505050565b60006007600084815260200190815260200160002060010160009054906101000a900473ffffffffffffffffffffffffffffffffffffffff1690506000600760008581526020019081526020016000206003015490508173ffffffffffffffffffffffffffffffffffffffff163373ffffffffffffffffffffffffffffffffffffffff1614806110445750600560019054906101000a900473ffffffffffffffffffffffffffffffffffffffff1673ffffffffffffffffffffffffffffffffffffffff163373ffffffffffffffffffffffffffffffffffffffff16145b611083576040517f08c379a000000000000000000000000000000000000000000000000000000000815260040161107a90614c6e565b60405180910390fd5b828110156110c6576040517f08c379a00000000000000000000000000000000000000000000000000000000081526004016110bd90614cda565b60405180910390fd5b6110d1828585612460565b6110e560018261267f90919063ffffffff16565b600760008681526020019081526020016000206003018190555050505050565b6111367f65d7a28e3265b37a6474929f336521b332c1681b933f6cb9f3376673440d862a61113161191b565b6111ae565b611175576040517f08c379a000000000000000000000000000000000000000000000000000000000815260040161116c90614d6c565b60405180910390fd5b61117d612695565b565b60006111a6826001600086815260200190815260200160002061273890919063ffffffff16565b905092915050565b600080600084815260200190815260200160002060000160008373ffffffffffffffffffffffffffffffffffffffff1673ffffffffffffffffffffffffffffffffffffffff16815260200190815260200160002060009054906101000a900460ff16905092915050565b60076020528060005260406000206000915090508060000154908060010160009054906101000a900473ffffffffffffffffffffffffffffffffffffffff1690806002018054611267906147dd565b80601f0160208091040260200160405190810160405280929190818152602001828054611293906147dd565b80156112e05780601f106112b5576101008083540402835291602001916112e0565b820191906000526020600020905b8154815290600101906020018083116112c357829003601f168201915b5050505050908060030154905084565b6000801b81565b61130961130261191b565b8383612752565b5050565b60008173ffffffffffffffffffffffffffffffffffffffff16600560019054906101000a900473ffffffffffffffffffffffffffffffffffffffff1673ffffffffffffffffffffffffffffffffffffffff16149050919050565b6000611384600160008481526020019081526020016000206128bf565b9050919050565b7f9f2df0fed2c77648de5860a4cc508cd0818c85b8b8a1ab4ceeef8d981c8956a681565b6113b882610803565b6113c9816113c461191b565b611e59565b6113d38383611f2a565b505050565b7f65d7a28e3265b37a6474929f336521b332c1681b933f6cb9f3376673440d862a81565b6000600360008473ffffffffffffffffffffffffffffffffffffffff1673ffffffffffffffffffffffffffffffffffffffff16815260200190815260200160002060008373ffffffffffffffffffffffffffffffffffffffff1673ffffffffffffffffffffffffffffffffffffffff16815260200190815260200160002060009054906101000a900460ff16905092915050565b61149861191b565b73ffffffffffffffffffffffffffffffffffffffff168573ffffffffffffffffffffffffffffffffffffffff1614806114de57506114dd856114d861191b565b6113fc565b5b61151d576040517f08c379a000000000000000000000000000000000000000000000000000000000815260040161151490614c02565b60405180910390fd5b61152a85858585856128d4565b5050505050565b61153961191b565b73ffffffffffffffffffffffffffffffffffffffff168373ffffffffffffffffffffffffffffffffffffffff16148061157f575061157e8361157961191b565b6113fc565b5b6115be576040517f08c379a00000000000000000000000000000000000000000000000000000000081526004016115b590614c02565b60405180910390fd5b6115c9838383612460565b505050565b60003373ffffffffffffffffffffffffffffffffffffffff16600560019054906101000a900473ffffffffffffffffffffffffffffffffffffffff1673ffffffffffffffffffffffffffffffffffffffff161461162a57600080fd5b611640600160065461200090919063ffffffff16565b600681905550611654846006548585610ee5565b604051806080016040528060065481526020018573ffffffffffffffffffffffffffffffffffffffff168152602001838152602001848152506007600060065481526020019081526020016000206000820151816000015560208201518160010160006101000a81548173ffffffffffffffffffffffffffffffffffffffff021916908373ffffffffffffffffffffffffffffffffffffffff160217905550604082015181600201908051906020019061170f9291906136de565b506060820151816003015590505060065490509392505050565b61173382826111ae565b61180557600160008084815260200190815260200160002060000160008373ffffffffffffffffffffffffffffffffffffffff1673ffffffffffffffffffffffffffffffffffffffff16815260200190815260200160002060006101000a81548160ff0219169083151502179055506117aa61191b565b73ffffffffffffffffffffffffffffffffffffffff168173ffffffffffffffffffffffffffffffffffffffff16837f2f8788117e7eff1d82e926ec794901d17c78024a50270940304540a733656f0d60405160405180910390a45b5050565b6000611831836000018373ffffffffffffffffffffffffffffffffffffffff1660001b612b59565b905092915050565b60007fd9b67a26000000000000000000000000000000000000000000000000000000007bffffffffffffffffffffffffffffffffffffffffffffffffffffffff1916827bffffffffffffffffffffffffffffffffffffffffffffffffffffffff1916148061190457507f0e89341c000000000000000000000000000000000000000000000000000000007bffffffffffffffffffffffffffffffffffffffffffffffffffffffff1916827bffffffffffffffffffffffffffffffffffffffffffffffffffffffff1916145b80611914575061191382612bc9565b5b9050919050565b600033905090565b600073ffffffffffffffffffffffffffffffffffffffff168473ffffffffffffffffffffffffffffffffffffffff161415611993576040517f08c379a000000000000000000000000000000000000000000000000000000000815260040161198a90614dfe565b60405180910390fd5b81518351146119d7576040517f08c379a00000000000000000000000000000000000000000000000000000000081526004016119ce90614e90565b60405180910390fd5b60006119e161191b565b90506119f281600087878787612c43565b60005b8451811015611aac57838181518110611a1157611a10614acf565b5b602002602001015160026000878481518110611a3057611a2f614acf565b5b6020026020010151815260200190815260200160002060008873ffffffffffffffffffffffffffffffffffffffff1673ffffffffffffffffffffffffffffffffffffffff1681526020019081526020016000206000828254611a929190614eb0565b925050819055508080611aa490614a86565b9150506119f5565b508473ffffffffffffffffffffffffffffffffffffffff16600073ffffffffffffffffffffffffffffffffffffffff168273ffffffffffffffffffffffffffffffffffffffff167f4a39dc06d4c0dbc64b70af90fd698a233a518aa5d07e595d983b8c0526c8f7fb8787604051611b24929190614f06565b60405180910390a4611b3b81600087878787612c59565b5050505050565b8151835114611b86576040517f08c379a0000000000000000000000000000000000000000000000000000000008152600401611b7d90614e90565b60405180910390fd5b600073ffffffffffffffffffffffffffffffffffffffff168473ffffffffffffffffffffffffffffffffffffffff161415611bf6576040517f08c379a0000000000000000000000000000000000000000000000000000000008152600401611bed90614faf565b60405180910390fd5b6000611c0061191b565b9050611c10818787878787612c43565b60005b8451811015611dc4576000858281518110611c3157611c30614acf565b5b602002602001015190506000858381518110611c5057611c4f614acf565b5b6020026020010151905060006002600084815260200190815260200160002060008b73ffffffffffffffffffffffffffffffffffffffff1673ffffffffffffffffffffffffffffffffffffffff16815260200190815260200160002054905081811015611cf2576040517f08c379a0000000000000000000000000000000000000000000000000000000008152600401611ce990615041565b60405180910390fd5b8181036002600085815260200190815260200160002060008c73ffffffffffffffffffffffffffffffffffffffff1673ffffffffffffffffffffffffffffffffffffffff16815260200190815260200160002081905550816002600085815260200190815260200160002060008b73ffffffffffffffffffffffffffffffffffffffff1673ffffffffffffffffffffffffffffffffffffffff1681526020019081526020016000206000828254611da99190614eb0565b9250508190555050505080611dbd90614a86565b9050611c13565b508473ffffffffffffffffffffffffffffffffffffffff168673ffffffffffffffffffffffffffffffffffffffff168273ffffffffffffffffffffffffffffffffffffffff167f4a39dc06d4c0dbc64b70af90fd698a233a518aa5d07e595d983b8c0526c8f7fb8787604051611e3b929190614f06565b60405180910390a4611e51818787878787612c59565b505050505050565b611e6382826111ae565b611ef257611e888173ffffffffffffffffffffffffffffffffffffffff166014612e31565b611e968360001c6020612e31565b604051602001611ea7929190615135565b6040516020818303038152906040526040517f08c379a0000000000000000000000000000000000000000000000000000000008152600401611ee99190613a14565b60405180910390fd5b5050565b611f008282611729565b611f25816001600085815260200190815260200160002061180990919063ffffffff16565b505050565b611f34828261306d565b611f59816001600085815260200190815260200160002061314e90919063ffffffff16565b505050565b611f66610e31565b611fa5576040517f08c379a0000000000000000000000000000000000000000000000000000000008152600401611f9c906151bb565b60405180910390fd5b6000600560006101000a81548160ff0219169083151502179055507f5db9ee0a495bf2e6ff9c91a7834c1ba4fdd244a5e8aa4e537bd38aeae4b073aa611fe961191b565b604051611ff6919061440f565b60405180910390a1565b6000818361200e9190614eb0565b905092915050565b600073ffffffffffffffffffffffffffffffffffffffff168373ffffffffffffffffffffffffffffffffffffffff161415612086576040517f08c379a000000000000000000000000000000000000000000000000000000000815260040161207d9061524d565b60405180910390fd5b80518251146120ca576040517f08c379a00000000000000000000000000000000000000000000000000000000081526004016120c190614e90565b60405180910390fd5b60006120d461191b565b90506120f481856000868660405180602001604052806000815250612c43565b60005b835181101561224357600084828151811061211557612114614acf565b5b60200260200101519050600084838151811061213457612133614acf565b5b6020026020010151905060006002600084815260200190815260200160002060008973ffffffffffffffffffffffffffffffffffffffff1673ffffffffffffffffffffffffffffffffffffffff168152602001908152602001600020549050818110156121d6576040517f08c379a00000000000000000000000000000000000000000000000000000000081526004016121cd906152df565b60405180910390fd5b8181036002600085815260200190815260200160002060008a73ffffffffffffffffffffffffffffffffffffffff1673ffffffffffffffffffffffffffffffffffffffff16815260200190815260200160002081905550505050808061223b90614a86565b9150506120f7565b50600073ffffffffffffffffffffffffffffffffffffffff168473ffffffffffffffffffffffffffffffffffffffff168273ffffffffffffffffffffffffffffffffffffffff167f4a39dc06d4c0dbc64b70af90fd698a233a518aa5d07e595d983b8c0526c8f7fb86866040516122bb929190614f06565b60405180910390a450505050565b600073ffffffffffffffffffffffffffffffffffffffff168473ffffffffffffffffffffffffffffffffffffffff161415612339576040517f08c379a000000000000000000000000000000000000000000000000000000000815260040161233090614dfe565b60405180910390fd5b600061234361191b565b9050612364816000876123558861317e565b61235e8861317e565b87612c43565b826002600086815260200190815260200160002060008773ffffffffffffffffffffffffffffffffffffffff1673ffffffffffffffffffffffffffffffffffffffff16815260200190815260200160002060008282546123c49190614eb0565b925050819055508473ffffffffffffffffffffffffffffffffffffffff16600073ffffffffffffffffffffffffffffffffffffffff168273ffffffffffffffffffffffffffffffffffffffff167fc3d58168c5ae7397731d063d5bbf3d657854427343f4c083240f7aacaa2d0f6287876040516124429291906152ff565b60405180910390a4612459816000878787876131f8565b5050505050565b600073ffffffffffffffffffffffffffffffffffffffff168373ffffffffffffffffffffffffffffffffffffffff1614156124d0576040517f08c379a00000000000000000000000000000000000000000000000000000000081526004016124c79061524d565b60405180910390fd5b60006124da61191b565b905061250a818560006124ec8761317e565b6124f58761317e565b60405180602001604052806000815250612c43565b60006002600085815260200190815260200160002060008673ffffffffffffffffffffffffffffffffffffffff1673ffffffffffffffffffffffffffffffffffffffff168152602001908152602001600020549050828110156125a2576040517f08c379a0000000000000000000000000000000000000000000000000000000008152600401612599906152df565b60405180910390fd5b8281036002600086815260200190815260200160002060008773ffffffffffffffffffffffffffffffffffffffff1673ffffffffffffffffffffffffffffffffffffffff16815260200190815260200160002081905550600073ffffffffffffffffffffffffffffffffffffffff168573ffffffffffffffffffffffffffffffffffffffff168373ffffffffffffffffffffffffffffffffffffffff167fc3d58168c5ae7397731d063d5bbf3d657854427343f4c083240f7aacaa2d0f6287876040516126709291906152ff565b60405180910390a45050505050565b6000818361268d9190615328565b905092915050565b61269d610e31565b156126dd576040517f08c379a00000000000000000000000000000000000000000000000000000000081526004016126d4906153a8565b60405180910390fd5b6001600560006101000a81548160ff0219169083151502179055507f62e78cea01bee320cd4e420270b5ea74000d11b0c9f74754ebdbfc544b05a25861272161191b565b60405161272e919061440f565b60405180910390a1565b600061274783600001836133d0565b60001c905092915050565b8173ffffffffffffffffffffffffffffffffffffffff168373ffffffffffffffffffffffffffffffffffffffff1614156127c1576040517f08c379a00000000000000000000000000000000000000000000000000000000081526004016127b89061543a565b60405180910390fd5b80600360008573ffffffffffffffffffffffffffffffffffffffff1673ffffffffffffffffffffffffffffffffffffffff16815260200190815260200160002060008473ffffffffffffffffffffffffffffffffffffffff1673ffffffffffffffffffffffffffffffffffffffff16815260200190815260200160002060006101000a81548160ff0219169083151502179055508173ffffffffffffffffffffffffffffffffffffffff168373ffffffffffffffffffffffffffffffffffffffff167f17307eab39ab6107e8899845ad3d59bd9653f200f220920489ca2b5937696c31836040516128b29190613933565b60405180910390a3505050565b60006128cd826000016133fb565b9050919050565b600073ffffffffffffffffffffffffffffffffffffffff168473ffffffffffffffffffffffffffffffffffffffff161415612944576040517f08c379a000000000000000000000000000000000000000000000000000000000815260040161293b90614faf565b60405180910390fd5b600061294e61191b565b905061296e81878761295f8861317e565b6129688861317e565b87612c43565b60006002600086815260200190815260200160002060008873ffffffffffffffffffffffffffffffffffffffff1673ffffffffffffffffffffffffffffffffffffffff16815260200190815260200160002054905083811015612a06576040517f08c379a00000000000000000000000000000000000000000000000000000000081526004016129fd90615041565b60405180910390fd5b8381036002600087815260200190815260200160002060008973ffffffffffffffffffffffffffffffffffffffff1673ffffffffffffffffffffffffffffffffffffffff16815260200190815260200160002081905550836002600087815260200190815260200160002060008873ffffffffffffffffffffffffffffffffffffffff1673ffffffffffffffffffffffffffffffffffffffff1681526020019081526020016000206000828254612abd9190614eb0565b925050819055508573ffffffffffffffffffffffffffffffffffffffff168773ffffffffffffffffffffffffffffffffffffffff168373ffffffffffffffffffffffffffffffffffffffff167fc3d58168c5ae7397731d063d5bbf3d657854427343f4c083240f7aacaa2d0f628888604051612b3a9291906152ff565b60405180910390a4612b508288888888886131f8565b50505050505050565b6000612b65838361340c565b612bbe578260000182908060018154018082558091505060019003906000526020600020016000909190919091505582600001805490508360010160008481526020019081526020016000208190555060019050612bc3565b600090505b92915050565b60007f5a05180f000000000000000000000000000000000000000000000000000000007bffffffffffffffffffffffffffffffffffffffffffffffffffffffff1916827bffffffffffffffffffffffffffffffffffffffffffffffffffffffff19161480612c3c5750612c3b8261342f565b5b9050919050565b612c518686868686866134a9565b505050505050565b612c788473ffffffffffffffffffffffffffffffffffffffff16613507565b15612e29578373ffffffffffffffffffffffffffffffffffffffff1663bc197c8187878686866040518663ffffffff1660e01b8152600401612cbe9594939291906154af565b6020604051808303816000875af1925050508015612cfa57506040513d601f19601f82011682018060405250810190612cf7919061552c565b60015b612da057612d06615566565b806308c379a01415612d635750612d1b615588565b80612d265750612d65565b806040517f08c379a0000000000000000000000000000000000000000000000000000000008152600401612d5a9190613a14565b60405180910390fd5b505b6040517f08c379a0000000000000000000000000000000000000000000000000000000008152600401612d9790615690565b60405180910390fd5b63bc197c8160e01b7bffffffffffffffffffffffffffffffffffffffffffffffffffffffff1916817bffffffffffffffffffffffffffffffffffffffffffffffffffffffff191614612e27576040517f08c379a0000000000000000000000000000000000000000000000000000000008152600401612e1e90615722565b60405180910390fd5b505b505050505050565b606060006002836002612e449190615742565b612e4e9190614eb0565b67ffffffffffffffff811115612e6757612e66613a3b565b5b6040519080825280601f01601f191660200182016040528015612e995781602001600182028036833780820191505090505b5090507f300000000000000000000000000000000000000000000000000000000000000081600081518110612ed157612ed0614acf565b5b60200101907effffffffffffffffffffffffffffffffffffffffffffffffffffffffffffff1916908160001a9053507f780000000000000000000000000000000000000000000000000000000000000081600181518110612f3557612f34614acf565b5b60200101907effffffffffffffffffffffffffffffffffffffffffffffffffffffffffffff1916908160001a90535060006001846002612f759190615742565b612f7f9190614eb0565b90505b600181111561301f577f3031323334353637383961626364656600000000000000000000000000000000600f861660108110612fc157612fc0614acf565b5b1a60f81b828281518110612fd857612fd7614acf565b5b60200101907effffffffffffffffffffffffffffffffffffffffffffffffffffffffffffff1916908160001a905350600485901c9450806130189061579c565b9050612f82565b5060008414613063576040517f08c379a000000000000000000000000000000000000000000000000000000000815260040161305a90615812565b60405180910390fd5b8091505092915050565b61307782826111ae565b1561314a57600080600084815260200190815260200160002060000160008373ffffffffffffffffffffffffffffffffffffffff1673ffffffffffffffffffffffffffffffffffffffff16815260200190815260200160002060006101000a81548160ff0219169083151502179055506130ef61191b565b73ffffffffffffffffffffffffffffffffffffffff168173ffffffffffffffffffffffffffffffffffffffff16837ff6391f5c32d9c69d2a47ea670b442974b53935d1edc7fd64eb21e047a839171b60405160405180910390a45b5050565b6000613176836000018373ffffffffffffffffffffffffffffffffffffffff1660001b61351a565b905092915050565b60606000600167ffffffffffffffff81111561319d5761319c613a3b565b5b6040519080825280602002602001820160405280156131cb5781602001602082028036833780820191505090505b50905082816000815181106131e3576131e2614acf565b5b60200260200101818152505080915050919050565b6132178473ffffffffffffffffffffffffffffffffffffffff16613507565b156133c8578373ffffffffffffffffffffffffffffffffffffffff1663f23a6e6187878686866040518663ffffffff1660e01b815260040161325d959493929190615832565b6020604051808303816000875af192505050801561329957506040513d601f19601f82011682018060405250810190613296919061552c565b60015b61333f576132a5615566565b806308c379a0141561330257506132ba615588565b806132c55750613304565b806040517f08c379a00000000000000000000000000000000000000000000000000000000081526004016132f99190613a14565b60405180910390fd5b505b6040517f08c379a000000000000000000000000000000000000000000000000000000000815260040161333690615690565b60405180910390fd5b63f23a6e6160e01b7bffffffffffffffffffffffffffffffffffffffffffffffffffffffff1916817bffffffffffffffffffffffffffffffffffffffffffffffffffffffff1916146133c6576040517f08c379a00000000000000000000000000000000000000000000000000000000081526004016133bd90615722565b60405180910390fd5b505b505050505050565b60008260000182815481106133e8576133e7614acf565b5b9060005260206000200154905092915050565b600081600001805490509050919050565b600080836001016000848152602001908152602001600020541415905092915050565b60007f7965db0b000000000000000000000000000000000000000000000000000000007bffffffffffffffffffffffffffffffffffffffffffffffffffffffff1916827bffffffffffffffffffffffffffffffffffffffffffffffffffffffff191614806134a257506134a18261362e565b5b9050919050565b6134b7868686868686613698565b6134bf610e31565b156134ff576040517f08c379a00000000000000000000000000000000000000000000000000000000081526004016134f6906158fe565b60405180910390fd5b505050505050565b600080823b905060008111915050919050565b6000808360010160008481526020019081526020016000205490506000811461362257600060018261354c9190615328565b90506000600186600001805490506135649190615328565b90508181146135d357600086600001828154811061358557613584614acf565b5b90600052602060002001549050808760000184815481106135a9576135a8614acf565b5b90600052602060002001819055508387600101600083815260200190815260200160002081905550505b856000018054806135e7576135e661591e565b5b600190038181906000526020600020016000905590558560010160008681526020019081526020016000206000905560019350505050613628565b60009150505b92915050565b60007f01ffc9a7000000000000000000000000000000000000000000000000000000007bffffffffffffffffffffffffffffffffffffffffffffffffffffffff1916827bffffffffffffffffffffffffffffffffffffffffffffffffffffffff1916149050919050565b505050505050565b604051806080016040528060008152602001600073ffffffffffffffffffffffffffffffffffffffff16815260200160608152602001600081525090565b8280546136ea906147dd565b90600052602060002090601f01602090048101928261370c5760008555613753565b82601f1061372557805160ff1916838001178555613753565b82800160010185558215613753579182015b82811115613752578251825591602001919060010190613737565b5b5090506137609190613764565b5090565b5b8082111561377d576000816000905550600101613765565b5090565b6000604051905090565b600080fd5b600080fd5b600073ffffffffffffffffffffffffffffffffffffffff82169050919050565b60006137c082613795565b9050919050565b6137d0816137b5565b81146137db57600080fd5b50565b6000813590506137ed816137c7565b92915050565b6000819050919050565b613806816137f3565b811461381157600080fd5b50565b600081359050613823816137fd565b92915050565b600080604083850312156138405761383f61378b565b5b600061384e858286016137de565b925050602061385f85828601613814565b9150509250929050565b613872816137f3565b82525050565b600060208201905061388d6000830184613869565b92915050565b60007fffffffff0000000000000000000000000000000000000000000000000000000082169050919050565b6138c881613893565b81146138d357600080fd5b50565b6000813590506138e5816138bf565b92915050565b6000602082840312156139015761390061378b565b5b600061390f848285016138d6565b91505092915050565b60008115159050919050565b61392d81613918565b82525050565b60006020820190506139486000830184613924565b92915050565b6000602082840312156139645761396361378b565b5b600061397284828501613814565b91505092915050565b600081519050919050565b600082825260208201905092915050565b60005b838110156139b557808201518184015260208101905061399a565b838111156139c4576000848401525b50505050565b6000601f19601f8301169050919050565b60006139e68261397b565b6139f08185613986565b9350613a00818560208601613997565b613a09816139ca565b840191505092915050565b60006020820190508181036000830152613a2e81846139db565b905092915050565b600080fd5b7f4e487b7100000000000000000000000000000000000000000000000000000000600052604160045260246000fd5b613a73826139ca565b810181811067ffffffffffffffff82111715613a9257613a91613a3b565b5b80604052505050565b6000613aa5613781565b9050613ab18282613a6a565b919050565b600067ffffffffffffffff821115613ad157613ad0613a3b565b5b602082029050602081019050919050565b600080fd5b6000613afa613af584613ab6565b613a9b565b90508083825260208201905060208402830185811115613b1d57613b1c613ae2565b5b835b81811015613b465780613b328882613814565b845260208401935050602081019050613b1f565b5050509392505050565b600082601f830112613b6557613b64613a36565b5b8135613b75848260208601613ae7565b91505092915050565b600080fd5b600067ffffffffffffffff821115613b9e57613b9d613a3b565b5b613ba7826139ca565b9050602081019050919050565b82818337600083830152505050565b6000613bd6613bd184613b83565b613a9b565b905082815260208101848484011115613bf257613bf1613b7e565b5b613bfd848285613bb4565b509392505050565b600082601f830112613c1a57613c19613a36565b5b8135613c2a848260208601613bc3565b91505092915050565b60008060008060808587031215613c4d57613c4c61378b565b5b6000613c5b878288016137de565b945050602085013567ffffffffffffffff811115613c7c57613c7b613790565b5b613c8887828801613b50565b935050604085013567ffffffffffffffff811115613ca957613ca8613790565b5b613cb587828801613b50565b925050606085013567ffffffffffffffff811115613cd657613cd5613790565b5b613ce287828801613c05565b91505092959194509250565b6000819050919050565b613d0181613cee565b8114613d0c57600080fd5b50565b600081359050613d1e81613cf8565b92915050565b600060208284031215613d3a57613d3961378b565b5b6000613d4884828501613d0f565b91505092915050565b613d5a81613cee565b82525050565b6000602082019050613d756000830184613d51565b92915050565b600080600080600060a08688031215613d9757613d9661378b565b5b6000613da5888289016137de565b9550506020613db6888289016137de565b945050604086013567ffffffffffffffff811115613dd757613dd6613790565b5b613de388828901613b50565b935050606086013567ffffffffffffffff811115613e0457613e03613790565b5b613e1088828901613b50565b925050608086013567ffffffffffffffff811115613e3157613e30613790565b5b613e3d88828901613c05565b9150509295509295909350565b60008060408385031215613e6157613e6061378b565b5b6000613e6f85828601613d0f565b9250506020613e80858286016137de565b9150509250929050565b600060208284031215613ea057613e9f61378b565b5b6000613eae848285016137de565b91505092915050565b600081519050919050565b600082825260208201905092915050565b6000819050602082019050919050565b613eec816137f3565b82525050565b613efb816137b5565b82525050565b600082825260208201905092915050565b6000613f1d8261397b565b613f278185613f01565b9350613f37818560208601613997565b613f40816139ca565b840191505092915050565b6000608083016000830151613f636000860182613ee3565b506020830151613f766020860182613ef2565b5060408301518482036040860152613f8e8282613f12565b9150506060830151613fa36060860182613ee3565b508091505092915050565b6000613fba8383613f4b565b905092915050565b6000602082019050919050565b6000613fda82613eb7565b613fe48185613ec2565b935083602082028501613ff685613ed3565b8060005b8581101561403257848403895281516140138582613fae565b945061401e83613fc2565b925060208a01995050600181019050613ffa565b50829750879550505050505092915050565b6000602082019050818103600083015261405e8184613fcf565b905092915050565b600067ffffffffffffffff82111561408157614080613a3b565b5b602082029050602081019050919050565b60006140a56140a084614066565b613a9b565b905080838252602082019050602084028301858111156140c8576140c7613ae2565b5b835b818110156140f157806140dd88826137de565b8452602084019350506020810190506140ca565b5050509392505050565b600082601f8301126141105761410f613a36565b5b8135614120848260208601614092565b91505092915050565b600080604083850312156141405761413f61378b565b5b600083013567ffffffffffffffff81111561415e5761415d613790565b5b61416a858286016140fb565b925050602083013567ffffffffffffffff81111561418b5761418a613790565b5b61419785828601613b50565b9150509250929050565b600081519050919050565b600082825260208201905092915050565b6000819050602082019050919050565b60006141d98383613ee3565b60208301905092915050565b6000602082019050919050565b60006141fd826141a1565b61420781856141ac565b9350614212836141bd565b8060005b8381101561424357815161422a88826141cd565b9750614235836141e5565b925050600181019050614216565b5085935050505092915050565b6000602082019050818103600083015261426a81846141f2565b905092915050565b60008060006060848603121561428b5761428a61378b565b5b6000614299868287016137de565b935050602084013567ffffffffffffffff8111156142ba576142b9613790565b5b6142c686828701613b50565b925050604084013567ffffffffffffffff8111156142e7576142e6613790565b5b6142f386828701613b50565b9150509250925092565b600080600080608085870312156143175761431661378b565b5b6000614325878288016137de565b945050602061433687828801613814565b935050604061434787828801613814565b925050606085013567ffffffffffffffff81111561436857614367613790565b5b61437487828801613c05565b91505092959194509250565b600080604083850312156143975761439661378b565b5b60006143a585828601613814565b92505060206143b685828601613814565b9150509250929050565b600080604083850312156143d7576143d661378b565b5b60006143e585828601613d0f565b92505060206143f685828601613814565b9150509250929050565b614409816137b5565b82525050565b60006020820190506144246000830184614400565b92915050565b600060808201905061443f6000830187613869565b61444c6020830186614400565b818103604083015261445e81856139db565b905061446d6060830184613869565b95945050505050565b61447f81613918565b811461448a57600080fd5b50565b60008135905061449c81614476565b92915050565b600080604083850312156144b9576144b861378b565b5b60006144c7858286016137de565b92505060206144d88582860161448d565b9150509250929050565b600080604083850312156144f9576144f861378b565b5b6000614507858286016137de565b9250506020614518858286016137de565b9150509250929050565b600080600080600060a0868803121561453e5761453d61378b565b5b600061454c888289016137de565b955050602061455d888289016137de565b945050604061456e88828901613814565b935050606061457f88828901613814565b925050608086013567ffffffffffffffff8111156145a05761459f613790565b5b6145ac88828901613c05565b9150509295509295909350565b6000806000606084860312156145d2576145d161378b565b5b60006145e0868287016137de565b93505060206145f186828701613814565b925050604061460286828701613814565b9150509250925092565b600067ffffffffffffffff82111561462757614626613a3b565b5b614630826139ca565b9050602081019050919050565b600061465061464b8461460c565b613a9b565b90508281526020810184848401111561466c5761466b613b7e565b5b614677848285613bb4565b509392505050565b600082601f83011261469457614693613a36565b5b81356146a484826020860161463d565b91505092915050565b6000806000606084860312156146c6576146c561378b565b5b60006146d4868287016137de565b93505060206146e586828701613814565b925050604084013567ffffffffffffffff81111561470657614705613790565b5b6147128682870161467f565b9150509250925092565b7f455243313135353a2062616c616e636520717565727920666f7220746865207a60008201527f65726f2061646472657373000000000000000000000000000000000000000000602082015250565b6000614778602b83613986565b91506147838261471c565b604082019050919050565b600060208201905081810360008301526147a78161476b565b9050919050565b7f4e487b7100000000000000000000000000000000000000000000000000000000600052602260045260246000fd5b600060028204905060018216806147f557607f821691505b60208210811415614809576148086147ae565b5b50919050565b7f455243313135355072657365744d696e7465725061757365723a206d7573742060008201527f68617665206d696e74657220726f6c6520746f206d696e740000000000000000602082015250565b600061486b603883613986565b91506148768261480f565b604082019050919050565b6000602082019050818103600083015261489a8161485e565b9050919050565b7f455243313135353a207472616e736665722063616c6c6572206973206e6f742060008201527f6f776e6572206e6f7220617070726f7665640000000000000000000000000000602082015250565b60006148fd603283613986565b9150614908826148a1565b604082019050919050565b6000602082019050818103600083015261492c816148f0565b9050919050565b7f416363657373436f6e74726f6c3a2063616e206f6e6c792072656e6f756e636560008201527f20726f6c657320666f722073656c660000000000000000000000000000000000602082015250565b600061498f602f83613986565b915061499a82614933565b604082019050919050565b600060208201905081810360008301526149be81614982565b9050919050565b7f455243313135355072657365744d696e7465725061757365723a206d7573742060008201527f686176652070617573657220726f6c6520746f20756e70617573650000000000602082015250565b6000614a21603b83613986565b9150614a2c826149c5565b604082019050919050565b60006020820190508181036000830152614a5081614a14565b9050919050565b7f4e487b7100000000000000000000000000000000000000000000000000000000600052601160045260246000fd5b6000614a91826137f3565b91507fffffffffffffffffffffffffffffffffffffffffffffffffffffffffffffffff821415614ac457614ac3614a57565b5b600182019050919050565b7f4e487b7100000000000000000000000000000000000000000000000000000000600052603260045260246000fd5b7f455243313135353a206163636f756e747320616e6420696473206c656e67746860008201527f206d69736d617463680000000000000000000000000000000000000000000000602082015250565b6000614b5a602983613986565b9150614b6582614afe565b604082019050919050565b60006020820190508181036000830152614b8981614b4d565b9050919050565b7f455243313135353a2063616c6c6572206973206e6f74206f776e6572206e6f7260008201527f20617070726f7665640000000000000000000000000000000000000000000000602082015250565b6000614bec602983613986565b9150614bf782614b90565b604082019050919050565b60006020820190508181036000830152614c1b81614bdf565b9050919050565b7f43616e6e6f74206275726e000000000000000000000000000000000000000000600082015250565b6000614c58600b83613986565b9150614c6382614c22565b602082019050919050565b60006020820190508181036000830152614c8781614c4b565b9050919050565b7f42616c616e636520746f6f20736d616c6c000000000000000000000000000000600082015250565b6000614cc4601183613986565b9150614ccf82614c8e565b602082019050919050565b60006020820190508181036000830152614cf381614cb7565b9050919050565b7f455243313135355072657365744d696e7465725061757365723a206d7573742060008201527f686176652070617573657220726f6c6520746f20706175736500000000000000602082015250565b6000614d56603983613986565b9150614d6182614cfa565b604082019050919050565b60006020820190508181036000830152614d8581614d49565b9050919050565b7f455243313135353a206d696e7420746f20746865207a65726f2061646472657360008201527f7300000000000000000000000000000000000000000000000000000000000000602082015250565b6000614de8602183613986565b9150614df382614d8c565b604082019050919050565b60006020820190508181036000830152614e1781614ddb565b9050919050565b7f455243313135353a2069647320616e6420616d6f756e7473206c656e6774682060008201527f6d69736d61746368000000000000000000000000000000000000000000000000602082015250565b6000614e7a602883613986565b9150614e8582614e1e565b604082019050919050565b60006020820190508181036000830152614ea981614e6d565b9050919050565b6000614ebb826137f3565b9150614ec6836137f3565b9250827fffffffffffffffffffffffffffffffffffffffffffffffffffffffffffffffff03821115614efb57614efa614a57565b5b828201905092915050565b60006040820190508181036000830152614f2081856141f2565b90508181036020830152614f3481846141f2565b90509392505050565b7f455243313135353a207472616e7366657220746f20746865207a65726f20616460008201527f6472657373000000000000000000000000000000000000000000000000000000602082015250565b6000614f99602583613986565b9150614fa482614f3d565b604082019050919050565b60006020820190508181036000830152614fc881614f8c565b9050919050565b7f455243313135353a20696e73756666696369656e742062616c616e636520666f60008201527f72207472616e7366657200000000000000000000000000000000000000000000602082015250565b600061502b602a83613986565b915061503682614fcf565b604082019050919050565b6000602082019050818103600083015261505a8161501e565b9050919050565b600081905092915050565b7f416363657373436f6e74726f6c3a206163636f756e7420000000000000000000600082015250565b60006150a2601783615061565b91506150ad8261506c565b601782019050919050565b60006150c38261397b565b6150cd8185615061565b93506150dd818560208601613997565b80840191505092915050565b7f206973206d697373696e6720726f6c6520000000000000000000000000000000600082015250565b600061511f601183615061565b915061512a826150e9565b601182019050919050565b600061514082615095565b915061514c82856150b8565b915061515782615112565b915061516382846150b8565b91508190509392505050565b7f5061757361626c653a206e6f7420706175736564000000000000000000000000600082015250565b60006151a5601483613986565b91506151b08261516f565b602082019050919050565b600060208201905081810360008301526151d481615198565b9050919050565b7f455243313135353a206275726e2066726f6d20746865207a65726f206164647260008201527f6573730000000000000000000000000000000000000000000000000000000000602082015250565b6000615237602383613986565b9150615242826151db565b604082019050919050565b600060208201905081810360008301526152668161522a565b9050919050565b7f455243313135353a206275726e20616d6f756e7420657863656564732062616c60008201527f616e636500000000000000000000000000000000000000000000000000000000602082015250565b60006152c9602483613986565b91506152d48261526d565b604082019050919050565b600060208201905081810360008301526152f8816152bc565b9050919050565b60006040820190506153146000830185613869565b6153216020830184613869565b9392505050565b6000615333826137f3565b915061533e836137f3565b92508282101561535157615350614a57565b5b828203905092915050565b7f5061757361626c653a2070617573656400000000000000000000000000000000600082015250565b6000615392601083613986565b915061539d8261535c565b602082019050919050565b600060208201905081810360008301526153c181615385565b9050919050565b7f455243313135353a2073657474696e6720617070726f76616c2073746174757360008201527f20666f722073656c660000000000000000000000000000000000000000000000602082015250565b6000615424602983613986565b915061542f826153c8565b604082019050919050565b6000602082019050818103600083015261545381615417565b9050919050565b600081519050919050565b600082825260208201905092915050565b60006154818261545a565b61548b8185615465565b935061549b818560208601613997565b6154a4816139ca565b840191505092915050565b600060a0820190506154c46000830188614400565b6154d16020830187614400565b81810360408301526154e381866141f2565b905081810360608301526154f781856141f2565b9050818103608083015261550b8184615476565b90509695505050505050565b600081519050615526816138bf565b92915050565b6000602082840312156155425761554161378b565b5b600061555084828501615517565b91505092915050565b60008160e01c9050919050565b600060033d11156155855760046000803e615582600051615559565b90505b90565b600060443d10156155985761561b565b6155a0613781565b60043d036004823e80513d602482011167ffffffffffffffff821117156155c857505061561b565b808201805167ffffffffffffffff8111156155e6575050505061561b565b80602083010160043d03850181111561560357505050505061561b565b61561282602001850186613a6a565b82955050505050505b90565b7f455243313135353a207472616e7366657220746f206e6f6e204552433131353560008201527f526563656976657220696d706c656d656e746572000000000000000000000000602082015250565b600061567a603483613986565b91506156858261561e565b604082019050919050565b600060208201905081810360008301526156a98161566d565b9050919050565b7f455243313135353a204552433131353552656365697665722072656a6563746560008201527f6420746f6b656e73000000000000000000000000000000000000000000000000602082015250565b600061570c602883613986565b9150615717826156b0565b604082019050919050565b6000602082019050818103600083015261573b816156ff565b9050919050565b600061574d826137f3565b9150615758836137f3565b9250817fffffffffffffffffffffffffffffffffffffffffffffffffffffffffffffffff048311821515161561579157615790614a57565b5b828202905092915050565b60006157a7826137f3565b915060008214156157bb576157ba614a57565b5b600182039050919050565b7f537472696e67733a20686578206c656e67746820696e73756666696369656e74600082015250565b60006157fc602083613986565b9150615807826157c6565b602082019050919050565b6000602082019050818103600083015261582b816157ef565b9050919050565b600060a0820190506158476000830188614400565b6158546020830187614400565b6158616040830186613869565b61586e6060830185613869565b81810360808301526158808184615476565b90509695505050505050565b7f455243313135355061757361626c653a20746f6b656e207472616e736665722060008201527f7768696c65207061757365640000000000000000000000000000000000000000602082015250565b60006158e8602c83613986565b91506158f38261588c565b604082019050919050565b60006020820190508181036000830152615917816158db565b9050919050565b7f4e487b7100000000000000000000000000000000000000000000000000000000600052603160045260246000fdfea2646970667358221220e79db270c00a11bf24ea4562daf7fefaff5f998e09323d23331bc7adb017648964736f6c634300080b0033",
  "immutableReferences": {},
  "source": "// SPDX-License-Identifier: MIT\npragma solidity 0.8.11;\n\nimport \"@openzeppelin/contracts/token/ERC1155/presets/ERC1155PresetMinterPauser.sol\";\nimport \"openzeppelin-solidity/contracts/utils/math/SafeMath.sol\";\n\ncontract Anoying is ERC1155PresetMinterPauser {\n    using SafeMath for uint256;\n    address MINTER;\n    uint256 tokenAmount = 0;\n\n    struct Token{\n        uint256 id;\n        address owner;\n        string dataKey;\n        uint256 balance;\n    }\n    mapping(uint256 => Token) public ownership;\n\n    constructor() ERC1155PresetMinterPauser('http://localhost:3003?token={id}') {\n        MINTER = msg.sender;\n    }\n\n    function mintToken(\n        address to,\n        uint256 amount,\n        string memory data\n    ) public virtual returns(uint256) {\n        require(MINTER == msg.sender);\n        tokenAmount = tokenAmount.add(1);\n        mint(to, tokenAmount, amount, bytes(data));\n        ownership[tokenAmount] = Token(tokenAmount, to, data, amount);\n        return tokenAmount;\n    }\n\n    function isMinter(address from) public view returns(bool) {\n        return MINTER == from;\n    }\n\n    function getTokens(address owner) public view returns(Token[] memory) {\n        uint256 l = 0;\n        for (uint256 index = 1; index <= tokenAmount; index++) {\n            if(ownership[index].owner == owner && ownership[index].balance > 0){\n                l = l.add(1);\n            }\n        }\n\n        Token[] memory tokensOfOwner = new Token[](l);\n        l = 0;\n        for (uint256 _index = 1; _index <= tokenAmount; _index++) {\n            if(ownership[_index].owner == owner && ownership[_index].balance > 0){\n                tokensOfOwner[l] = ownership[_index];\n                l = l.add(1);\n            }\n        }\n\n        return tokensOfOwner;\n    }\n\n    function burnToken(uint256 tokenId, uint256 amount) public{\n        address owner = ownership[tokenId].owner;\n        uint256 balance = ownership[tokenId].balance;\n        require(msg.sender == owner || msg.sender == MINTER, \"Cannot burn\");\n        require(balance >= amount, \"Balance too small\");\n        _burn(owner, tokenId, amount);\n        ownership[tokenId].balance = balance.sub(1);\n    }\n}\n",
  "sourcePath": "/Users/deniskuivalainen/Documents/nft-test-task/src/token/contracts/Anoying.sol",
  "compiler": {
    "name": "solc",
    "version": "0.8.11+commit.d7f03943.Emscripten.clang"
  },
  "schemaVersion": "3.4.4",
  "updatedAt": "2022-01-29T23:16:30.437Z",
  "networkType": "ethereum",
  "devdoc": {
    "kind": "dev",
    "methods": {
      "balanceOf(address,uint256)": {
        "details": "See {IERC1155-balanceOf}. Requirements: - `account` cannot be the zero address."
      },
      "balanceOfBatch(address[],uint256[])": {
        "details": "See {IERC1155-balanceOfBatch}. Requirements: - `accounts` and `ids` must have the same length."
      },
      "getRoleAdmin(bytes32)": {
        "details": "Returns the admin role that controls `role`. See {grantRole} and {revokeRole}. To change a role's admin, use {_setRoleAdmin}."
      },
      "getRoleMember(bytes32,uint256)": {
        "details": "Returns one of the accounts that have `role`. `index` must be a value between 0 and {getRoleMemberCount}, non-inclusive. Role bearers are not sorted in any particular way, and their ordering may change at any point. WARNING: When using {getRoleMember} and {getRoleMemberCount}, make sure you perform all queries on the same block. See the following https://forum.openzeppelin.com/t/iterating-over-elements-on-enumerableset-in-openzeppelin-contracts/2296[forum post] for more information."
      },
      "getRoleMemberCount(bytes32)": {
        "details": "Returns the number of accounts that have `role`. Can be used together with {getRoleMember} to enumerate all bearers of a role."
      },
      "grantRole(bytes32,address)": {
        "details": "Grants `role` to `account`. If `account` had not been already granted `role`, emits a {RoleGranted} event. Requirements: - the caller must have ``role``'s admin role."
      },
      "hasRole(bytes32,address)": {
        "details": "Returns `true` if `account` has been granted `role`."
      },
      "isApprovedForAll(address,address)": {
        "details": "See {IERC1155-isApprovedForAll}."
      },
      "mint(address,uint256,uint256,bytes)": {
        "details": "Creates `amount` new tokens for `to`, of token type `id`. See {ERC1155-_mint}. Requirements: - the caller must have the `MINTER_ROLE`."
      },
      "mintBatch(address,uint256[],uint256[],bytes)": {
        "details": "xref:ROOT:erc1155.adoc#batch-operations[Batched] variant of {mint}."
      },
      "pause()": {
        "details": "Pauses all token transfers. See {ERC1155Pausable} and {Pausable-_pause}. Requirements: - the caller must have the `PAUSER_ROLE`."
      },
      "paused()": {
        "details": "Returns true if the contract is paused, and false otherwise."
      },
      "renounceRole(bytes32,address)": {
        "details": "Revokes `role` from the calling account. Roles are often managed via {grantRole} and {revokeRole}: this function's purpose is to provide a mechanism for accounts to lose their privileges if they are compromised (such as when a trusted device is misplaced). If the calling account had been revoked `role`, emits a {RoleRevoked} event. Requirements: - the caller must be `account`."
      },
      "revokeRole(bytes32,address)": {
        "details": "Revokes `role` from `account`. If `account` had been granted `role`, emits a {RoleRevoked} event. Requirements: - the caller must have ``role``'s admin role."
      },
      "safeBatchTransferFrom(address,address,uint256[],uint256[],bytes)": {
        "details": "See {IERC1155-safeBatchTransferFrom}."
      },
      "safeTransferFrom(address,address,uint256,uint256,bytes)": {
        "details": "See {IERC1155-safeTransferFrom}."
      },
      "setApprovalForAll(address,bool)": {
        "details": "See {IERC1155-setApprovalForAll}."
      },
      "supportsInterface(bytes4)": {
        "details": "See {IERC165-supportsInterface}."
      },
      "unpause()": {
        "details": "Unpauses all token transfers. See {ERC1155Pausable} and {Pausable-_unpause}. Requirements: - the caller must have the `PAUSER_ROLE`."
      },
      "uri(uint256)": {
        "details": "See {IERC1155MetadataURI-uri}. This implementation returns the same URI for *all* token types. It relies on the token type ID substitution mechanism https://eips.ethereum.org/EIPS/eip-1155#metadata[defined in the EIP]. Clients calling this function must replace the `\\{id\\}` substring with the actual token type ID."
      }
    },
    "version": 1
  },
  "userdoc": {
    "kind": "user",
    "methods": {},
    "version": 1
  }
}