{
  "contractName": "Anoying",
  "abi": [
    {
      "inputs": [],
      "stateMutability": "nonpayable",
      "type": "constructor"
    },
    {
      "anonymous": false,
      "inputs": [
        {
          "indexed": true,
          "internalType": "address",
          "name": "account",
          "type": "address"
        },
        {
          "indexed": true,
          "internalType": "address",
          "name": "operator",
          "type": "address"
        },
        {
          "indexed": false,
          "internalType": "bool",
          "name": "approved",
          "type": "bool"
        }
      ],
      "name": "ApprovalForAll",
      "type": "event"
    },
    {
      "anonymous": false,
      "inputs": [
        {
          "indexed": false,
          "internalType": "address",
          "name": "account",
          "type": "address"
        }
      ],
      "name": "Paused",
      "type": "event"
    },
    {
      "anonymous": false,
      "inputs": [
        {
          "indexed": true,
          "internalType": "bytes32",
          "name": "role",
          "type": "bytes32"
        },
        {
          "indexed": true,
          "internalType": "bytes32",
          "name": "previousAdminRole",
          "type": "bytes32"
        },
        {
          "indexed": true,
          "internalType": "bytes32",
          "name": "newAdminRole",
          "type": "bytes32"
        }
      ],
      "name": "RoleAdminChanged",
      "type": "event"
    },
    {
      "anonymous": false,
      "inputs": [
        {
          "indexed": true,
          "internalType": "bytes32",
          "name": "role",
          "type": "bytes32"
        },
        {
          "indexed": true,
          "internalType": "address",
          "name": "account",
          "type": "address"
        },
        {
          "indexed": true,
          "internalType": "address",
          "name": "sender",
          "type": "address"
        }
      ],
      "name": "RoleGranted",
      "type": "event"
    },
    {
      "anonymous": false,
      "inputs": [
        {
          "indexed": true,
          "internalType": "bytes32",
          "name": "role",
          "type": "bytes32"
        },
        {
          "indexed": true,
          "internalType": "address",
          "name": "account",
          "type": "address"
        },
        {
          "indexed": true,
          "internalType": "address",
          "name": "sender",
          "type": "address"
        }
      ],
      "name": "RoleRevoked",
      "type": "event"
    },
    {
      "anonymous": false,
      "inputs": [
        {
          "indexed": true,
          "internalType": "address",
          "name": "operator",
          "type": "address"
        },
        {
          "indexed": true,
          "internalType": "address",
          "name": "from",
          "type": "address"
        },
        {
          "indexed": true,
          "internalType": "address",
          "name": "to",
          "type": "address"
        },
        {
          "indexed": false,
          "internalType": "uint256[]",
          "name": "ids",
          "type": "uint256[]"
        },
        {
          "indexed": false,
          "internalType": "uint256[]",
          "name": "values",
          "type": "uint256[]"
        }
      ],
      "name": "TransferBatch",
      "type": "event"
    },
    {
      "anonymous": false,
      "inputs": [
        {
          "indexed": true,
          "internalType": "address",
          "name": "operator",
          "type": "address"
        },
        {
          "indexed": true,
          "internalType": "address",
          "name": "from",
          "type": "address"
        },
        {
          "indexed": true,
          "internalType": "address",
          "name": "to",
          "type": "address"
        },
        {
          "indexed": false,
          "internalType": "uint256",
          "name": "id",
          "type": "uint256"
        },
        {
          "indexed": false,
          "internalType": "uint256",
          "name": "value",
          "type": "uint256"
        }
      ],
      "name": "TransferSingle",
      "type": "event"
    },
    {
      "anonymous": false,
      "inputs": [
        {
          "indexed": false,
          "internalType": "string",
          "name": "value",
          "type": "string"
        },
        {
          "indexed": true,
          "internalType": "uint256",
          "name": "id",
          "type": "uint256"
        }
      ],
      "name": "URI",
      "type": "event"
    },
    {
      "anonymous": false,
      "inputs": [
        {
          "indexed": false,
          "internalType": "address",
          "name": "account",
          "type": "address"
        }
      ],
      "name": "Unpaused",
      "type": "event"
    },
    {
      "inputs": [],
      "name": "DEFAULT_ADMIN_ROLE",
      "outputs": [
        {
          "internalType": "bytes32",
          "name": "",
          "type": "bytes32"
        }
      ],
      "stateMutability": "view",
      "type": "function",
      "constant": true
    },
    {
      "inputs": [],
      "name": "MINTER_ROLE",
      "outputs": [
        {
          "internalType": "bytes32",
          "name": "",
          "type": "bytes32"
        }
      ],
      "stateMutability": "view",
      "type": "function",
      "constant": true
    },
    {
      "inputs": [],
      "name": "PAUSER_ROLE",
      "outputs": [
        {
          "internalType": "bytes32",
          "name": "",
          "type": "bytes32"
        }
      ],
      "stateMutability": "view",
      "type": "function",
      "constant": true
    },
    {
      "inputs": [
        {
          "internalType": "address",
          "name": "account",
          "type": "address"
        },
        {
          "internalType": "uint256",
          "name": "id",
          "type": "uint256"
        }
      ],
      "name": "balanceOf",
      "outputs": [
        {
          "internalType": "uint256",
          "name": "",
          "type": "uint256"
        }
      ],
      "stateMutability": "view",
      "type": "function",
      "constant": true
    },
    {
      "inputs": [
        {
          "internalType": "address[]",
          "name": "accounts",
          "type": "address[]"
        },
        {
          "internalType": "uint256[]",
          "name": "ids",
          "type": "uint256[]"
        }
      ],
      "name": "balanceOfBatch",
      "outputs": [
        {
          "internalType": "uint256[]",
          "name": "",
          "type": "uint256[]"
        }
      ],
      "stateMutability": "view",
      "type": "function",
      "constant": true
    },
    {
      "inputs": [
        {
          "internalType": "address",
          "name": "account",
          "type": "address"
        },
        {
          "internalType": "uint256",
          "name": "id",
          "type": "uint256"
        },
        {
          "internalType": "uint256",
          "name": "value",
          "type": "uint256"
        }
      ],
      "name": "burn",
      "outputs": [],
      "stateMutability": "nonpayable",
      "type": "function"
    },
    {
      "inputs": [
        {
          "internalType": "address",
          "name": "account",
          "type": "address"
        },
        {
          "internalType": "uint256[]",
          "name": "ids",
          "type": "uint256[]"
        },
        {
          "internalType": "uint256[]",
          "name": "values",
          "type": "uint256[]"
        }
      ],
      "name": "burnBatch",
      "outputs": [],
      "stateMutability": "nonpayable",
      "type": "function"
    },
    {
      "inputs": [
        {
          "internalType": "bytes32",
          "name": "role",
          "type": "bytes32"
        }
      ],
      "name": "getRoleAdmin",
      "outputs": [
        {
          "internalType": "bytes32",
          "name": "",
          "type": "bytes32"
        }
      ],
      "stateMutability": "view",
      "type": "function",
      "constant": true
    },
    {
      "inputs": [
        {
          "internalType": "bytes32",
          "name": "role",
          "type": "bytes32"
        },
        {
          "internalType": "uint256",
          "name": "index",
          "type": "uint256"
        }
      ],
      "name": "getRoleMember",
      "outputs": [
        {
          "internalType": "address",
          "name": "",
          "type": "address"
        }
      ],
      "stateMutability": "view",
      "type": "function",
      "constant": true
    },
    {
      "inputs": [
        {
          "internalType": "bytes32",
          "name": "role",
          "type": "bytes32"
        }
      ],
      "name": "getRoleMemberCount",
      "outputs": [
        {
          "internalType": "uint256",
          "name": "",
          "type": "uint256"
        }
      ],
      "stateMutability": "view",
      "type": "function",
      "constant": true
    },
    {
      "inputs": [
        {
          "internalType": "bytes32",
          "name": "role",
          "type": "bytes32"
        },
        {
          "internalType": "address",
          "name": "account",
          "type": "address"
        }
      ],
      "name": "grantRole",
      "outputs": [],
      "stateMutability": "nonpayable",
      "type": "function"
    },
    {
      "inputs": [
        {
          "internalType": "bytes32",
          "name": "role",
          "type": "bytes32"
        },
        {
          "internalType": "address",
          "name": "account",
          "type": "address"
        }
      ],
      "name": "hasRole",
      "outputs": [
        {
          "internalType": "bool",
          "name": "",
          "type": "bool"
        }
      ],
      "stateMutability": "view",
      "type": "function",
      "constant": true
    },
    {
      "inputs": [
        {
          "internalType": "address",
          "name": "account",
          "type": "address"
        },
        {
          "internalType": "address",
          "name": "operator",
          "type": "address"
        }
      ],
      "name": "isApprovedForAll",
      "outputs": [
        {
          "internalType": "bool",
          "name": "",
          "type": "bool"
        }
      ],
      "stateMutability": "view",
      "type": "function",
      "constant": true
    },
    {
      "inputs": [
        {
          "internalType": "address",
          "name": "to",
          "type": "address"
        },
        {
          "internalType": "uint256",
          "name": "id",
          "type": "uint256"
        },
        {
          "internalType": "uint256",
          "name": "amount",
          "type": "uint256"
        },
        {
          "internalType": "bytes",
          "name": "data",
          "type": "bytes"
        }
      ],
      "name": "mint",
      "outputs": [],
      "stateMutability": "nonpayable",
      "type": "function"
    },
    {
      "inputs": [
        {
          "internalType": "address",
          "name": "to",
          "type": "address"
        },
        {
          "internalType": "uint256[]",
          "name": "ids",
          "type": "uint256[]"
        },
        {
          "internalType": "uint256[]",
          "name": "amounts",
          "type": "uint256[]"
        },
        {
          "internalType": "bytes",
          "name": "data",
          "type": "bytes"
        }
      ],
      "name": "mintBatch",
      "outputs": [],
      "stateMutability": "nonpayable",
      "type": "function"
    },
    {
      "inputs": [
        {
          "internalType": "uint256",
          "name": "",
          "type": "uint256"
        }
      ],
      "name": "ownership",
      "outputs": [
        {
          "internalType": "uint256",
          "name": "id",
          "type": "uint256"
        },
        {
          "internalType": "address",
          "name": "owner",
          "type": "address"
        },
        {
          "internalType": "string",
          "name": "dataKey",
          "type": "string"
        }
      ],
      "stateMutability": "view",
      "type": "function",
      "constant": true
    },
    {
      "inputs": [],
      "name": "pause",
      "outputs": [],
      "stateMutability": "nonpayable",
      "type": "function"
    },
    {
      "inputs": [],
      "name": "paused",
      "outputs": [
        {
          "internalType": "bool",
          "name": "",
          "type": "bool"
        }
      ],
      "stateMutability": "view",
      "type": "function",
      "constant": true
    },
    {
      "inputs": [
        {
          "internalType": "bytes32",
          "name": "role",
          "type": "bytes32"
        },
        {
          "internalType": "address",
          "name": "account",
          "type": "address"
        }
      ],
      "name": "renounceRole",
      "outputs": [],
      "stateMutability": "nonpayable",
      "type": "function"
    },
    {
      "inputs": [
        {
          "internalType": "bytes32",
          "name": "role",
          "type": "bytes32"
        },
        {
          "internalType": "address",
          "name": "account",
          "type": "address"
        }
      ],
      "name": "revokeRole",
      "outputs": [],
      "stateMutability": "nonpayable",
      "type": "function"
    },
    {
      "inputs": [
        {
          "internalType": "address",
          "name": "from",
          "type": "address"
        },
        {
          "internalType": "address",
          "name": "to",
          "type": "address"
        },
        {
          "internalType": "uint256[]",
          "name": "ids",
          "type": "uint256[]"
        },
        {
          "internalType": "uint256[]",
          "name": "amounts",
          "type": "uint256[]"
        },
        {
          "internalType": "bytes",
          "name": "data",
          "type": "bytes"
        }
      ],
      "name": "safeBatchTransferFrom",
      "outputs": [],
      "stateMutability": "nonpayable",
      "type": "function"
    },
    {
      "inputs": [
        {
          "internalType": "address",
          "name": "from",
          "type": "address"
        },
        {
          "internalType": "address",
          "name": "to",
          "type": "address"
        },
        {
          "internalType": "uint256",
          "name": "id",
          "type": "uint256"
        },
        {
          "internalType": "uint256",
          "name": "amount",
          "type": "uint256"
        },
        {
          "internalType": "bytes",
          "name": "data",
          "type": "bytes"
        }
      ],
      "name": "safeTransferFrom",
      "outputs": [],
      "stateMutability": "nonpayable",
      "type": "function"
    },
    {
      "inputs": [
        {
          "internalType": "address",
          "name": "operator",
          "type": "address"
        },
        {
          "internalType": "bool",
          "name": "approved",
          "type": "bool"
        }
      ],
      "name": "setApprovalForAll",
      "outputs": [],
      "stateMutability": "nonpayable",
      "type": "function"
    },
    {
      "inputs": [
        {
          "internalType": "bytes4",
          "name": "interfaceId",
          "type": "bytes4"
        }
      ],
      "name": "supportsInterface",
      "outputs": [
        {
          "internalType": "bool",
          "name": "",
          "type": "bool"
        }
      ],
      "stateMutability": "view",
      "type": "function",
      "constant": true
    },
    {
      "inputs": [],
      "name": "unpause",
      "outputs": [],
      "stateMutability": "nonpayable",
      "type": "function"
    },
    {
      "inputs": [
        {
          "internalType": "uint256",
          "name": "",
          "type": "uint256"
        }
      ],
      "name": "uri",
      "outputs": [
        {
          "internalType": "string",
          "name": "",
          "type": "string"
        }
      ],
      "stateMutability": "view",
      "type": "function",
      "constant": true
    },
    {
      "inputs": [
        {
          "internalType": "address",
          "name": "to",
          "type": "address"
        },
        {
          "internalType": "uint256",
          "name": "amount",
          "type": "uint256"
        },
        {
          "internalType": "string",
          "name": "data",
          "type": "string"
        }
      ],
      "name": "mintToken",
      "outputs": [
        {
          "internalType": "uint256",
          "name": "",
          "type": "uint256"
        }
      ],
      "stateMutability": "nonpayable",
      "type": "function"
    },
    {
      "inputs": [
        {
          "internalType": "address",
          "name": "from",
          "type": "address"
        }
      ],
      "name": "isMinter",
      "outputs": [
        {
          "internalType": "bool",
          "name": "",
          "type": "bool"
        }
      ],
      "stateMutability": "view",
      "type": "function",
      "constant": true
    },
    {
      "inputs": [
        {
          "internalType": "address",
          "name": "owner",
          "type": "address"
        }
      ],
      "name": "getTokens",
      "outputs": [
        {
          "components": [
            {
              "internalType": "uint256",
              "name": "id",
              "type": "uint256"
            },
            {
              "internalType": "address",
              "name": "owner",
              "type": "address"
            },
            {
              "internalType": "string",
              "name": "dataKey",
              "type": "string"
            }
          ],
          "internalType": "struct Anoying.Token[]",
          "name": "",
          "type": "tuple[]"
        }
      ],
      "stateMutability": "view",
      "type": "function",
      "constant": true
    },
    {
      "inputs": [
        {
          "internalType": "uint256",
          "name": "tokenId",
          "type": "uint256"
        }
      ],
      "name": "burnToken",
      "outputs": [
        {
          "internalType": "uint256",
          "name": "",
          "type": "uint256"
        }
      ],
      "stateMutability": "nonpayable",
      "type": "function"
    }
  ],
  "bytecode": "0x608060405260006006553480156200001657600080fd5b506040518060400160405280602081526020017f687474703a2f2f6c6f63616c686f73743a333030333f746f6b656e3d7b69647d815250806200005f816200016960201b60201c565b506000600560006101000a81548160ff0219169083151502179055506200009f6000801b620000936200018560201b60201c565b6200018d60201b60201c565b620000e07f9f2df0fed2c77648de5860a4cc508cd0818c85b8b8a1ab4ceeef8d981c8956a6620000d46200018560201b60201c565b6200018d60201b60201c565b620001217f65d7a28e3265b37a6474929f336521b332c1681b933f6cb9f3376673440d862a620001156200018560201b60201c565b6200018d60201b60201c565b5033600560016101000a81548173ffffffffffffffffffffffffffffffffffffffff021916908373ffffffffffffffffffffffffffffffffffffffff16021790555062000530565b8060049080519060200190620001819291906200041b565b5050565b600033905090565b6200019f8282620001a360201b60201c565b5050565b620001ba8282620001eb60201b6200144d1760201c565b620001e68160016000858152602001908152602001600020620002dc60201b6200152d1790919060201c565b505050565b620001fd82826200031460201b60201c565b620002d857600160008084815260200190815260200160002060000160008373ffffffffffffffffffffffffffffffffffffffff1673ffffffffffffffffffffffffffffffffffffffff16815260200190815260200160002060006101000a81548160ff0219169083151502179055506200027d6200018560201b60201c565b73ffffffffffffffffffffffffffffffffffffffff168173ffffffffffffffffffffffffffffffffffffffff16837f2f8788117e7eff1d82e926ec794901d17c78024a50270940304540a733656f0d60405160405180910390a45b5050565b60006200030c836000018373ffffffffffffffffffffffffffffffffffffffff1660001b6200037e60201b60201c565b905092915050565b600080600084815260200190815260200160002060000160008373ffffffffffffffffffffffffffffffffffffffff1673ffffffffffffffffffffffffffffffffffffffff16815260200190815260200160002060009054906101000a900460ff16905092915050565b6000620003928383620003f860201b60201c565b620003ed578260000182908060018154018082558091505060019003906000526020600020016000909190919091505582600001805490508360010160008481526020019081526020016000208190555060019050620003f2565b600090505b92915050565b600080836001016000848152602001908152602001600020541415905092915050565b8280546200042990620004fa565b90600052602060002090601f0160209004810192826200044d576000855562000499565b82601f106200046857805160ff191683800117855562000499565b8280016001018555821562000499579182015b82811115620004985782518255916020019190600101906200047b565b5b509050620004a89190620004ac565b5090565b5b80821115620004c7576000816000905550600101620004ad565b5090565b7f4e487b7100000000000000000000000000000000000000000000000000000000600052602260045260246000fd5b600060028204905060018216806200051357607f821691505b602082108114156200052a5762000529620004cb565b5b50919050565b61555180620005406000396000f3fe608060405234801561001057600080fd5b50600436106101d95760003560e01c80638456cb5911610104578063ca15c873116100a2578063e985e9c511610071578063e985e9c51461058c578063f242432a146105bc578063f5298aca146105d8578063f76e8ba9146105f4576101d9565b8063ca15c87314610504578063d539139314610534578063d547741f14610552578063e63ab1e91461056e576101d9565b8063a0f45b69116100de578063a0f45b6914610468578063a217fddf1461049a578063a22cb465146104b8578063aa271e1a146104d4576101d9565b80638456cb59146103fe5780639010d07c1461040857806391d1485414610438576101d9565b806336568abe1161017c5780635c975abb1161014b5780635c975abb146103785780636b20c45414610396578063731133e9146103b25780637b47ec1a146103ce576101d9565b806336568abe146102f25780633f4ba83a1461030e578063450efe21146103185780634e1273f414610348576101d9565b80631f7fdffa116101b85780631f7fdffa1461026e578063248a9ca31461028a5780632eb2c2d6146102ba5780632f2ff15d146102d6576101d9565b8062fdd58e146101de57806301ffc9a71461020e5780630e89341c1461023e575b600080fd5b6101f860048036038101906101f39190613530565b610624565b604051610205919061357f565b60405180910390f35b610228600480360381019061022391906135f2565b6106ee565b604051610235919061363a565b60405180910390f35b61025860048036038101906102539190613655565b610700565b604051610265919061371b565b60405180910390f35b6102886004803603810190610283919061393a565b610794565b005b6102a4600480360381019061029f9190613a2b565b610816565b6040516102b19190613a67565b60405180910390f35b6102d460048036038101906102cf9190613a82565b610835565b005b6102f060048036038101906102eb9190613b51565b6108d6565b005b61030c60048036038101906103079190613b51565b6108ff565b005b610316610982565b005b610332600480360381019061032d9190613b91565b6109fc565b60405161033f9190613d38565b60405180910390f35b610362600480360381019061035d9190613e1d565b610b06565b60405161036f9190613f44565b60405180910390f35b610380610c1f565b60405161038d919061363a565b60405180910390f35b6103b060048036038101906103ab9190613f66565b610c36565b005b6103cc60048036038101906103c79190613ff1565b610cd3565b005b6103e860048036038101906103e39190613655565b610d55565b6040516103f5919061357f565b60405180910390f35b610406610e3f565b005b610422600480360381019061041d9190614074565b610eb9565b60405161042f91906140c3565b60405180910390f35b610452600480360381019061044d9190613b51565b610ee8565b60405161045f919061363a565b60405180910390f35b610482600480360381019061047d9190613655565b610f52565b604051610491939291906140de565b60405180910390f35b6104a2611024565b6040516104af9190613a67565b60405180910390f35b6104d260048036038101906104cd9190614148565b61102b565b005b6104ee60048036038101906104e99190613b91565b611041565b6040516104fb919061363a565b60405180910390f35b61051e60048036038101906105199190613a2b565b61109b565b60405161052b919061357f565b60405180910390f35b61053c6110bf565b6040516105499190613a67565b60405180910390f35b61056c60048036038101906105679190613b51565b6110e3565b005b61057661110c565b6040516105839190613a67565b60405180910390f35b6105a660048036038101906105a19190614188565b611130565b6040516105b3919061363a565b60405180910390f35b6105d660048036038101906105d191906141c8565b6111c4565b005b6105f260048036038101906105ed919061425f565b611265565b005b61060e60048036038101906106099190614353565b611302565b60405161061b919061357f565b60405180910390f35b60008073ffffffffffffffffffffffffffffffffffffffff168373ffffffffffffffffffffffffffffffffffffffff161415610695576040517f08c379a000000000000000000000000000000000000000000000000000000000815260040161068c90614434565b60405180910390fd5b6002600083815260200190815260200160002060008473ffffffffffffffffffffffffffffffffffffffff1673ffffffffffffffffffffffffffffffffffffffff16815260200190815260200160002054905092915050565b60006106f98261155d565b9050919050565b60606004805461070f90614483565b80601f016020809104026020016040519081016040528092919081815260200182805461073b90614483565b80156107885780601f1061075d57610100808354040283529160200191610788565b820191906000526020600020905b81548152906001019060200180831161076b57829003601f168201915b50505050509050919050565b6107c57f9f2df0fed2c77648de5860a4cc508cd0818c85b8b8a1ab4ceeef8d981c8956a66107c061163f565b610ee8565b610804576040517f08c379a00000000000000000000000000000000000000000000000000000000081526004016107fb90614527565b60405180910390fd5b61081084848484611647565b50505050565b6000806000838152602001908152602001600020600101549050919050565b61083d61163f565b73ffffffffffffffffffffffffffffffffffffffff168573ffffffffffffffffffffffffffffffffffffffff16148061088357506108828561087d61163f565b611130565b5b6108c2576040517f08c379a00000000000000000000000000000000000000000000000000000000081526004016108b9906145b9565b60405180910390fd5b6108cf8585858585611866565b5050505050565b6108df82610816565b6108f0816108eb61163f565b611b7d565b6108fa8383611c1a565b505050565b61090761163f565b73ffffffffffffffffffffffffffffffffffffffff168173ffffffffffffffffffffffffffffffffffffffff1614610974576040517f08c379a000000000000000000000000000000000000000000000000000000000815260040161096b9061464b565b60405180910390fd5b61097e8282611c4e565b5050565b6109b37f65d7a28e3265b37a6474929f336521b332c1681b933f6cb9f3376673440d862a6109ae61163f565b610ee8565b6109f2576040517f08c379a00000000000000000000000000000000000000000000000000000000081526004016109e9906146dd565b60405180910390fd5b6109fa611c82565b565b6060600080600190505b6006548111610aa3578373ffffffffffffffffffffffffffffffffffffffff166007600083815260200190815260200160002060010160009054906101000a900473ffffffffffffffffffffffffffffffffffffffff1673ffffffffffffffffffffffffffffffffffffffff161415610a9057610a8d600183611d2490919063ffffffff16565b91505b8080610a9b9061472c565b915050610a06565b5060008167ffffffffffffffff811115610ac057610abf613742565b5b604051908082528060200260200182016040528015610af957816020015b610ae66133ae565b815260200190600190039081610ade5790505b5090508092505050919050565b60608151835114610b4c576040517f08c379a0000000000000000000000000000000000000000000000000000000008152600401610b43906147e7565b60405180910390fd5b6000835167ffffffffffffffff811115610b6957610b68613742565b5b604051908082528060200260200182016040528015610b975781602001602082028036833780820191505090505b50905060005b8451811015610c1457610be4858281518110610bbc57610bbb614807565b5b6020026020010151858381518110610bd757610bd6614807565b5b6020026020010151610624565b828281518110610bf757610bf6614807565b5b60200260200101818152505080610c0d9061472c565b9050610b9d565b508091505092915050565b6000600560009054906101000a900460ff16905090565b610c3e61163f565b73ffffffffffffffffffffffffffffffffffffffff168373ffffffffffffffffffffffffffffffffffffffff161480610c845750610c8383610c7e61163f565b611130565b5b610cc3576040517f08c379a0000000000000000000000000000000000000000000000000000000008152600401610cba906148a8565b60405180910390fd5b610cce838383611d3a565b505050565b610d047f9f2df0fed2c77648de5860a4cc508cd0818c85b8b8a1ab4ceeef8d981c8956a6610cff61163f565b610ee8565b610d43576040517f08c379a0000000000000000000000000000000000000000000000000000000008152600401610d3a90614527565b60405180910390fd5b610d4f84848484611fed565b50505050565b6000806007600084815260200190815260200160002060010160009054906101000a900473ffffffffffffffffffffffffffffffffffffffff1690508073ffffffffffffffffffffffffffffffffffffffff163373ffffffffffffffffffffffffffffffffffffffff161480610e185750600560019054906101000a900473ffffffffffffffffffffffffffffffffffffffff1673ffffffffffffffffffffffffffffffffffffffff163373ffffffffffffffffffffffffffffffffffffffff16145b610e2157600080fd5b610e2d81846001611265565b610e378184610624565b915050919050565b610e707f65d7a28e3265b37a6474929f336521b332c1681b933f6cb9f3376673440d862a610e6b61163f565b610ee8565b610eaf576040517f08c379a0000000000000000000000000000000000000000000000000000000008152600401610ea69061493a565b60405180910390fd5b610eb7612184565b565b6000610ee0826001600086815260200190815260200160002061222790919063ffffffff16565b905092915050565b600080600084815260200190815260200160002060000160008373ffffffffffffffffffffffffffffffffffffffff1673ffffffffffffffffffffffffffffffffffffffff16815260200190815260200160002060009054906101000a900460ff16905092915050565b60076020528060005260406000206000915090508060000154908060010160009054906101000a900473ffffffffffffffffffffffffffffffffffffffff1690806002018054610fa190614483565b80601f0160208091040260200160405190810160405280929190818152602001828054610fcd90614483565b801561101a5780601f10610fef5761010080835404028352916020019161101a565b820191906000526020600020905b815481529060010190602001808311610ffd57829003601f168201915b5050505050905083565b6000801b81565b61103d61103661163f565b8383612241565b5050565b60008173ffffffffffffffffffffffffffffffffffffffff16600560019054906101000a900473ffffffffffffffffffffffffffffffffffffffff1673ffffffffffffffffffffffffffffffffffffffff16149050919050565b60006110b8600160008481526020019081526020016000206123ae565b9050919050565b7f9f2df0fed2c77648de5860a4cc508cd0818c85b8b8a1ab4ceeef8d981c8956a681565b6110ec82610816565b6110fd816110f861163f565b611b7d565b6111078383611c4e565b505050565b7f65d7a28e3265b37a6474929f336521b332c1681b933f6cb9f3376673440d862a81565b6000600360008473ffffffffffffffffffffffffffffffffffffffff1673ffffffffffffffffffffffffffffffffffffffff16815260200190815260200160002060008373ffffffffffffffffffffffffffffffffffffffff1673ffffffffffffffffffffffffffffffffffffffff16815260200190815260200160002060009054906101000a900460ff16905092915050565b6111cc61163f565b73ffffffffffffffffffffffffffffffffffffffff168573ffffffffffffffffffffffffffffffffffffffff16148061121257506112118561120c61163f565b611130565b5b611251576040517f08c379a0000000000000000000000000000000000000000000000000000000008152600401611248906148a8565b60405180910390fd5b61125e85858585856123c3565b5050505050565b61126d61163f565b73ffffffffffffffffffffffffffffffffffffffff168373ffffffffffffffffffffffffffffffffffffffff1614806112b357506112b2836112ad61163f565b611130565b5b6112f2576040517f08c379a00000000000000000000000000000000000000000000000000000000081526004016112e9906148a8565b60405180910390fd5b6112fd838383612648565b505050565b60003373ffffffffffffffffffffffffffffffffffffffff16600560019054906101000a900473ffffffffffffffffffffffffffffffffffffffff1673ffffffffffffffffffffffffffffffffffffffff161461135e57600080fd5b6113746001600654611d2490919063ffffffff16565b600681905550611388846006548585610cd3565b604051806060016040528060065481526020018573ffffffffffffffffffffffffffffffffffffffff168152602001838152506007600060065481526020019081526020016000206000820151816000015560208201518160010160006101000a81548173ffffffffffffffffffffffffffffffffffffffff021916908373ffffffffffffffffffffffffffffffffffffffff160217905550604082015181600201908051906020019061143d9291906133e5565b5090505060065490509392505050565b6114578282610ee8565b61152957600160008084815260200190815260200160002060000160008373ffffffffffffffffffffffffffffffffffffffff1673ffffffffffffffffffffffffffffffffffffffff16815260200190815260200160002060006101000a81548160ff0219169083151502179055506114ce61163f565b73ffffffffffffffffffffffffffffffffffffffff168173ffffffffffffffffffffffffffffffffffffffff16837f2f8788117e7eff1d82e926ec794901d17c78024a50270940304540a733656f0d60405160405180910390a45b5050565b6000611555836000018373ffffffffffffffffffffffffffffffffffffffff1660001b612867565b905092915050565b60007fd9b67a26000000000000000000000000000000000000000000000000000000007bffffffffffffffffffffffffffffffffffffffffffffffffffffffff1916827bffffffffffffffffffffffffffffffffffffffffffffffffffffffff1916148061162857507f0e89341c000000000000000000000000000000000000000000000000000000007bffffffffffffffffffffffffffffffffffffffffffffffffffffffff1916827bffffffffffffffffffffffffffffffffffffffffffffffffffffffff1916145b806116385750611637826128d7565b5b9050919050565b600033905090565b600073ffffffffffffffffffffffffffffffffffffffff168473ffffffffffffffffffffffffffffffffffffffff1614156116b7576040517f08c379a00000000000000000000000000000000000000000000000000000000081526004016116ae906149cc565b60405180910390fd5b81518351146116fb576040517f08c379a00000000000000000000000000000000000000000000000000000000081526004016116f290614a5e565b60405180910390fd5b600061170561163f565b905061171681600087878787612951565b60005b84518110156117d05783818151811061173557611734614807565b5b60200260200101516002600087848151811061175457611753614807565b5b6020026020010151815260200190815260200160002060008873ffffffffffffffffffffffffffffffffffffffff1673ffffffffffffffffffffffffffffffffffffffff16815260200190815260200160002060008282546117b69190614a7e565b9250508190555080806117c89061472c565b915050611719565b508473ffffffffffffffffffffffffffffffffffffffff16600073ffffffffffffffffffffffffffffffffffffffff168273ffffffffffffffffffffffffffffffffffffffff167f4a39dc06d4c0dbc64b70af90fd698a233a518aa5d07e595d983b8c0526c8f7fb8787604051611848929190614ad4565b60405180910390a461185f81600087878787612967565b5050505050565b81518351146118aa576040517f08c379a00000000000000000000000000000000000000000000000000000000081526004016118a190614a5e565b60405180910390fd5b600073ffffffffffffffffffffffffffffffffffffffff168473ffffffffffffffffffffffffffffffffffffffff16141561191a576040517f08c379a000000000000000000000000000000000000000000000000000000000815260040161191190614b7d565b60405180910390fd5b600061192461163f565b9050611934818787878787612951565b60005b8451811015611ae857600085828151811061195557611954614807565b5b60200260200101519050600085838151811061197457611973614807565b5b6020026020010151905060006002600084815260200190815260200160002060008b73ffffffffffffffffffffffffffffffffffffffff1673ffffffffffffffffffffffffffffffffffffffff16815260200190815260200160002054905081811015611a16576040517f08c379a0000000000000000000000000000000000000000000000000000000008152600401611a0d90614c0f565b60405180910390fd5b8181036002600085815260200190815260200160002060008c73ffffffffffffffffffffffffffffffffffffffff1673ffffffffffffffffffffffffffffffffffffffff16815260200190815260200160002081905550816002600085815260200190815260200160002060008b73ffffffffffffffffffffffffffffffffffffffff1673ffffffffffffffffffffffffffffffffffffffff1681526020019081526020016000206000828254611acd9190614a7e565b9250508190555050505080611ae19061472c565b9050611937565b508473ffffffffffffffffffffffffffffffffffffffff168673ffffffffffffffffffffffffffffffffffffffff168273ffffffffffffffffffffffffffffffffffffffff167f4a39dc06d4c0dbc64b70af90fd698a233a518aa5d07e595d983b8c0526c8f7fb8787604051611b5f929190614ad4565b60405180910390a4611b75818787878787612967565b505050505050565b611b878282610ee8565b611c1657611bac8173ffffffffffffffffffffffffffffffffffffffff166014612b3f565b611bba8360001c6020612b3f565b604051602001611bcb929190614d03565b6040516020818303038152906040526040517f08c379a0000000000000000000000000000000000000000000000000000000008152600401611c0d919061371b565b60405180910390fd5b5050565b611c24828261144d565b611c49816001600085815260200190815260200160002061152d90919063ffffffff16565b505050565b611c588282612d7b565b611c7d8160016000858152602001908152602001600020612e5c90919063ffffffff16565b505050565b611c8a610c1f565b611cc9576040517f08c379a0000000000000000000000000000000000000000000000000000000008152600401611cc090614d89565b60405180910390fd5b6000600560006101000a81548160ff0219169083151502179055507f5db9ee0a495bf2e6ff9c91a7834c1ba4fdd244a5e8aa4e537bd38aeae4b073aa611d0d61163f565b604051611d1a91906140c3565b60405180910390a1565b60008183611d329190614a7e565b905092915050565b600073ffffffffffffffffffffffffffffffffffffffff168373ffffffffffffffffffffffffffffffffffffffff161415611daa576040517f08c379a0000000000000000000000000000000000000000000000000000000008152600401611da190614e1b565b60405180910390fd5b8051825114611dee576040517f08c379a0000000000000000000000000000000000000000000000000000000008152600401611de590614a5e565b60405180910390fd5b6000611df861163f565b9050611e1881856000868660405180602001604052806000815250612951565b60005b8351811015611f67576000848281518110611e3957611e38614807565b5b602002602001015190506000848381518110611e5857611e57614807565b5b6020026020010151905060006002600084815260200190815260200160002060008973ffffffffffffffffffffffffffffffffffffffff1673ffffffffffffffffffffffffffffffffffffffff16815260200190815260200160002054905081811015611efa576040517f08c379a0000000000000000000000000000000000000000000000000000000008152600401611ef190614ead565b60405180910390fd5b8181036002600085815260200190815260200160002060008a73ffffffffffffffffffffffffffffffffffffffff1673ffffffffffffffffffffffffffffffffffffffff168152602001908152602001600020819055505050508080611f5f9061472c565b915050611e1b565b50600073ffffffffffffffffffffffffffffffffffffffff168473ffffffffffffffffffffffffffffffffffffffff168273ffffffffffffffffffffffffffffffffffffffff167f4a39dc06d4c0dbc64b70af90fd698a233a518aa5d07e595d983b8c0526c8f7fb8686604051611fdf929190614ad4565b60405180910390a450505050565b600073ffffffffffffffffffffffffffffffffffffffff168473ffffffffffffffffffffffffffffffffffffffff16141561205d576040517f08c379a0000000000000000000000000000000000000000000000000000000008152600401612054906149cc565b60405180910390fd5b600061206761163f565b90506120888160008761207988612e8c565b61208288612e8c565b87612951565b826002600086815260200190815260200160002060008773ffffffffffffffffffffffffffffffffffffffff1673ffffffffffffffffffffffffffffffffffffffff16815260200190815260200160002060008282546120e89190614a7e565b925050819055508473ffffffffffffffffffffffffffffffffffffffff16600073ffffffffffffffffffffffffffffffffffffffff168273ffffffffffffffffffffffffffffffffffffffff167fc3d58168c5ae7397731d063d5bbf3d657854427343f4c083240f7aacaa2d0f628787604051612166929190614ecd565b60405180910390a461217d81600087878787612f06565b5050505050565b61218c610c1f565b156121cc576040517f08c379a00000000000000000000000000000000000000000000000000000000081526004016121c390614f42565b60405180910390fd5b6001600560006101000a81548160ff0219169083151502179055507f62e78cea01bee320cd4e420270b5ea74000d11b0c9f74754ebdbfc544b05a25861221061163f565b60405161221d91906140c3565b60405180910390a1565b600061223683600001836130de565b60001c905092915050565b8173ffffffffffffffffffffffffffffffffffffffff168373ffffffffffffffffffffffffffffffffffffffff1614156122b0576040517f08c379a00000000000000000000000000000000000000000000000000000000081526004016122a790614fd4565b60405180910390fd5b80600360008573ffffffffffffffffffffffffffffffffffffffff1673ffffffffffffffffffffffffffffffffffffffff16815260200190815260200160002060008473ffffffffffffffffffffffffffffffffffffffff1673ffffffffffffffffffffffffffffffffffffffff16815260200190815260200160002060006101000a81548160ff0219169083151502179055508173ffffffffffffffffffffffffffffffffffffffff168373ffffffffffffffffffffffffffffffffffffffff167f17307eab39ab6107e8899845ad3d59bd9653f200f220920489ca2b5937696c31836040516123a1919061363a565b60405180910390a3505050565b60006123bc82600001613109565b9050919050565b600073ffffffffffffffffffffffffffffffffffffffff168473ffffffffffffffffffffffffffffffffffffffff161415612433576040517f08c379a000000000000000000000000000000000000000000000000000000000815260040161242a90614b7d565b60405180910390fd5b600061243d61163f565b905061245d81878761244e88612e8c565b61245788612e8c565b87612951565b60006002600086815260200190815260200160002060008873ffffffffffffffffffffffffffffffffffffffff1673ffffffffffffffffffffffffffffffffffffffff168152602001908152602001600020549050838110156124f5576040517f08c379a00000000000000000000000000000000000000000000000000000000081526004016124ec90614c0f565b60405180910390fd5b8381036002600087815260200190815260200160002060008973ffffffffffffffffffffffffffffffffffffffff1673ffffffffffffffffffffffffffffffffffffffff16815260200190815260200160002081905550836002600087815260200190815260200160002060008873ffffffffffffffffffffffffffffffffffffffff1673ffffffffffffffffffffffffffffffffffffffff16815260200190815260200160002060008282546125ac9190614a7e565b925050819055508573ffffffffffffffffffffffffffffffffffffffff168773ffffffffffffffffffffffffffffffffffffffff168373ffffffffffffffffffffffffffffffffffffffff167fc3d58168c5ae7397731d063d5bbf3d657854427343f4c083240f7aacaa2d0f628888604051612629929190614ecd565b60405180910390a461263f828888888888612f06565b50505050505050565b600073ffffffffffffffffffffffffffffffffffffffff168373ffffffffffffffffffffffffffffffffffffffff1614156126b8576040517f08c379a00000000000000000000000000000000000000000000000000000000081526004016126af90614e1b565b60405180910390fd5b60006126c261163f565b90506126f2818560006126d487612e8c565b6126dd87612e8c565b60405180602001604052806000815250612951565b60006002600085815260200190815260200160002060008673ffffffffffffffffffffffffffffffffffffffff1673ffffffffffffffffffffffffffffffffffffffff1681526020019081526020016000205490508281101561278a576040517f08c379a000000000000000000000000000000000000000000000000000000000815260040161278190614ead565b60405180910390fd5b8281036002600086815260200190815260200160002060008773ffffffffffffffffffffffffffffffffffffffff1673ffffffffffffffffffffffffffffffffffffffff16815260200190815260200160002081905550600073ffffffffffffffffffffffffffffffffffffffff168573ffffffffffffffffffffffffffffffffffffffff168373ffffffffffffffffffffffffffffffffffffffff167fc3d58168c5ae7397731d063d5bbf3d657854427343f4c083240f7aacaa2d0f628787604051612858929190614ecd565b60405180910390a45050505050565b6000612873838361311a565b6128cc5782600001829080600181540180825580915050600190039060005260206000200160009091909190915055826000018054905083600101600084815260200190815260200160002081905550600190506128d1565b600090505b92915050565b60007f5a05180f000000000000000000000000000000000000000000000000000000007bffffffffffffffffffffffffffffffffffffffffffffffffffffffff1916827bffffffffffffffffffffffffffffffffffffffffffffffffffffffff1916148061294a57506129498261313d565b5b9050919050565b61295f8686868686866131b7565b505050505050565b6129868473ffffffffffffffffffffffffffffffffffffffff16613215565b15612b37578373ffffffffffffffffffffffffffffffffffffffff1663bc197c8187878686866040518663ffffffff1660e01b81526004016129cc959493929190615049565b6020604051808303816000875af1925050508015612a0857506040513d601f19601f82011682018060405250810190612a0591906150c6565b60015b612aae57612a14615100565b806308c379a01415612a715750612a29615122565b80612a345750612a73565b806040517f08c379a0000000000000000000000000000000000000000000000000000000008152600401612a68919061371b565b60405180910390fd5b505b6040517f08c379a0000000000000000000000000000000000000000000000000000000008152600401612aa59061522a565b60405180910390fd5b63bc197c8160e01b7bffffffffffffffffffffffffffffffffffffffffffffffffffffffff1916817bffffffffffffffffffffffffffffffffffffffffffffffffffffffff191614612b35576040517f08c379a0000000000000000000000000000000000000000000000000000000008152600401612b2c906152bc565b60405180910390fd5b505b505050505050565b606060006002836002612b5291906152dc565b612b5c9190614a7e565b67ffffffffffffffff811115612b7557612b74613742565b5b6040519080825280601f01601f191660200182016040528015612ba75781602001600182028036833780820191505090505b5090507f300000000000000000000000000000000000000000000000000000000000000081600081518110612bdf57612bde614807565b5b60200101907effffffffffffffffffffffffffffffffffffffffffffffffffffffffffffff1916908160001a9053507f780000000000000000000000000000000000000000000000000000000000000081600181518110612c4357612c42614807565b5b60200101907effffffffffffffffffffffffffffffffffffffffffffffffffffffffffffff1916908160001a90535060006001846002612c8391906152dc565b612c8d9190614a7e565b90505b6001811115612d2d577f3031323334353637383961626364656600000000000000000000000000000000600f861660108110612ccf57612cce614807565b5b1a60f81b828281518110612ce657612ce5614807565b5b60200101907effffffffffffffffffffffffffffffffffffffffffffffffffffffffffffff1916908160001a905350600485901c945080612d2690615336565b9050612c90565b5060008414612d71576040517f08c379a0000000000000000000000000000000000000000000000000000000008152600401612d68906153ac565b60405180910390fd5b8091505092915050565b612d858282610ee8565b15612e5857600080600084815260200190815260200160002060000160008373ffffffffffffffffffffffffffffffffffffffff1673ffffffffffffffffffffffffffffffffffffffff16815260200190815260200160002060006101000a81548160ff021916908315150217905550612dfd61163f565b73ffffffffffffffffffffffffffffffffffffffff168173ffffffffffffffffffffffffffffffffffffffff16837ff6391f5c32d9c69d2a47ea670b442974b53935d1edc7fd64eb21e047a839171b60405160405180910390a45b5050565b6000612e84836000018373ffffffffffffffffffffffffffffffffffffffff1660001b613228565b905092915050565b60606000600167ffffffffffffffff811115612eab57612eaa613742565b5b604051908082528060200260200182016040528015612ed95781602001602082028036833780820191505090505b5090508281600081518110612ef157612ef0614807565b5b60200260200101818152505080915050919050565b612f258473ffffffffffffffffffffffffffffffffffffffff16613215565b156130d6578373ffffffffffffffffffffffffffffffffffffffff1663f23a6e6187878686866040518663ffffffff1660e01b8152600401612f6b9594939291906153cc565b6020604051808303816000875af1925050508015612fa757506040513d601f19601f82011682018060405250810190612fa491906150c6565b60015b61304d57612fb3615100565b806308c379a014156130105750612fc8615122565b80612fd35750613012565b806040517f08c379a0000000000000000000000000000000000000000000000000000000008152600401613007919061371b565b60405180910390fd5b505b6040517f08c379a00000000000000000000000000000000000000000000000000000000081526004016130449061522a565b60405180910390fd5b63f23a6e6160e01b7bffffffffffffffffffffffffffffffffffffffffffffffffffffffff1916817bffffffffffffffffffffffffffffffffffffffffffffffffffffffff1916146130d4576040517f08c379a00000000000000000000000000000000000000000000000000000000081526004016130cb906152bc565b60405180910390fd5b505b505050505050565b60008260000182815481106130f6576130f5614807565b5b9060005260206000200154905092915050565b600081600001805490509050919050565b600080836001016000848152602001908152602001600020541415905092915050565b60007f7965db0b000000000000000000000000000000000000000000000000000000007bffffffffffffffffffffffffffffffffffffffffffffffffffffffff1916827bffffffffffffffffffffffffffffffffffffffffffffffffffffffff191614806131b057506131af8261333c565b5b9050919050565b6131c58686868686866133a6565b6131cd610c1f565b1561320d576040517f08c379a000000000000000000000000000000000000000000000000000000000815260040161320490615498565b60405180910390fd5b505050505050565b600080823b905060008111915050919050565b6000808360010160008481526020019081526020016000205490506000811461333057600060018261325a91906154b8565b905060006001866000018054905061327291906154b8565b90508181146132e157600086600001828154811061329357613292614807565b5b90600052602060002001549050808760000184815481106132b7576132b6614807565b5b90600052602060002001819055508387600101600083815260200190815260200160002081905550505b856000018054806132f5576132f46154ec565b5b600190038181906000526020600020016000905590558560010160008681526020019081526020016000206000905560019350505050613336565b60009150505b92915050565b60007f01ffc9a7000000000000000000000000000000000000000000000000000000007bffffffffffffffffffffffffffffffffffffffffffffffffffffffff1916827bffffffffffffffffffffffffffffffffffffffffffffffffffffffff1916149050919050565b505050505050565b604051806060016040528060008152602001600073ffffffffffffffffffffffffffffffffffffffff168152602001606081525090565b8280546133f190614483565b90600052602060002090601f016020900481019282613413576000855561345a565b82601f1061342c57805160ff191683800117855561345a565b8280016001018555821561345a579182015b8281111561345957825182559160200191906001019061343e565b5b509050613467919061346b565b5090565b5b8082111561348457600081600090555060010161346c565b5090565b6000604051905090565b600080fd5b600080fd5b600073ffffffffffffffffffffffffffffffffffffffff82169050919050565b60006134c78261349c565b9050919050565b6134d7816134bc565b81146134e257600080fd5b50565b6000813590506134f4816134ce565b92915050565b6000819050919050565b61350d816134fa565b811461351857600080fd5b50565b60008135905061352a81613504565b92915050565b6000806040838503121561354757613546613492565b5b6000613555858286016134e5565b92505060206135668582860161351b565b9150509250929050565b613579816134fa565b82525050565b60006020820190506135946000830184613570565b92915050565b60007fffffffff0000000000000000000000000000000000000000000000000000000082169050919050565b6135cf8161359a565b81146135da57600080fd5b50565b6000813590506135ec816135c6565b92915050565b60006020828403121561360857613607613492565b5b6000613616848285016135dd565b91505092915050565b60008115159050919050565b6136348161361f565b82525050565b600060208201905061364f600083018461362b565b92915050565b60006020828403121561366b5761366a613492565b5b60006136798482850161351b565b91505092915050565b600081519050919050565b600082825260208201905092915050565b60005b838110156136bc5780820151818401526020810190506136a1565b838111156136cb576000848401525b50505050565b6000601f19601f8301169050919050565b60006136ed82613682565b6136f7818561368d565b935061370781856020860161369e565b613710816136d1565b840191505092915050565b6000602082019050818103600083015261373581846136e2565b905092915050565b600080fd5b7f4e487b7100000000000000000000000000000000000000000000000000000000600052604160045260246000fd5b61377a826136d1565b810181811067ffffffffffffffff8211171561379957613798613742565b5b80604052505050565b60006137ac613488565b90506137b88282613771565b919050565b600067ffffffffffffffff8211156137d8576137d7613742565b5b602082029050602081019050919050565b600080fd5b60006138016137fc846137bd565b6137a2565b90508083825260208201905060208402830185811115613824576138236137e9565b5b835b8181101561384d5780613839888261351b565b845260208401935050602081019050613826565b5050509392505050565b600082601f83011261386c5761386b61373d565b5b813561387c8482602086016137ee565b91505092915050565b600080fd5b600067ffffffffffffffff8211156138a5576138a4613742565b5b6138ae826136d1565b9050602081019050919050565b82818337600083830152505050565b60006138dd6138d88461388a565b6137a2565b9050828152602081018484840111156138f9576138f8613885565b5b6139048482856138bb565b509392505050565b600082601f8301126139215761392061373d565b5b81356139318482602086016138ca565b91505092915050565b6000806000806080858703121561395457613953613492565b5b6000613962878288016134e5565b945050602085013567ffffffffffffffff81111561398357613982613497565b5b61398f87828801613857565b935050604085013567ffffffffffffffff8111156139b0576139af613497565b5b6139bc87828801613857565b925050606085013567ffffffffffffffff8111156139dd576139dc613497565b5b6139e98782880161390c565b91505092959194509250565b6000819050919050565b613a08816139f5565b8114613a1357600080fd5b50565b600081359050613a25816139ff565b92915050565b600060208284031215613a4157613a40613492565b5b6000613a4f84828501613a16565b91505092915050565b613a61816139f5565b82525050565b6000602082019050613a7c6000830184613a58565b92915050565b600080600080600060a08688031215613a9e57613a9d613492565b5b6000613aac888289016134e5565b9550506020613abd888289016134e5565b945050604086013567ffffffffffffffff811115613ade57613add613497565b5b613aea88828901613857565b935050606086013567ffffffffffffffff811115613b0b57613b0a613497565b5b613b1788828901613857565b925050608086013567ffffffffffffffff811115613b3857613b37613497565b5b613b448882890161390c565b9150509295509295909350565b60008060408385031215613b6857613b67613492565b5b6000613b7685828601613a16565b9250506020613b87858286016134e5565b9150509250929050565b600060208284031215613ba757613ba6613492565b5b6000613bb5848285016134e5565b91505092915050565b600081519050919050565b600082825260208201905092915050565b6000819050602082019050919050565b613bf3816134fa565b82525050565b613c02816134bc565b82525050565b600082825260208201905092915050565b6000613c2482613682565b613c2e8185613c08565b9350613c3e81856020860161369e565b613c47816136d1565b840191505092915050565b6000606083016000830151613c6a6000860182613bea565b506020830151613c7d6020860182613bf9565b5060408301518482036040860152613c958282613c19565b9150508091505092915050565b6000613cae8383613c52565b905092915050565b6000602082019050919050565b6000613cce82613bbe565b613cd88185613bc9565b935083602082028501613cea85613bda565b8060005b85811015613d265784840389528151613d078582613ca2565b9450613d1283613cb6565b925060208a01995050600181019050613cee565b50829750879550505050505092915050565b60006020820190508181036000830152613d528184613cc3565b905092915050565b600067ffffffffffffffff821115613d7557613d74613742565b5b602082029050602081019050919050565b6000613d99613d9484613d5a565b6137a2565b90508083825260208201905060208402830185811115613dbc57613dbb6137e9565b5b835b81811015613de55780613dd188826134e5565b845260208401935050602081019050613dbe565b5050509392505050565b600082601f830112613e0457613e0361373d565b5b8135613e14848260208601613d86565b91505092915050565b60008060408385031215613e3457613e33613492565b5b600083013567ffffffffffffffff811115613e5257613e51613497565b5b613e5e85828601613def565b925050602083013567ffffffffffffffff811115613e7f57613e7e613497565b5b613e8b85828601613857565b9150509250929050565b600081519050919050565b600082825260208201905092915050565b6000819050602082019050919050565b6000613ecd8383613bea565b60208301905092915050565b6000602082019050919050565b6000613ef182613e95565b613efb8185613ea0565b9350613f0683613eb1565b8060005b83811015613f37578151613f1e8882613ec1565b9750613f2983613ed9565b925050600181019050613f0a565b5085935050505092915050565b60006020820190508181036000830152613f5e8184613ee6565b905092915050565b600080600060608486031215613f7f57613f7e613492565b5b6000613f8d868287016134e5565b935050602084013567ffffffffffffffff811115613fae57613fad613497565b5b613fba86828701613857565b925050604084013567ffffffffffffffff811115613fdb57613fda613497565b5b613fe786828701613857565b9150509250925092565b6000806000806080858703121561400b5761400a613492565b5b6000614019878288016134e5565b945050602061402a8782880161351b565b935050604061403b8782880161351b565b925050606085013567ffffffffffffffff81111561405c5761405b613497565b5b6140688782880161390c565b91505092959194509250565b6000806040838503121561408b5761408a613492565b5b600061409985828601613a16565b92505060206140aa8582860161351b565b9150509250929050565b6140bd816134bc565b82525050565b60006020820190506140d860008301846140b4565b92915050565b60006060820190506140f36000830186613570565b61410060208301856140b4565b818103604083015261411281846136e2565b9050949350505050565b6141258161361f565b811461413057600080fd5b50565b6000813590506141428161411c565b92915050565b6000806040838503121561415f5761415e613492565b5b600061416d858286016134e5565b925050602061417e85828601614133565b9150509250929050565b6000806040838503121561419f5761419e613492565b5b60006141ad858286016134e5565b92505060206141be858286016134e5565b9150509250929050565b600080600080600060a086880312156141e4576141e3613492565b5b60006141f2888289016134e5565b9550506020614203888289016134e5565b94505060406142148882890161351b565b93505060606142258882890161351b565b925050608086013567ffffffffffffffff81111561424657614245613497565b5b6142528882890161390c565b9150509295509295909350565b60008060006060848603121561427857614277613492565b5b6000614286868287016134e5565b93505060206142978682870161351b565b92505060406142a88682870161351b565b9150509250925092565b600067ffffffffffffffff8211156142cd576142cc613742565b5b6142d6826136d1565b9050602081019050919050565b60006142f66142f1846142b2565b6137a2565b90508281526020810184848401111561431257614311613885565b5b61431d8482856138bb565b509392505050565b600082601f83011261433a5761433961373d565b5b813561434a8482602086016142e3565b91505092915050565b60008060006060848603121561436c5761436b613492565b5b600061437a868287016134e5565b935050602061438b8682870161351b565b925050604084013567ffffffffffffffff8111156143ac576143ab613497565b5b6143b886828701614325565b9150509250925092565b7f455243313135353a2062616c616e636520717565727920666f7220746865207a60008201527f65726f2061646472657373000000000000000000000000000000000000000000602082015250565b600061441e602b8361368d565b9150614429826143c2565b604082019050919050565b6000602082019050818103600083015261444d81614411565b9050919050565b7f4e487b7100000000000000000000000000000000000000000000000000000000600052602260045260246000fd5b6000600282049050600182168061449b57607f821691505b602082108114156144af576144ae614454565b5b50919050565b7f455243313135355072657365744d696e7465725061757365723a206d7573742060008201527f68617665206d696e74657220726f6c6520746f206d696e740000000000000000602082015250565b600061451160388361368d565b915061451c826144b5565b604082019050919050565b6000602082019050818103600083015261454081614504565b9050919050565b7f455243313135353a207472616e736665722063616c6c6572206973206e6f742060008201527f6f776e6572206e6f7220617070726f7665640000000000000000000000000000602082015250565b60006145a360328361368d565b91506145ae82614547565b604082019050919050565b600060208201905081810360008301526145d281614596565b9050919050565b7f416363657373436f6e74726f6c3a2063616e206f6e6c792072656e6f756e636560008201527f20726f6c657320666f722073656c660000000000000000000000000000000000602082015250565b6000614635602f8361368d565b9150614640826145d9565b604082019050919050565b6000602082019050818103600083015261466481614628565b9050919050565b7f455243313135355072657365744d696e7465725061757365723a206d7573742060008201527f686176652070617573657220726f6c6520746f20756e70617573650000000000602082015250565b60006146c7603b8361368d565b91506146d28261466b565b604082019050919050565b600060208201905081810360008301526146f6816146ba565b9050919050565b7f4e487b7100000000000000000000000000000000000000000000000000000000600052601160045260246000fd5b6000614737826134fa565b91507fffffffffffffffffffffffffffffffffffffffffffffffffffffffffffffffff82141561476a576147696146fd565b5b600182019050919050565b7f455243313135353a206163636f756e747320616e6420696473206c656e67746860008201527f206d69736d617463680000000000000000000000000000000000000000000000602082015250565b60006147d160298361368d565b91506147dc82614775565b604082019050919050565b60006020820190508181036000830152614800816147c4565b9050919050565b7f4e487b7100000000000000000000000000000000000000000000000000000000600052603260045260246000fd5b7f455243313135353a2063616c6c6572206973206e6f74206f776e6572206e6f7260008201527f20617070726f7665640000000000000000000000000000000000000000000000602082015250565b600061489260298361368d565b915061489d82614836565b604082019050919050565b600060208201905081810360008301526148c181614885565b9050919050565b7f455243313135355072657365744d696e7465725061757365723a206d7573742060008201527f686176652070617573657220726f6c6520746f20706175736500000000000000602082015250565b600061492460398361368d565b915061492f826148c8565b604082019050919050565b6000602082019050818103600083015261495381614917565b9050919050565b7f455243313135353a206d696e7420746f20746865207a65726f2061646472657360008201527f7300000000000000000000000000000000000000000000000000000000000000602082015250565b60006149b660218361368d565b91506149c18261495a565b604082019050919050565b600060208201905081810360008301526149e5816149a9565b9050919050565b7f455243313135353a2069647320616e6420616d6f756e7473206c656e6774682060008201527f6d69736d61746368000000000000000000000000000000000000000000000000602082015250565b6000614a4860288361368d565b9150614a53826149ec565b604082019050919050565b60006020820190508181036000830152614a7781614a3b565b9050919050565b6000614a89826134fa565b9150614a94836134fa565b9250827fffffffffffffffffffffffffffffffffffffffffffffffffffffffffffffffff03821115614ac957614ac86146fd565b5b828201905092915050565b60006040820190508181036000830152614aee8185613ee6565b90508181036020830152614b028184613ee6565b90509392505050565b7f455243313135353a207472616e7366657220746f20746865207a65726f20616460008201527f6472657373000000000000000000000000000000000000000000000000000000602082015250565b6000614b6760258361368d565b9150614b7282614b0b565b604082019050919050565b60006020820190508181036000830152614b9681614b5a565b9050919050565b7f455243313135353a20696e73756666696369656e742062616c616e636520666f60008201527f72207472616e7366657200000000000000000000000000000000000000000000602082015250565b6000614bf9602a8361368d565b9150614c0482614b9d565b604082019050919050565b60006020820190508181036000830152614c2881614bec565b9050919050565b600081905092915050565b7f416363657373436f6e74726f6c3a206163636f756e7420000000000000000000600082015250565b6000614c70601783614c2f565b9150614c7b82614c3a565b601782019050919050565b6000614c9182613682565b614c9b8185614c2f565b9350614cab81856020860161369e565b80840191505092915050565b7f206973206d697373696e6720726f6c6520000000000000000000000000000000600082015250565b6000614ced601183614c2f565b9150614cf882614cb7565b601182019050919050565b6000614d0e82614c63565b9150614d1a8285614c86565b9150614d2582614ce0565b9150614d318284614c86565b91508190509392505050565b7f5061757361626c653a206e6f7420706175736564000000000000000000000000600082015250565b6000614d7360148361368d565b9150614d7e82614d3d565b602082019050919050565b60006020820190508181036000830152614da281614d66565b9050919050565b7f455243313135353a206275726e2066726f6d20746865207a65726f206164647260008201527f6573730000000000000000000000000000000000000000000000000000000000602082015250565b6000614e0560238361368d565b9150614e1082614da9565b604082019050919050565b60006020820190508181036000830152614e3481614df8565b9050919050565b7f455243313135353a206275726e20616d6f756e7420657863656564732062616c60008201527f616e636500000000000000000000000000000000000000000000000000000000602082015250565b6000614e9760248361368d565b9150614ea282614e3b565b604082019050919050565b60006020820190508181036000830152614ec681614e8a565b9050919050565b6000604082019050614ee26000830185613570565b614eef6020830184613570565b9392505050565b7f5061757361626c653a2070617573656400000000000000000000000000000000600082015250565b6000614f2c60108361368d565b9150614f3782614ef6565b602082019050919050565b60006020820190508181036000830152614f5b81614f1f565b9050919050565b7f455243313135353a2073657474696e6720617070726f76616c2073746174757360008201527f20666f722073656c660000000000000000000000000000000000000000000000602082015250565b6000614fbe60298361368d565b9150614fc982614f62565b604082019050919050565b60006020820190508181036000830152614fed81614fb1565b9050919050565b600081519050919050565b600082825260208201905092915050565b600061501b82614ff4565b6150258185614fff565b935061503581856020860161369e565b61503e816136d1565b840191505092915050565b600060a08201905061505e60008301886140b4565b61506b60208301876140b4565b818103604083015261507d8186613ee6565b905081810360608301526150918185613ee6565b905081810360808301526150a58184615010565b90509695505050505050565b6000815190506150c0816135c6565b92915050565b6000602082840312156150dc576150db613492565b5b60006150ea848285016150b1565b91505092915050565b60008160e01c9050919050565b600060033d111561511f5760046000803e61511c6000516150f3565b90505b90565b600060443d1015615132576151b5565b61513a613488565b60043d036004823e80513d602482011167ffffffffffffffff821117156151625750506151b5565b808201805167ffffffffffffffff81111561518057505050506151b5565b80602083010160043d03850181111561519d5750505050506151b5565b6151ac82602001850186613771565b82955050505050505b90565b7f455243313135353a207472616e7366657220746f206e6f6e204552433131353560008201527f526563656976657220696d706c656d656e746572000000000000000000000000602082015250565b600061521460348361368d565b915061521f826151b8565b604082019050919050565b6000602082019050818103600083015261524381615207565b9050919050565b7f455243313135353a204552433131353552656365697665722072656a6563746560008201527f6420746f6b656e73000000000000000000000000000000000000000000000000602082015250565b60006152a660288361368d565b91506152b18261524a565b604082019050919050565b600060208201905081810360008301526152d581615299565b9050919050565b60006152e7826134fa565b91506152f2836134fa565b9250817fffffffffffffffffffffffffffffffffffffffffffffffffffffffffffffffff048311821515161561532b5761532a6146fd565b5b828202905092915050565b6000615341826134fa565b91506000821415615355576153546146fd565b5b600182039050919050565b7f537472696e67733a20686578206c656e67746820696e73756666696369656e74600082015250565b600061539660208361368d565b91506153a182615360565b602082019050919050565b600060208201905081810360008301526153c581615389565b9050919050565b600060a0820190506153e160008301886140b4565b6153ee60208301876140b4565b6153fb6040830186613570565b6154086060830185613570565b818103608083015261541a8184615010565b90509695505050505050565b7f455243313135355061757361626c653a20746f6b656e207472616e736665722060008201527f7768696c65207061757365640000000000000000000000000000000000000000602082015250565b6000615482602c8361368d565b915061548d82615426565b604082019050919050565b600060208201905081810360008301526154b181615475565b9050919050565b60006154c3826134fa565b91506154ce836134fa565b9250828210156154e1576154e06146fd565b5b828203905092915050565b7f4e487b7100000000000000000000000000000000000000000000000000000000600052603160045260246000fdfea264697066735822122025c5bfd0e7b7bba22f42b85b69b87d2e0ba04eca1d537e81b8a303c270c032fe64736f6c634300080b0033",
  "immutableReferences": {},
  "source": "// SPDX-License-Identifier: MIT\npragma solidity 0.8.11;\n\nimport \"@openzeppelin/contracts/token/ERC1155/presets/ERC1155PresetMinterPauser.sol\";\nimport \"openzeppelin-solidity/contracts/utils/math/SafeMath.sol\";\n\ncontract Anoying is ERC1155PresetMinterPauser {\n    using SafeMath for uint256;\n    address MINTER;\n    uint256 tokenAmount = 0;\n\n    struct Token{\n        uint256 id;\n        address owner;\n        string dataKey;\n    }\n    mapping(uint256 => Token) public ownership;\n\n    constructor() ERC1155PresetMinterPauser('http://localhost:3003?token={id}') {\n        MINTER = msg.sender;\n    }\n\n    function mintToken(\n        address to,\n        uint256 amount,\n        string memory data\n    ) public virtual returns(uint256) {\n        require(MINTER == msg.sender);\n        tokenAmount = tokenAmount.add(1);\n        mint(to, tokenAmount, amount, bytes(data));\n        ownership[tokenAmount] = Token(tokenAmount, to, data);\n        return tokenAmount;\n    }\n\n    function isMinter(address from) public view returns(bool) {\n        return MINTER == from;\n    }\n\n    function getTokens(address owner) public view returns(Token[] memory) {\n        uint256 l = 0;\n        for (uint256 index = 1; index <= tokenAmount; index++) {\n            if(ownership[index].owner == owner){\n                l = l.add(1);\n            }\n        }\n\n        Token[] memory tokensOfOwner = new Token[](l);\n\n        // for (uint256 index = 1; index <= tokenAmount; index++) {\n        //     if(ownership[index].owner == owner){\n        //         tokensOfOwner[tokensOfOwner.length] = ownership[index];\n        //     }\n        // }\n\n        return tokensOfOwner;\n    }\n\n    function burnToken(uint256 tokenId) public returns(uint256){\n        address owner = ownership[tokenId].owner;\n        require(msg.sender == owner || msg.sender == MINTER);\n        burn(owner, tokenId, 1);\n        return balanceOf(owner, tokenId);\n    }\n}\n",
  "sourcePath": "/Users/deniskuivalainen/Documents/nft-test-task/token/contracts/Anoying.sol",
  "compiler": {
    "name": "solc",
    "version": "0.8.11+commit.d7f03943.Emscripten.clang"
  },
  "schemaVersion": "3.4.4",
  "updatedAt": "2022-01-28T14:45:53.773Z",
  "networkType": "ethereum",
  "devdoc": {
    "kind": "dev",
    "methods": {
      "balanceOf(address,uint256)": {
        "details": "See {IERC1155-balanceOf}. Requirements: - `account` cannot be the zero address."
      },
      "balanceOfBatch(address[],uint256[])": {
        "details": "See {IERC1155-balanceOfBatch}. Requirements: - `accounts` and `ids` must have the same length."
      },
      "getRoleAdmin(bytes32)": {
        "details": "Returns the admin role that controls `role`. See {grantRole} and {revokeRole}. To change a role's admin, use {_setRoleAdmin}."
      },
      "getRoleMember(bytes32,uint256)": {
        "details": "Returns one of the accounts that have `role`. `index` must be a value between 0 and {getRoleMemberCount}, non-inclusive. Role bearers are not sorted in any particular way, and their ordering may change at any point. WARNING: When using {getRoleMember} and {getRoleMemberCount}, make sure you perform all queries on the same block. See the following https://forum.openzeppelin.com/t/iterating-over-elements-on-enumerableset-in-openzeppelin-contracts/2296[forum post] for more information."
      },
      "getRoleMemberCount(bytes32)": {
        "details": "Returns the number of accounts that have `role`. Can be used together with {getRoleMember} to enumerate all bearers of a role."
      },
      "grantRole(bytes32,address)": {
        "details": "Grants `role` to `account`. If `account` had not been already granted `role`, emits a {RoleGranted} event. Requirements: - the caller must have ``role``'s admin role."
      },
      "hasRole(bytes32,address)": {
        "details": "Returns `true` if `account` has been granted `role`."
      },
      "isApprovedForAll(address,address)": {
        "details": "See {IERC1155-isApprovedForAll}."
      },
      "mint(address,uint256,uint256,bytes)": {
        "details": "Creates `amount` new tokens for `to`, of token type `id`. See {ERC1155-_mint}. Requirements: - the caller must have the `MINTER_ROLE`."
      },
      "mintBatch(address,uint256[],uint256[],bytes)": {
        "details": "xref:ROOT:erc1155.adoc#batch-operations[Batched] variant of {mint}."
      },
      "pause()": {
        "details": "Pauses all token transfers. See {ERC1155Pausable} and {Pausable-_pause}. Requirements: - the caller must have the `PAUSER_ROLE`."
      },
      "paused()": {
        "details": "Returns true if the contract is paused, and false otherwise."
      },
      "renounceRole(bytes32,address)": {
        "details": "Revokes `role` from the calling account. Roles are often managed via {grantRole} and {revokeRole}: this function's purpose is to provide a mechanism for accounts to lose their privileges if they are compromised (such as when a trusted device is misplaced). If the calling account had been revoked `role`, emits a {RoleRevoked} event. Requirements: - the caller must be `account`."
      },
      "revokeRole(bytes32,address)": {
        "details": "Revokes `role` from `account`. If `account` had been granted `role`, emits a {RoleRevoked} event. Requirements: - the caller must have ``role``'s admin role."
      },
      "safeBatchTransferFrom(address,address,uint256[],uint256[],bytes)": {
        "details": "See {IERC1155-safeBatchTransferFrom}."
      },
      "safeTransferFrom(address,address,uint256,uint256,bytes)": {
        "details": "See {IERC1155-safeTransferFrom}."
      },
      "setApprovalForAll(address,bool)": {
        "details": "See {IERC1155-setApprovalForAll}."
      },
      "supportsInterface(bytes4)": {
        "details": "See {IERC165-supportsInterface}."
      },
      "unpause()": {
        "details": "Unpauses all token transfers. See {ERC1155Pausable} and {Pausable-_unpause}. Requirements: - the caller must have the `PAUSER_ROLE`."
      },
      "uri(uint256)": {
        "details": "See {IERC1155MetadataURI-uri}. This implementation returns the same URI for *all* token types. It relies on the token type ID substitution mechanism https://eips.ethereum.org/EIPS/eip-1155#metadata[defined in the EIP]. Clients calling this function must replace the `\\{id\\}` substring with the actual token type ID."
      }
    },
    "version": 1
  },
  "userdoc": {
    "kind": "user",
    "methods": {},
    "version": 1
  }
}