{
  "contractName": "Anoying",
  "abi": [
    {
      "inputs": [],
      "stateMutability": "nonpayable",
      "type": "constructor"
    },
    {
      "anonymous": false,
      "inputs": [
        {
          "indexed": true,
          "internalType": "address",
          "name": "account",
          "type": "address"
        },
        {
          "indexed": true,
          "internalType": "address",
          "name": "operator",
          "type": "address"
        },
        {
          "indexed": false,
          "internalType": "bool",
          "name": "approved",
          "type": "bool"
        }
      ],
      "name": "ApprovalForAll",
      "type": "event"
    },
    {
      "anonymous": false,
      "inputs": [
        {
          "indexed": false,
          "internalType": "address",
          "name": "account",
          "type": "address"
        }
      ],
      "name": "Paused",
      "type": "event"
    },
    {
      "anonymous": false,
      "inputs": [
        {
          "indexed": true,
          "internalType": "bytes32",
          "name": "role",
          "type": "bytes32"
        },
        {
          "indexed": true,
          "internalType": "bytes32",
          "name": "previousAdminRole",
          "type": "bytes32"
        },
        {
          "indexed": true,
          "internalType": "bytes32",
          "name": "newAdminRole",
          "type": "bytes32"
        }
      ],
      "name": "RoleAdminChanged",
      "type": "event"
    },
    {
      "anonymous": false,
      "inputs": [
        {
          "indexed": true,
          "internalType": "bytes32",
          "name": "role",
          "type": "bytes32"
        },
        {
          "indexed": true,
          "internalType": "address",
          "name": "account",
          "type": "address"
        },
        {
          "indexed": true,
          "internalType": "address",
          "name": "sender",
          "type": "address"
        }
      ],
      "name": "RoleGranted",
      "type": "event"
    },
    {
      "anonymous": false,
      "inputs": [
        {
          "indexed": true,
          "internalType": "bytes32",
          "name": "role",
          "type": "bytes32"
        },
        {
          "indexed": true,
          "internalType": "address",
          "name": "account",
          "type": "address"
        },
        {
          "indexed": true,
          "internalType": "address",
          "name": "sender",
          "type": "address"
        }
      ],
      "name": "RoleRevoked",
      "type": "event"
    },
    {
      "anonymous": false,
      "inputs": [
        {
          "indexed": true,
          "internalType": "address",
          "name": "operator",
          "type": "address"
        },
        {
          "indexed": true,
          "internalType": "address",
          "name": "from",
          "type": "address"
        },
        {
          "indexed": true,
          "internalType": "address",
          "name": "to",
          "type": "address"
        },
        {
          "indexed": false,
          "internalType": "uint256[]",
          "name": "ids",
          "type": "uint256[]"
        },
        {
          "indexed": false,
          "internalType": "uint256[]",
          "name": "values",
          "type": "uint256[]"
        }
      ],
      "name": "TransferBatch",
      "type": "event"
    },
    {
      "anonymous": false,
      "inputs": [
        {
          "indexed": true,
          "internalType": "address",
          "name": "operator",
          "type": "address"
        },
        {
          "indexed": true,
          "internalType": "address",
          "name": "from",
          "type": "address"
        },
        {
          "indexed": true,
          "internalType": "address",
          "name": "to",
          "type": "address"
        },
        {
          "indexed": false,
          "internalType": "uint256",
          "name": "id",
          "type": "uint256"
        },
        {
          "indexed": false,
          "internalType": "uint256",
          "name": "value",
          "type": "uint256"
        }
      ],
      "name": "TransferSingle",
      "type": "event"
    },
    {
      "anonymous": false,
      "inputs": [
        {
          "indexed": false,
          "internalType": "string",
          "name": "value",
          "type": "string"
        },
        {
          "indexed": true,
          "internalType": "uint256",
          "name": "id",
          "type": "uint256"
        }
      ],
      "name": "URI",
      "type": "event"
    },
    {
      "anonymous": false,
      "inputs": [
        {
          "indexed": false,
          "internalType": "address",
          "name": "account",
          "type": "address"
        }
      ],
      "name": "Unpaused",
      "type": "event"
    },
    {
      "inputs": [],
      "name": "DEFAULT_ADMIN_ROLE",
      "outputs": [
        {
          "internalType": "bytes32",
          "name": "",
          "type": "bytes32"
        }
      ],
      "stateMutability": "view",
      "type": "function",
      "constant": true
    },
    {
      "inputs": [],
      "name": "MINTER_ROLE",
      "outputs": [
        {
          "internalType": "bytes32",
          "name": "",
          "type": "bytes32"
        }
      ],
      "stateMutability": "view",
      "type": "function",
      "constant": true
    },
    {
      "inputs": [],
      "name": "PAUSER_ROLE",
      "outputs": [
        {
          "internalType": "bytes32",
          "name": "",
          "type": "bytes32"
        }
      ],
      "stateMutability": "view",
      "type": "function",
      "constant": true
    },
    {
      "inputs": [
        {
          "internalType": "address",
          "name": "account",
          "type": "address"
        },
        {
          "internalType": "uint256",
          "name": "id",
          "type": "uint256"
        }
      ],
      "name": "balanceOf",
      "outputs": [
        {
          "internalType": "uint256",
          "name": "",
          "type": "uint256"
        }
      ],
      "stateMutability": "view",
      "type": "function",
      "constant": true
    },
    {
      "inputs": [
        {
          "internalType": "address[]",
          "name": "accounts",
          "type": "address[]"
        },
        {
          "internalType": "uint256[]",
          "name": "ids",
          "type": "uint256[]"
        }
      ],
      "name": "balanceOfBatch",
      "outputs": [
        {
          "internalType": "uint256[]",
          "name": "",
          "type": "uint256[]"
        }
      ],
      "stateMutability": "view",
      "type": "function",
      "constant": true
    },
    {
      "inputs": [
        {
          "internalType": "address",
          "name": "account",
          "type": "address"
        },
        {
          "internalType": "uint256",
          "name": "id",
          "type": "uint256"
        },
        {
          "internalType": "uint256",
          "name": "value",
          "type": "uint256"
        }
      ],
      "name": "burn",
      "outputs": [],
      "stateMutability": "nonpayable",
      "type": "function"
    },
    {
      "inputs": [
        {
          "internalType": "address",
          "name": "account",
          "type": "address"
        },
        {
          "internalType": "uint256[]",
          "name": "ids",
          "type": "uint256[]"
        },
        {
          "internalType": "uint256[]",
          "name": "values",
          "type": "uint256[]"
        }
      ],
      "name": "burnBatch",
      "outputs": [],
      "stateMutability": "nonpayable",
      "type": "function"
    },
    {
      "inputs": [
        {
          "internalType": "bytes32",
          "name": "role",
          "type": "bytes32"
        }
      ],
      "name": "getRoleAdmin",
      "outputs": [
        {
          "internalType": "bytes32",
          "name": "",
          "type": "bytes32"
        }
      ],
      "stateMutability": "view",
      "type": "function",
      "constant": true
    },
    {
      "inputs": [
        {
          "internalType": "bytes32",
          "name": "role",
          "type": "bytes32"
        },
        {
          "internalType": "uint256",
          "name": "index",
          "type": "uint256"
        }
      ],
      "name": "getRoleMember",
      "outputs": [
        {
          "internalType": "address",
          "name": "",
          "type": "address"
        }
      ],
      "stateMutability": "view",
      "type": "function",
      "constant": true
    },
    {
      "inputs": [
        {
          "internalType": "bytes32",
          "name": "role",
          "type": "bytes32"
        }
      ],
      "name": "getRoleMemberCount",
      "outputs": [
        {
          "internalType": "uint256",
          "name": "",
          "type": "uint256"
        }
      ],
      "stateMutability": "view",
      "type": "function",
      "constant": true
    },
    {
      "inputs": [
        {
          "internalType": "bytes32",
          "name": "role",
          "type": "bytes32"
        },
        {
          "internalType": "address",
          "name": "account",
          "type": "address"
        }
      ],
      "name": "grantRole",
      "outputs": [],
      "stateMutability": "nonpayable",
      "type": "function"
    },
    {
      "inputs": [
        {
          "internalType": "bytes32",
          "name": "role",
          "type": "bytes32"
        },
        {
          "internalType": "address",
          "name": "account",
          "type": "address"
        }
      ],
      "name": "hasRole",
      "outputs": [
        {
          "internalType": "bool",
          "name": "",
          "type": "bool"
        }
      ],
      "stateMutability": "view",
      "type": "function",
      "constant": true
    },
    {
      "inputs": [
        {
          "internalType": "address",
          "name": "account",
          "type": "address"
        },
        {
          "internalType": "address",
          "name": "operator",
          "type": "address"
        }
      ],
      "name": "isApprovedForAll",
      "outputs": [
        {
          "internalType": "bool",
          "name": "",
          "type": "bool"
        }
      ],
      "stateMutability": "view",
      "type": "function",
      "constant": true
    },
    {
      "inputs": [
        {
          "internalType": "address",
          "name": "to",
          "type": "address"
        },
        {
          "internalType": "uint256",
          "name": "id",
          "type": "uint256"
        },
        {
          "internalType": "uint256",
          "name": "amount",
          "type": "uint256"
        },
        {
          "internalType": "bytes",
          "name": "data",
          "type": "bytes"
        }
      ],
      "name": "mint",
      "outputs": [],
      "stateMutability": "nonpayable",
      "type": "function"
    },
    {
      "inputs": [
        {
          "internalType": "address",
          "name": "to",
          "type": "address"
        },
        {
          "internalType": "uint256[]",
          "name": "ids",
          "type": "uint256[]"
        },
        {
          "internalType": "uint256[]",
          "name": "amounts",
          "type": "uint256[]"
        },
        {
          "internalType": "bytes",
          "name": "data",
          "type": "bytes"
        }
      ],
      "name": "mintBatch",
      "outputs": [],
      "stateMutability": "nonpayable",
      "type": "function"
    },
    {
      "inputs": [
        {
          "internalType": "uint256",
          "name": "",
          "type": "uint256"
        }
      ],
      "name": "ownership",
      "outputs": [
        {
          "internalType": "uint256",
          "name": "id",
          "type": "uint256"
        },
        {
          "internalType": "address",
          "name": "owner",
          "type": "address"
        },
        {
          "internalType": "address",
          "name": "sender",
          "type": "address"
        },
        {
          "internalType": "string",
          "name": "dataKey",
          "type": "string"
        },
        {
          "internalType": "uint256",
          "name": "balance",
          "type": "uint256"
        },
        {
          "internalType": "uint256",
          "name": "till",
          "type": "uint256"
        }
      ],
      "stateMutability": "view",
      "type": "function",
      "constant": true
    },
    {
      "inputs": [],
      "name": "pause",
      "outputs": [],
      "stateMutability": "nonpayable",
      "type": "function"
    },
    {
      "inputs": [],
      "name": "paused",
      "outputs": [
        {
          "internalType": "bool",
          "name": "",
          "type": "bool"
        }
      ],
      "stateMutability": "view",
      "type": "function",
      "constant": true
    },
    {
      "inputs": [
        {
          "internalType": "bytes32",
          "name": "role",
          "type": "bytes32"
        },
        {
          "internalType": "address",
          "name": "account",
          "type": "address"
        }
      ],
      "name": "renounceRole",
      "outputs": [],
      "stateMutability": "nonpayable",
      "type": "function"
    },
    {
      "inputs": [
        {
          "internalType": "bytes32",
          "name": "role",
          "type": "bytes32"
        },
        {
          "internalType": "address",
          "name": "account",
          "type": "address"
        }
      ],
      "name": "revokeRole",
      "outputs": [],
      "stateMutability": "nonpayable",
      "type": "function"
    },
    {
      "inputs": [
        {
          "internalType": "address",
          "name": "from",
          "type": "address"
        },
        {
          "internalType": "address",
          "name": "to",
          "type": "address"
        },
        {
          "internalType": "uint256[]",
          "name": "ids",
          "type": "uint256[]"
        },
        {
          "internalType": "uint256[]",
          "name": "amounts",
          "type": "uint256[]"
        },
        {
          "internalType": "bytes",
          "name": "data",
          "type": "bytes"
        }
      ],
      "name": "safeBatchTransferFrom",
      "outputs": [],
      "stateMutability": "nonpayable",
      "type": "function"
    },
    {
      "inputs": [
        {
          "internalType": "address",
          "name": "from",
          "type": "address"
        },
        {
          "internalType": "address",
          "name": "to",
          "type": "address"
        },
        {
          "internalType": "uint256",
          "name": "id",
          "type": "uint256"
        },
        {
          "internalType": "uint256",
          "name": "amount",
          "type": "uint256"
        },
        {
          "internalType": "bytes",
          "name": "data",
          "type": "bytes"
        }
      ],
      "name": "safeTransferFrom",
      "outputs": [],
      "stateMutability": "nonpayable",
      "type": "function"
    },
    {
      "inputs": [
        {
          "internalType": "address",
          "name": "operator",
          "type": "address"
        },
        {
          "internalType": "bool",
          "name": "approved",
          "type": "bool"
        }
      ],
      "name": "setApprovalForAll",
      "outputs": [],
      "stateMutability": "nonpayable",
      "type": "function"
    },
    {
      "inputs": [
        {
          "internalType": "bytes4",
          "name": "interfaceId",
          "type": "bytes4"
        }
      ],
      "name": "supportsInterface",
      "outputs": [
        {
          "internalType": "bool",
          "name": "",
          "type": "bool"
        }
      ],
      "stateMutability": "view",
      "type": "function",
      "constant": true
    },
    {
      "inputs": [],
      "name": "unpause",
      "outputs": [],
      "stateMutability": "nonpayable",
      "type": "function"
    },
    {
      "inputs": [
        {
          "internalType": "uint256",
          "name": "",
          "type": "uint256"
        }
      ],
      "name": "uri",
      "outputs": [
        {
          "internalType": "string",
          "name": "",
          "type": "string"
        }
      ],
      "stateMutability": "view",
      "type": "function",
      "constant": true
    },
    {
      "inputs": [
        {
          "internalType": "address",
          "name": "to",
          "type": "address"
        },
        {
          "internalType": "uint256",
          "name": "amount",
          "type": "uint256"
        },
        {
          "internalType": "string",
          "name": "data",
          "type": "string"
        },
        {
          "internalType": "uint256",
          "name": "daysTillExpire",
          "type": "uint256"
        }
      ],
      "name": "mintToken",
      "outputs": [
        {
          "internalType": "uint256",
          "name": "",
          "type": "uint256"
        }
      ],
      "stateMutability": "nonpayable",
      "type": "function"
    },
    {
      "inputs": [
        {
          "internalType": "address",
          "name": "owner",
          "type": "address"
        }
      ],
      "name": "getTokens",
      "outputs": [
        {
          "components": [
            {
              "internalType": "uint256",
              "name": "id",
              "type": "uint256"
            },
            {
              "internalType": "address",
              "name": "owner",
              "type": "address"
            },
            {
              "internalType": "address",
              "name": "sender",
              "type": "address"
            },
            {
              "internalType": "string",
              "name": "dataKey",
              "type": "string"
            },
            {
              "internalType": "uint256",
              "name": "balance",
              "type": "uint256"
            },
            {
              "internalType": "uint256",
              "name": "till",
              "type": "uint256"
            }
          ],
          "internalType": "struct Anoying.Token[]",
          "name": "",
          "type": "tuple[]"
        }
      ],
      "stateMutability": "view",
      "type": "function",
      "constant": true
    },
    {
      "inputs": [
        {
          "internalType": "address",
          "name": "sender",
          "type": "address"
        }
      ],
      "name": "getTokensToBurn",
      "outputs": [
        {
          "components": [
            {
              "internalType": "uint256",
              "name": "id",
              "type": "uint256"
            },
            {
              "internalType": "address",
              "name": "owner",
              "type": "address"
            },
            {
              "internalType": "address",
              "name": "sender",
              "type": "address"
            },
            {
              "internalType": "string",
              "name": "dataKey",
              "type": "string"
            },
            {
              "internalType": "uint256",
              "name": "balance",
              "type": "uint256"
            },
            {
              "internalType": "uint256",
              "name": "till",
              "type": "uint256"
            }
          ],
          "internalType": "struct Anoying.Token[]",
          "name": "",
          "type": "tuple[]"
        }
      ],
      "stateMutability": "view",
      "type": "function",
      "constant": true
    },
    {
      "inputs": [
        {
          "internalType": "uint256",
          "name": "tokenId",
          "type": "uint256"
        },
        {
          "internalType": "uint256",
          "name": "amount",
          "type": "uint256"
        }
      ],
      "name": "burnToken",
      "outputs": [],
      "stateMutability": "nonpayable",
      "type": "function"
    }
  ],
  "bytecode": "0x608060405260006006553480156200001657600080fd5b506040518060400160405280602081526020017f687474703a2f2f6c6f63616c686f73743a333030333f746f6b656e3d7b69647d815250806200005f816200012860201b60201c565b506000600560006101000a81548160ff0219169083151502179055506200009f6000801b620000936200014460201b60201c565b6200014c60201b60201c565b620000e07f9f2df0fed2c77648de5860a4cc508cd0818c85b8b8a1ab4ceeef8d981c8956a6620000d46200014460201b60201c565b6200014c60201b60201c565b620001217f65d7a28e3265b37a6474929f336521b332c1681b933f6cb9f3376673440d862a620001156200014460201b60201c565b6200014c60201b60201c565b50620004ef565b806004908051906020019062000140929190620003da565b5050565b600033905090565b6200015e82826200016260201b60201c565b5050565b620001798282620001aa60201b62001c191760201c565b620001a581600160008581526020019081526020016000206200029b60201b62001cf91790919060201c565b505050565b620001bc8282620002d360201b60201c565b6200029757600160008084815260200190815260200160002060000160008373ffffffffffffffffffffffffffffffffffffffff1673ffffffffffffffffffffffffffffffffffffffff16815260200190815260200160002060006101000a81548160ff0219169083151502179055506200023c6200014460201b60201c565b73ffffffffffffffffffffffffffffffffffffffff168173ffffffffffffffffffffffffffffffffffffffff16837f2f8788117e7eff1d82e926ec794901d17c78024a50270940304540a733656f0d60405160405180910390a45b5050565b6000620002cb836000018373ffffffffffffffffffffffffffffffffffffffff1660001b6200033d60201b60201c565b905092915050565b600080600084815260200190815260200160002060000160008373ffffffffffffffffffffffffffffffffffffffff1673ffffffffffffffffffffffffffffffffffffffff16815260200190815260200160002060009054906101000a900460ff16905092915050565b6000620003518383620003b760201b60201c565b620003ac578260000182908060018154018082558091505060019003906000526020600020016000909190919091505582600001805490508360010160008481526020019081526020016000208190555060019050620003b1565b600090505b92915050565b600080836001016000848152602001908152602001600020541415905092915050565b828054620003e890620004b9565b90600052602060002090601f0160209004810192826200040c576000855562000458565b82601f106200042757805160ff191683800117855562000458565b8280016001018555821562000458579182015b82811115620004575782518255916020019190600101906200043a565b5b5090506200046791906200046b565b5090565b5b80821115620004865760008160009055506001016200046c565b5090565b7f4e487b7100000000000000000000000000000000000000000000000000000000600052602260045260246000fd5b60006002820490506001821680620004d257607f821691505b60208210811415620004e957620004e86200048a565b5b50919050565b615f6f80620004ff6000396000f3fe608060405234801561001057600080fd5b50600436106101d95760003560e01c8063731133e911610104578063a22cb465116100a2578063e63ab1e911610071578063e63ab1e91461058d578063e985e9c5146105ab578063f242432a146105db578063f5298aca146105f7576101d9565b8063a22cb46514610507578063ca15c87314610523578063d539139314610553578063d547741f14610571576101d9565b80639010d07c116100de5780639010d07c1461045457806391d1485414610484578063a0f45b69146104b4578063a217fddf146104e9576101d9565b8063731133e9146104125780638225b2471461042e5780638456cb591461044a576101d9565b80632f2ff15d1161017c5780634e1273f41161014b5780634e1273f4146103785780635bcd7db2146103a85780635c975abb146103d85780636b20c454146103f6576101d9565b80632f2ff15d1461030657806336568abe146103225780633f4ba83a1461033e578063450efe2114610348576101d9565b80631f7fdffa116101b85780631f7fdffa1461026e578063224cb2ea1461028a578063248a9ca3146102ba5780632eb2c2d6146102ea576101d9565b8062fdd58e146101de57806301ffc9a71461020e5780630e89341c1461023e575b600080fd5b6101f860048036038101906101f39190613d53565b610613565b6040516102059190613da2565b60405180910390f35b61022860048036038101906102239190613e15565b6106dd565b6040516102359190613e5d565b60405180910390f35b61025860048036038101906102539190613e78565b6106ef565b6040516102659190613f3e565b60405180910390f35b6102886004803603810190610283919061415d565b610783565b005b6102a4600480360381019061029f91906142b9565b610805565b6040516102b19190613da2565b60405180910390f35b6102d460048036038101906102cf9190614372565b6109a1565b6040516102e191906143ae565b60405180910390f35b61030460048036038101906102ff91906143c9565b6109c0565b005b610320600480360381019061031b9190614498565b610a61565b005b61033c60048036038101906103379190614498565b610a8a565b005b610346610b0d565b005b610362600480360381019061035d91906144d8565b610b87565b60405161036f91906146b8565b60405180910390f35b610392600480360381019061038d919061479d565b610f16565b60405161039f91906148c4565b60405180910390f35b6103c260048036038101906103bd91906144d8565b61102f565b6040516103cf91906146b8565b60405180910390f35b6103e06113be565b6040516103ed9190613e5d565b60405180910390f35b610410600480360381019061040b91906148e6565b6113d5565b005b61042c60048036038101906104279190614971565b611472565b005b610448600480360381019061044391906149f4565b6114f4565b005b61045261177e565b005b61046e60048036038101906104699190614a34565b6117f8565b60405161047b9190614a83565b60405180910390f35b61049e60048036038101906104999190614498565b611827565b6040516104ab9190613e5d565b60405180910390f35b6104ce60048036038101906104c99190613e78565b611891565b6040516104e096959493929190614a9e565b60405180910390f35b6104f1611995565b6040516104fe91906143ae565b60405180910390f35b610521600480360381019061051c9190614b32565b61199c565b005b61053d60048036038101906105389190614372565b6119b2565b60405161054a9190613da2565b60405180910390f35b61055b6119d6565b60405161056891906143ae565b60405180910390f35b61058b60048036038101906105869190614498565b6119fa565b005b610595611a23565b6040516105a291906143ae565b60405180910390f35b6105c560048036038101906105c09190614b72565b611a47565b6040516105d29190613e5d565b60405180910390f35b6105f560048036038101906105f09190614bb2565b611adb565b005b610611600480360381019061060c9190614c49565b611b7c565b005b60008073ffffffffffffffffffffffffffffffffffffffff168373ffffffffffffffffffffffffffffffffffffffff161415610684576040517f08c379a000000000000000000000000000000000000000000000000000000000815260040161067b90614d0e565b60405180910390fd5b6002600083815260200190815260200160002060008473ffffffffffffffffffffffffffffffffffffffff1673ffffffffffffffffffffffffffffffffffffffff16815260200190815260200160002054905092915050565b60006106e882611d29565b9050919050565b6060600480546106fe90614d5d565b80601f016020809104026020016040519081016040528092919081815260200182805461072a90614d5d565b80156107775780601f1061074c57610100808354040283529160200191610777565b820191906000526020600020905b81548152906001019060200180831161075a57829003601f168201915b50505050509050919050565b6107b47f9f2df0fed2c77648de5860a4cc508cd0818c85b8b8a1ab4ceeef8d981c8956a66107af611e0b565b611827565b6107f3576040517f08c379a00000000000000000000000000000000000000000000000000000000081526004016107ea90614e01565b60405180910390fd5b6107ff84848484611e13565b50505050565b600061081d600160065461203290919063ffffffff16565b600681905550610831856006548686612048565b6040518060c0016040528060065481526020018673ffffffffffffffffffffffffffffffffffffffff1681526020013373ffffffffffffffffffffffffffffffffffffffff1681526020018481526020018581526020016108b06108a162015180866121df90919063ffffffff16565b4261203290919063ffffffff16565b8152506007600060065481526020019081526020016000206000820151816000015560208201518160010160006101000a81548173ffffffffffffffffffffffffffffffffffffffff021916908373ffffffffffffffffffffffffffffffffffffffff16021790555060408201518160020160006101000a81548173ffffffffffffffffffffffffffffffffffffffff021916908373ffffffffffffffffffffffffffffffffffffffff160217905550606082015181600301908051906020019061097c929190613ba6565b506080820151816004015560a082015181600501559050506006549050949350505050565b6000806000838152602001908152602001600020600101549050919050565b6109c8611e0b565b73ffffffffffffffffffffffffffffffffffffffff168573ffffffffffffffffffffffffffffffffffffffff161480610a0e5750610a0d85610a08611e0b565b611a47565b5b610a4d576040517f08c379a0000000000000000000000000000000000000000000000000000000008152600401610a4490614e93565b60405180910390fd5b610a5a85858585856121f5565b5050505050565b610a6a826109a1565b610a7b81610a76611e0b565b61250c565b610a8583836125a9565b505050565b610a92611e0b565b73ffffffffffffffffffffffffffffffffffffffff168173ffffffffffffffffffffffffffffffffffffffff1614610aff576040517f08c379a0000000000000000000000000000000000000000000000000000000008152600401610af690614f25565b60405180910390fd5b610b0982826125dd565b5050565b610b3e7f65d7a28e3265b37a6474929f336521b332c1681b933f6cb9f3376673440d862a610b39611e0b565b611827565b610b7d576040517f08c379a0000000000000000000000000000000000000000000000000000000008152600401610b7490614fb7565b60405180910390fd5b610b85612611565b565b6060600080600190505b6006548111610c50578373ffffffffffffffffffffffffffffffffffffffff166007600083815260200190815260200160002060010160009054906101000a900473ffffffffffffffffffffffffffffffffffffffff1673ffffffffffffffffffffffffffffffffffffffff16148015610c21575060006007600083815260200190815260200160002060040154115b15610c3d57610c3a60018361203290919063ffffffff16565b91505b8080610c4890615006565b915050610b91565b5060008167ffffffffffffffff811115610c6d57610c6c613f65565b5b604051908082528060200260200182016040528015610ca657816020015b610c93613c2c565b815260200190600190039081610c8b5790505b509050600091506000600190505b6006548111610f0b578473ffffffffffffffffffffffffffffffffffffffff166007600083815260200190815260200160002060010160009054906101000a900473ffffffffffffffffffffffffffffffffffffffff1673ffffffffffffffffffffffffffffffffffffffff16148015610d44575060006007600083815260200190815260200160002060040154115b15610ef857600760008281526020019081526020016000206040518060c0016040529081600082015481526020016001820160009054906101000a900473ffffffffffffffffffffffffffffffffffffffff1673ffffffffffffffffffffffffffffffffffffffff1673ffffffffffffffffffffffffffffffffffffffff1681526020016002820160009054906101000a900473ffffffffffffffffffffffffffffffffffffffff1673ffffffffffffffffffffffffffffffffffffffff1673ffffffffffffffffffffffffffffffffffffffff168152602001600382018054610e2d90614d5d565b80601f0160208091040260200160405190810160405280929190818152602001828054610e5990614d5d565b8015610ea65780601f10610e7b57610100808354040283529160200191610ea6565b820191906000526020600020905b815481529060010190602001808311610e8957829003601f168201915b5050505050815260200160048201548152602001600582015481525050828481518110610ed657610ed561504f565b5b6020026020010181905250610ef560018461203290919063ffffffff16565b92505b8080610f0390615006565b915050610cb4565b508092505050919050565b60608151835114610f5c576040517f08c379a0000000000000000000000000000000000000000000000000000000008152600401610f53906150f0565b60405180910390fd5b6000835167ffffffffffffffff811115610f7957610f78613f65565b5b604051908082528060200260200182016040528015610fa75781602001602082028036833780820191505090505b50905060005b845181101561102457610ff4858281518110610fcc57610fcb61504f565b5b6020026020010151858381518110610fe757610fe661504f565b5b6020026020010151610613565b8282815181106110075761100661504f565b5b6020026020010181815250508061101d90615006565b9050610fad565b508091505092915050565b6060600080600190505b60065481116110f8578373ffffffffffffffffffffffffffffffffffffffff166007600083815260200190815260200160002060020160009054906101000a900473ffffffffffffffffffffffffffffffffffffffff1673ffffffffffffffffffffffffffffffffffffffff161480156110c9575060006007600083815260200190815260200160002060040154115b156110e5576110e260018361203290919063ffffffff16565b91505b80806110f090615006565b915050611039565b5060008167ffffffffffffffff81111561111557611114613f65565b5b60405190808252806020026020018201604052801561114e57816020015b61113b613c2c565b8152602001906001900390816111335790505b509050600091506000600190505b60065481116113b3578473ffffffffffffffffffffffffffffffffffffffff166007600083815260200190815260200160002060020160009054906101000a900473ffffffffffffffffffffffffffffffffffffffff1673ffffffffffffffffffffffffffffffffffffffff161480156111ec575060006007600083815260200190815260200160002060040154115b156113a057600760008281526020019081526020016000206040518060c0016040529081600082015481526020016001820160009054906101000a900473ffffffffffffffffffffffffffffffffffffffff1673ffffffffffffffffffffffffffffffffffffffff1673ffffffffffffffffffffffffffffffffffffffff1681526020016002820160009054906101000a900473ffffffffffffffffffffffffffffffffffffffff1673ffffffffffffffffffffffffffffffffffffffff1673ffffffffffffffffffffffffffffffffffffffff1681526020016003820180546112d590614d5d565b80601f016020809104026020016040519081016040528092919081815260200182805461130190614d5d565b801561134e5780601f106113235761010080835404028352916020019161134e565b820191906000526020600020905b81548152906001019060200180831161133157829003601f168201915b505050505081526020016004820154815260200160058201548152505082848151811061137e5761137d61504f565b5b602002602001018190525061139d60018461203290919063ffffffff16565b92505b80806113ab90615006565b91505061115c565b508092505050919050565b6000600560009054906101000a900460ff16905090565b6113dd611e0b565b73ffffffffffffffffffffffffffffffffffffffff168373ffffffffffffffffffffffffffffffffffffffff16148061142357506114228361141d611e0b565b611a47565b5b611462576040517f08c379a000000000000000000000000000000000000000000000000000000000815260040161145990615182565b60405180910390fd5b61146d8383836126b3565b505050565b6114a37f9f2df0fed2c77648de5860a4cc508cd0818c85b8b8a1ab4ceeef8d981c8956a661149e611e0b565b611827565b6114e2576040517f08c379a00000000000000000000000000000000000000000000000000000000081526004016114d990614e01565b60405180910390fd5b6114ee84848484612048565b50505050565b60006007600084815260200190815260200160002060010160009054906101000a900473ffffffffffffffffffffffffffffffffffffffff16905060006007600085815260200190815260200160002060020160009054906101000a900473ffffffffffffffffffffffffffffffffffffffff1690506000600760008681526020019081526020016000206004015490506000600760008781526020019081526020016000206005015490508373ffffffffffffffffffffffffffffffffffffffff163373ffffffffffffffffffffffffffffffffffffffff16148061160557508273ffffffffffffffffffffffffffffffffffffffff163373ffffffffffffffffffffffffffffffffffffffff16145b611644576040517f08c379a000000000000000000000000000000000000000000000000000000000815260040161163b906151ee565b60405180910390fd5b42811015611687576040517f08c379a000000000000000000000000000000000000000000000000000000000815260040161167e9061525a565b60405180910390fd5b848210156116ca576040517f08c379a00000000000000000000000000000000000000000000000000000000081526004016116c1906152c6565b60405180910390fd5b600073ffffffffffffffffffffffffffffffffffffffff168473ffffffffffffffffffffffffffffffffffffffff163373ffffffffffffffffffffffffffffffffffffffff167fc3d58168c5ae7397731d063d5bbf3d657854427343f4c083240f7aacaa2d0f6289896040516117419291906152e6565b60405180910390a461175c858361296690919063ffffffff16565b6007600088815260200190815260200160002060040181905550505050505050565b6117af7f65d7a28e3265b37a6474929f336521b332c1681b933f6cb9f3376673440d862a6117aa611e0b565b611827565b6117ee576040517f08c379a00000000000000000000000000000000000000000000000000000000081526004016117e590615381565b60405180910390fd5b6117f661297c565b565b600061181f8260016000868152602001908152602001600020612a1f90919063ffffffff16565b905092915050565b600080600084815260200190815260200160002060000160008373ffffffffffffffffffffffffffffffffffffffff1673ffffffffffffffffffffffffffffffffffffffff16815260200190815260200160002060009054906101000a900460ff16905092915050565b60076020528060005260406000206000915090508060000154908060010160009054906101000a900473ffffffffffffffffffffffffffffffffffffffff16908060020160009054906101000a900473ffffffffffffffffffffffffffffffffffffffff169080600301805461190690614d5d565b80601f016020809104026020016040519081016040528092919081815260200182805461193290614d5d565b801561197f5780601f106119545761010080835404028352916020019161197f565b820191906000526020600020905b81548152906001019060200180831161196257829003601f168201915b5050505050908060040154908060050154905086565b6000801b81565b6119ae6119a7611e0b565b8383612a39565b5050565b60006119cf60016000848152602001908152602001600020612ba6565b9050919050565b7f9f2df0fed2c77648de5860a4cc508cd0818c85b8b8a1ab4ceeef8d981c8956a681565b611a03826109a1565b611a1481611a0f611e0b565b61250c565b611a1e83836125dd565b505050565b7f65d7a28e3265b37a6474929f336521b332c1681b933f6cb9f3376673440d862a81565b6000600360008473ffffffffffffffffffffffffffffffffffffffff1673ffffffffffffffffffffffffffffffffffffffff16815260200190815260200160002060008373ffffffffffffffffffffffffffffffffffffffff1673ffffffffffffffffffffffffffffffffffffffff16815260200190815260200160002060009054906101000a900460ff16905092915050565b611ae3611e0b565b73ffffffffffffffffffffffffffffffffffffffff168573ffffffffffffffffffffffffffffffffffffffff161480611b295750611b2885611b23611e0b565b611a47565b5b611b68576040517f08c379a0000000000000000000000000000000000000000000000000000000008152600401611b5f90615182565b60405180910390fd5b611b758585858585612bbb565b5050505050565b611b84611e0b565b73ffffffffffffffffffffffffffffffffffffffff168373ffffffffffffffffffffffffffffffffffffffff161480611bca5750611bc983611bc4611e0b565b611a47565b5b611c09576040517f08c379a0000000000000000000000000000000000000000000000000000000008152600401611c0090615182565b60405180910390fd5b611c14838383612e40565b505050565b611c238282611827565b611cf557600160008084815260200190815260200160002060000160008373ffffffffffffffffffffffffffffffffffffffff1673ffffffffffffffffffffffffffffffffffffffff16815260200190815260200160002060006101000a81548160ff021916908315150217905550611c9a611e0b565b73ffffffffffffffffffffffffffffffffffffffff168173ffffffffffffffffffffffffffffffffffffffff16837f2f8788117e7eff1d82e926ec794901d17c78024a50270940304540a733656f0d60405160405180910390a45b5050565b6000611d21836000018373ffffffffffffffffffffffffffffffffffffffff1660001b61305f565b905092915050565b60007fd9b67a26000000000000000000000000000000000000000000000000000000007bffffffffffffffffffffffffffffffffffffffffffffffffffffffff1916827bffffffffffffffffffffffffffffffffffffffffffffffffffffffff19161480611df457507f0e89341c000000000000000000000000000000000000000000000000000000007bffffffffffffffffffffffffffffffffffffffffffffffffffffffff1916827bffffffffffffffffffffffffffffffffffffffffffffffffffffffff1916145b80611e045750611e03826130cf565b5b9050919050565b600033905090565b600073ffffffffffffffffffffffffffffffffffffffff168473ffffffffffffffffffffffffffffffffffffffff161415611e83576040517f08c379a0000000000000000000000000000000000000000000000000000000008152600401611e7a90615413565b60405180910390fd5b8151835114611ec7576040517f08c379a0000000000000000000000000000000000000000000000000000000008152600401611ebe906154a5565b60405180910390fd5b6000611ed1611e0b565b9050611ee281600087878787613149565b60005b8451811015611f9c57838181518110611f0157611f0061504f565b5b602002602001015160026000878481518110611f2057611f1f61504f565b5b6020026020010151815260200190815260200160002060008873ffffffffffffffffffffffffffffffffffffffff1673ffffffffffffffffffffffffffffffffffffffff1681526020019081526020016000206000828254611f8291906154c5565b925050819055508080611f9490615006565b915050611ee5565b508473ffffffffffffffffffffffffffffffffffffffff16600073ffffffffffffffffffffffffffffffffffffffff168273ffffffffffffffffffffffffffffffffffffffff167f4a39dc06d4c0dbc64b70af90fd698a233a518aa5d07e595d983b8c0526c8f7fb878760405161201492919061551b565b60405180910390a461202b8160008787878761315f565b5050505050565b6000818361204091906154c5565b905092915050565b600073ffffffffffffffffffffffffffffffffffffffff168473ffffffffffffffffffffffffffffffffffffffff1614156120b8576040517f08c379a00000000000000000000000000000000000000000000000000000000081526004016120af90615413565b60405180910390fd5b60006120c2611e0b565b90506120e3816000876120d488613337565b6120dd88613337565b87613149565b826002600086815260200190815260200160002060008773ffffffffffffffffffffffffffffffffffffffff1673ffffffffffffffffffffffffffffffffffffffff168152602001908152602001600020600082825461214391906154c5565b925050819055508473ffffffffffffffffffffffffffffffffffffffff16600073ffffffffffffffffffffffffffffffffffffffff168273ffffffffffffffffffffffffffffffffffffffff167fc3d58168c5ae7397731d063d5bbf3d657854427343f4c083240f7aacaa2d0f6287876040516121c19291906152e6565b60405180910390a46121d8816000878787876133b1565b5050505050565b600081836121ed9190615552565b905092915050565b8151835114612239576040517f08c379a0000000000000000000000000000000000000000000000000000000008152600401612230906154a5565b60405180910390fd5b600073ffffffffffffffffffffffffffffffffffffffff168473ffffffffffffffffffffffffffffffffffffffff1614156122a9576040517f08c379a00000000000000000000000000000000000000000000000000000000081526004016122a09061561e565b60405180910390fd5b60006122b3611e0b565b90506122c3818787878787613149565b60005b84518110156124775760008582815181106122e4576122e361504f565b5b6020026020010151905060008583815181106123035761230261504f565b5b6020026020010151905060006002600084815260200190815260200160002060008b73ffffffffffffffffffffffffffffffffffffffff1673ffffffffffffffffffffffffffffffffffffffff168152602001908152602001600020549050818110156123a5576040517f08c379a000000000000000000000000000000000000000000000000000000000815260040161239c906156b0565b60405180910390fd5b8181036002600085815260200190815260200160002060008c73ffffffffffffffffffffffffffffffffffffffff1673ffffffffffffffffffffffffffffffffffffffff16815260200190815260200160002081905550816002600085815260200190815260200160002060008b73ffffffffffffffffffffffffffffffffffffffff1673ffffffffffffffffffffffffffffffffffffffff168152602001908152602001600020600082825461245c91906154c5565b925050819055505050508061247090615006565b90506122c6565b508473ffffffffffffffffffffffffffffffffffffffff168673ffffffffffffffffffffffffffffffffffffffff168273ffffffffffffffffffffffffffffffffffffffff167f4a39dc06d4c0dbc64b70af90fd698a233a518aa5d07e595d983b8c0526c8f7fb87876040516124ee92919061551b565b60405180910390a461250481878787878761315f565b505050505050565b6125168282611827565b6125a55761253b8173ffffffffffffffffffffffffffffffffffffffff166014613589565b6125498360001c6020613589565b60405160200161255a9291906157a4565b6040516020818303038152906040526040517f08c379a000000000000000000000000000000000000000000000000000000000815260040161259c9190613f3e565b60405180910390fd5b5050565b6125b38282611c19565b6125d88160016000858152602001908152602001600020611cf990919063ffffffff16565b505050565b6125e782826137c5565b61260c81600160008581526020019081526020016000206138a690919063ffffffff16565b505050565b6126196113be565b612658576040517f08c379a000000000000000000000000000000000000000000000000000000000815260040161264f9061582a565b60405180910390fd5b6000600560006101000a81548160ff0219169083151502179055507f5db9ee0a495bf2e6ff9c91a7834c1ba4fdd244a5e8aa4e537bd38aeae4b073aa61269c611e0b565b6040516126a99190614a83565b60405180910390a1565b600073ffffffffffffffffffffffffffffffffffffffff168373ffffffffffffffffffffffffffffffffffffffff161415612723576040517f08c379a000000000000000000000000000000000000000000000000000000000815260040161271a906158bc565b60405180910390fd5b8051825114612767576040517f08c379a000000000000000000000000000000000000000000000000000000000815260040161275e906154a5565b60405180910390fd5b6000612771611e0b565b905061279181856000868660405180602001604052806000815250613149565b60005b83518110156128e05760008482815181106127b2576127b161504f565b5b6020026020010151905060008483815181106127d1576127d061504f565b5b6020026020010151905060006002600084815260200190815260200160002060008973ffffffffffffffffffffffffffffffffffffffff1673ffffffffffffffffffffffffffffffffffffffff16815260200190815260200160002054905081811015612873576040517f08c379a000000000000000000000000000000000000000000000000000000000815260040161286a9061594e565b60405180910390fd5b8181036002600085815260200190815260200160002060008a73ffffffffffffffffffffffffffffffffffffffff1673ffffffffffffffffffffffffffffffffffffffff1681526020019081526020016000208190555050505080806128d890615006565b915050612794565b50600073ffffffffffffffffffffffffffffffffffffffff168473ffffffffffffffffffffffffffffffffffffffff168273ffffffffffffffffffffffffffffffffffffffff167f4a39dc06d4c0dbc64b70af90fd698a233a518aa5d07e595d983b8c0526c8f7fb868660405161295892919061551b565b60405180910390a450505050565b60008183612974919061596e565b905092915050565b6129846113be565b156129c4576040517f08c379a00000000000000000000000000000000000000000000000000000000081526004016129bb906159ee565b60405180910390fd5b6001600560006101000a81548160ff0219169083151502179055507f62e78cea01bee320cd4e420270b5ea74000d11b0c9f74754ebdbfc544b05a258612a08611e0b565b604051612a159190614a83565b60405180910390a1565b6000612a2e83600001836138d6565b60001c905092915050565b8173ffffffffffffffffffffffffffffffffffffffff168373ffffffffffffffffffffffffffffffffffffffff161415612aa8576040517f08c379a0000000000000000000000000000000000000000000000000000000008152600401612a9f90615a80565b60405180910390fd5b80600360008573ffffffffffffffffffffffffffffffffffffffff1673ffffffffffffffffffffffffffffffffffffffff16815260200190815260200160002060008473ffffffffffffffffffffffffffffffffffffffff1673ffffffffffffffffffffffffffffffffffffffff16815260200190815260200160002060006101000a81548160ff0219169083151502179055508173ffffffffffffffffffffffffffffffffffffffff168373ffffffffffffffffffffffffffffffffffffffff167f17307eab39ab6107e8899845ad3d59bd9653f200f220920489ca2b5937696c3183604051612b999190613e5d565b60405180910390a3505050565b6000612bb482600001613901565b9050919050565b600073ffffffffffffffffffffffffffffffffffffffff168473ffffffffffffffffffffffffffffffffffffffff161415612c2b576040517f08c379a0000000000000000000000000000000000000000000000000000000008152600401612c229061561e565b60405180910390fd5b6000612c35611e0b565b9050612c55818787612c4688613337565b612c4f88613337565b87613149565b60006002600086815260200190815260200160002060008873ffffffffffffffffffffffffffffffffffffffff1673ffffffffffffffffffffffffffffffffffffffff16815260200190815260200160002054905083811015612ced576040517f08c379a0000000000000000000000000000000000000000000000000000000008152600401612ce4906156b0565b60405180910390fd5b8381036002600087815260200190815260200160002060008973ffffffffffffffffffffffffffffffffffffffff1673ffffffffffffffffffffffffffffffffffffffff16815260200190815260200160002081905550836002600087815260200190815260200160002060008873ffffffffffffffffffffffffffffffffffffffff1673ffffffffffffffffffffffffffffffffffffffff1681526020019081526020016000206000828254612da491906154c5565b925050819055508573ffffffffffffffffffffffffffffffffffffffff168773ffffffffffffffffffffffffffffffffffffffff168373ffffffffffffffffffffffffffffffffffffffff167fc3d58168c5ae7397731d063d5bbf3d657854427343f4c083240f7aacaa2d0f628888604051612e219291906152e6565b60405180910390a4612e378288888888886133b1565b50505050505050565b600073ffffffffffffffffffffffffffffffffffffffff168373ffffffffffffffffffffffffffffffffffffffff161415612eb0576040517f08c379a0000000000000000000000000000000000000000000000000000000008152600401612ea7906158bc565b60405180910390fd5b6000612eba611e0b565b9050612eea81856000612ecc87613337565b612ed587613337565b60405180602001604052806000815250613149565b60006002600085815260200190815260200160002060008673ffffffffffffffffffffffffffffffffffffffff1673ffffffffffffffffffffffffffffffffffffffff16815260200190815260200160002054905082811015612f82576040517f08c379a0000000000000000000000000000000000000000000000000000000008152600401612f799061594e565b60405180910390fd5b8281036002600086815260200190815260200160002060008773ffffffffffffffffffffffffffffffffffffffff1673ffffffffffffffffffffffffffffffffffffffff16815260200190815260200160002081905550600073ffffffffffffffffffffffffffffffffffffffff168573ffffffffffffffffffffffffffffffffffffffff168373ffffffffffffffffffffffffffffffffffffffff167fc3d58168c5ae7397731d063d5bbf3d657854427343f4c083240f7aacaa2d0f6287876040516130509291906152e6565b60405180910390a45050505050565b600061306b8383613912565b6130c45782600001829080600181540180825580915050600190039060005260206000200160009091909190915055826000018054905083600101600084815260200190815260200160002081905550600190506130c9565b600090505b92915050565b60007f5a05180f000000000000000000000000000000000000000000000000000000007bffffffffffffffffffffffffffffffffffffffffffffffffffffffff1916827bffffffffffffffffffffffffffffffffffffffffffffffffffffffff19161480613142575061314182613935565b5b9050919050565b6131578686868686866139af565b505050505050565b61317e8473ffffffffffffffffffffffffffffffffffffffff16613a0d565b1561332f578373ffffffffffffffffffffffffffffffffffffffff1663bc197c8187878686866040518663ffffffff1660e01b81526004016131c4959493929190615af5565b6020604051808303816000875af192505050801561320057506040513d601f19601f820116820180604052508101906131fd9190615b72565b60015b6132a65761320c615bac565b806308c379a014156132695750613221615bce565b8061322c575061326b565b806040517f08c379a00000000000000000000000000000000000000000000000000000000081526004016132609190613f3e565b60405180910390fd5b505b6040517f08c379a000000000000000000000000000000000000000000000000000000000815260040161329d90615cd6565b60405180910390fd5b63bc197c8160e01b7bffffffffffffffffffffffffffffffffffffffffffffffffffffffff1916817bffffffffffffffffffffffffffffffffffffffffffffffffffffffff19161461332d576040517f08c379a000000000000000000000000000000000000000000000000000000000815260040161332490615d68565b60405180910390fd5b505b505050505050565b60606000600167ffffffffffffffff81111561335657613355613f65565b5b6040519080825280602002602001820160405280156133845781602001602082028036833780820191505090505b509050828160008151811061339c5761339b61504f565b5b60200260200101818152505080915050919050565b6133d08473ffffffffffffffffffffffffffffffffffffffff16613a0d565b15613581578373ffffffffffffffffffffffffffffffffffffffff1663f23a6e6187878686866040518663ffffffff1660e01b8152600401613416959493929190615d88565b6020604051808303816000875af192505050801561345257506040513d601f19601f8201168201806040525081019061344f9190615b72565b60015b6134f85761345e615bac565b806308c379a014156134bb5750613473615bce565b8061347e57506134bd565b806040517f08c379a00000000000000000000000000000000000000000000000000000000081526004016134b29190613f3e565b60405180910390fd5b505b6040517f08c379a00000000000000000000000000000000000000000000000000000000081526004016134ef90615cd6565b60405180910390fd5b63f23a6e6160e01b7bffffffffffffffffffffffffffffffffffffffffffffffffffffffff1916817bffffffffffffffffffffffffffffffffffffffffffffffffffffffff19161461357f576040517f08c379a000000000000000000000000000000000000000000000000000000000815260040161357690615d68565b60405180910390fd5b505b505050505050565b60606000600283600261359c9190615552565b6135a691906154c5565b67ffffffffffffffff8111156135bf576135be613f65565b5b6040519080825280601f01601f1916602001820160405280156135f15781602001600182028036833780820191505090505b5090507f3000000000000000000000000000000000000000000000000000000000000000816000815181106136295761362861504f565b5b60200101907effffffffffffffffffffffffffffffffffffffffffffffffffffffffffffff1916908160001a9053507f78000000000000000000000000000000000000000000000000000000000000008160018151811061368d5761368c61504f565b5b60200101907effffffffffffffffffffffffffffffffffffffffffffffffffffffffffffff1916908160001a905350600060018460026136cd9190615552565b6136d791906154c5565b90505b6001811115613777577f3031323334353637383961626364656600000000000000000000000000000000600f8616601081106137195761371861504f565b5b1a60f81b8282815181106137305761372f61504f565b5b60200101907effffffffffffffffffffffffffffffffffffffffffffffffffffffffffffff1916908160001a905350600485901c94508061377090615de2565b90506136da565b50600084146137bb576040517f08c379a00000000000000000000000000000000000000000000000000000000081526004016137b290615e58565b60405180910390fd5b8091505092915050565b6137cf8282611827565b156138a257600080600084815260200190815260200160002060000160008373ffffffffffffffffffffffffffffffffffffffff1673ffffffffffffffffffffffffffffffffffffffff16815260200190815260200160002060006101000a81548160ff021916908315150217905550613847611e0b565b73ffffffffffffffffffffffffffffffffffffffff168173ffffffffffffffffffffffffffffffffffffffff16837ff6391f5c32d9c69d2a47ea670b442974b53935d1edc7fd64eb21e047a839171b60405160405180910390a45b5050565b60006138ce836000018373ffffffffffffffffffffffffffffffffffffffff1660001b613a20565b905092915050565b60008260000182815481106138ee576138ed61504f565b5b9060005260206000200154905092915050565b600081600001805490509050919050565b600080836001016000848152602001908152602001600020541415905092915050565b60007f7965db0b000000000000000000000000000000000000000000000000000000007bffffffffffffffffffffffffffffffffffffffffffffffffffffffff1916827bffffffffffffffffffffffffffffffffffffffffffffffffffffffff191614806139a857506139a782613b34565b5b9050919050565b6139bd868686868686613b9e565b6139c56113be565b15613a05576040517f08c379a00000000000000000000000000000000000000000000000000000000081526004016139fc90615eea565b60405180910390fd5b505050505050565b600080823b905060008111915050919050565b60008083600101600084815260200190815260200160002054905060008114613b28576000600182613a52919061596e565b9050600060018660000180549050613a6a919061596e565b9050818114613ad9576000866000018281548110613a8b57613a8a61504f565b5b9060005260206000200154905080876000018481548110613aaf57613aae61504f565b5b90600052602060002001819055508387600101600083815260200190815260200160002081905550505b85600001805480613aed57613aec615f0a565b5b600190038181906000526020600020016000905590558560010160008681526020019081526020016000206000905560019350505050613b2e565b60009150505b92915050565b60007f01ffc9a7000000000000000000000000000000000000000000000000000000007bffffffffffffffffffffffffffffffffffffffffffffffffffffffff1916827bffffffffffffffffffffffffffffffffffffffffffffffffffffffff1916149050919050565b505050505050565b828054613bb290614d5d565b90600052602060002090601f016020900481019282613bd45760008555613c1b565b82601f10613bed57805160ff1916838001178555613c1b565b82800160010185558215613c1b579182015b82811115613c1a578251825591602001919060010190613bff565b5b509050613c289190613c8e565b5090565b6040518060c0016040528060008152602001600073ffffffffffffffffffffffffffffffffffffffff168152602001600073ffffffffffffffffffffffffffffffffffffffff1681526020016060815260200160008152602001600081525090565b5b80821115613ca7576000816000905550600101613c8f565b5090565b6000604051905090565b600080fd5b600080fd5b600073ffffffffffffffffffffffffffffffffffffffff82169050919050565b6000613cea82613cbf565b9050919050565b613cfa81613cdf565b8114613d0557600080fd5b50565b600081359050613d1781613cf1565b92915050565b6000819050919050565b613d3081613d1d565b8114613d3b57600080fd5b50565b600081359050613d4d81613d27565b92915050565b60008060408385031215613d6a57613d69613cb5565b5b6000613d7885828601613d08565b9250506020613d8985828601613d3e565b9150509250929050565b613d9c81613d1d565b82525050565b6000602082019050613db76000830184613d93565b92915050565b60007fffffffff0000000000000000000000000000000000000000000000000000000082169050919050565b613df281613dbd565b8114613dfd57600080fd5b50565b600081359050613e0f81613de9565b92915050565b600060208284031215613e2b57613e2a613cb5565b5b6000613e3984828501613e00565b91505092915050565b60008115159050919050565b613e5781613e42565b82525050565b6000602082019050613e726000830184613e4e565b92915050565b600060208284031215613e8e57613e8d613cb5565b5b6000613e9c84828501613d3e565b91505092915050565b600081519050919050565b600082825260208201905092915050565b60005b83811015613edf578082015181840152602081019050613ec4565b83811115613eee576000848401525b50505050565b6000601f19601f8301169050919050565b6000613f1082613ea5565b613f1a8185613eb0565b9350613f2a818560208601613ec1565b613f3381613ef4565b840191505092915050565b60006020820190508181036000830152613f588184613f05565b905092915050565b600080fd5b7f4e487b7100000000000000000000000000000000000000000000000000000000600052604160045260246000fd5b613f9d82613ef4565b810181811067ffffffffffffffff82111715613fbc57613fbb613f65565b5b80604052505050565b6000613fcf613cab565b9050613fdb8282613f94565b919050565b600067ffffffffffffffff821115613ffb57613ffa613f65565b5b602082029050602081019050919050565b600080fd5b600061402461401f84613fe0565b613fc5565b905080838252602082019050602084028301858111156140475761404661400c565b5b835b81811015614070578061405c8882613d3e565b845260208401935050602081019050614049565b5050509392505050565b600082601f83011261408f5761408e613f60565b5b813561409f848260208601614011565b91505092915050565b600080fd5b600067ffffffffffffffff8211156140c8576140c7613f65565b5b6140d182613ef4565b9050602081019050919050565b82818337600083830152505050565b60006141006140fb846140ad565b613fc5565b90508281526020810184848401111561411c5761411b6140a8565b5b6141278482856140de565b509392505050565b600082601f83011261414457614143613f60565b5b81356141548482602086016140ed565b91505092915050565b6000806000806080858703121561417757614176613cb5565b5b600061418587828801613d08565b945050602085013567ffffffffffffffff8111156141a6576141a5613cba565b5b6141b28782880161407a565b935050604085013567ffffffffffffffff8111156141d3576141d2613cba565b5b6141df8782880161407a565b925050606085013567ffffffffffffffff811115614200576141ff613cba565b5b61420c8782880161412f565b91505092959194509250565b600067ffffffffffffffff82111561423357614232613f65565b5b61423c82613ef4565b9050602081019050919050565b600061425c61425784614218565b613fc5565b905082815260208101848484011115614278576142776140a8565b5b6142838482856140de565b509392505050565b600082601f8301126142a05761429f613f60565b5b81356142b0848260208601614249565b91505092915050565b600080600080608085870312156142d3576142d2613cb5565b5b60006142e187828801613d08565b94505060206142f287828801613d3e565b935050604085013567ffffffffffffffff81111561431357614312613cba565b5b61431f8782880161428b565b925050606061433087828801613d3e565b91505092959194509250565b6000819050919050565b61434f8161433c565b811461435a57600080fd5b50565b60008135905061436c81614346565b92915050565b60006020828403121561438857614387613cb5565b5b60006143968482850161435d565b91505092915050565b6143a88161433c565b82525050565b60006020820190506143c3600083018461439f565b92915050565b600080600080600060a086880312156143e5576143e4613cb5565b5b60006143f388828901613d08565b955050602061440488828901613d08565b945050604086013567ffffffffffffffff81111561442557614424613cba565b5b6144318882890161407a565b935050606086013567ffffffffffffffff81111561445257614451613cba565b5b61445e8882890161407a565b925050608086013567ffffffffffffffff81111561447f5761447e613cba565b5b61448b8882890161412f565b9150509295509295909350565b600080604083850312156144af576144ae613cb5565b5b60006144bd8582860161435d565b92505060206144ce85828601613d08565b9150509250929050565b6000602082840312156144ee576144ed613cb5565b5b60006144fc84828501613d08565b91505092915050565b600081519050919050565b600082825260208201905092915050565b6000819050602082019050919050565b61453a81613d1d565b82525050565b61454981613cdf565b82525050565b600082825260208201905092915050565b600061456b82613ea5565b614575818561454f565b9350614585818560208601613ec1565b61458e81613ef4565b840191505092915050565b600060c0830160008301516145b16000860182614531565b5060208301516145c46020860182614540565b5060408301516145d76040860182614540565b50606083015184820360608601526145ef8282614560565b91505060808301516146046080860182614531565b5060a083015161461760a0860182614531565b508091505092915050565b600061462e8383614599565b905092915050565b6000602082019050919050565b600061464e82614505565b6146588185614510565b93508360208202850161466a85614521565b8060005b858110156146a657848403895281516146878582614622565b945061469283614636565b925060208a0199505060018101905061466e565b50829750879550505050505092915050565b600060208201905081810360008301526146d28184614643565b905092915050565b600067ffffffffffffffff8211156146f5576146f4613f65565b5b602082029050602081019050919050565b6000614719614714846146da565b613fc5565b9050808382526020820190506020840283018581111561473c5761473b61400c565b5b835b8181101561476557806147518882613d08565b84526020840193505060208101905061473e565b5050509392505050565b600082601f83011261478457614783613f60565b5b8135614794848260208601614706565b91505092915050565b600080604083850312156147b4576147b3613cb5565b5b600083013567ffffffffffffffff8111156147d2576147d1613cba565b5b6147de8582860161476f565b925050602083013567ffffffffffffffff8111156147ff576147fe613cba565b5b61480b8582860161407a565b9150509250929050565b600081519050919050565b600082825260208201905092915050565b6000819050602082019050919050565b600061484d8383614531565b60208301905092915050565b6000602082019050919050565b600061487182614815565b61487b8185614820565b935061488683614831565b8060005b838110156148b757815161489e8882614841565b97506148a983614859565b92505060018101905061488a565b5085935050505092915050565b600060208201905081810360008301526148de8184614866565b905092915050565b6000806000606084860312156148ff576148fe613cb5565b5b600061490d86828701613d08565b935050602084013567ffffffffffffffff81111561492e5761492d613cba565b5b61493a8682870161407a565b925050604084013567ffffffffffffffff81111561495b5761495a613cba565b5b6149678682870161407a565b9150509250925092565b6000806000806080858703121561498b5761498a613cb5565b5b600061499987828801613d08565b94505060206149aa87828801613d3e565b93505060406149bb87828801613d3e565b925050606085013567ffffffffffffffff8111156149dc576149db613cba565b5b6149e88782880161412f565b91505092959194509250565b60008060408385031215614a0b57614a0a613cb5565b5b6000614a1985828601613d3e565b9250506020614a2a85828601613d3e565b9150509250929050565b60008060408385031215614a4b57614a4a613cb5565b5b6000614a598582860161435d565b9250506020614a6a85828601613d3e565b9150509250929050565b614a7d81613cdf565b82525050565b6000602082019050614a986000830184614a74565b92915050565b600060c082019050614ab36000830189613d93565b614ac06020830188614a74565b614acd6040830187614a74565b8181036060830152614adf8186613f05565b9050614aee6080830185613d93565b614afb60a0830184613d93565b979650505050505050565b614b0f81613e42565b8114614b1a57600080fd5b50565b600081359050614b2c81614b06565b92915050565b60008060408385031215614b4957614b48613cb5565b5b6000614b5785828601613d08565b9250506020614b6885828601614b1d565b9150509250929050565b60008060408385031215614b8957614b88613cb5565b5b6000614b9785828601613d08565b9250506020614ba885828601613d08565b9150509250929050565b600080600080600060a08688031215614bce57614bcd613cb5565b5b6000614bdc88828901613d08565b9550506020614bed88828901613d08565b9450506040614bfe88828901613d3e565b9350506060614c0f88828901613d3e565b925050608086013567ffffffffffffffff811115614c3057614c2f613cba565b5b614c3c8882890161412f565b9150509295509295909350565b600080600060608486031215614c6257614c61613cb5565b5b6000614c7086828701613d08565b9350506020614c8186828701613d3e565b9250506040614c9286828701613d3e565b9150509250925092565b7f455243313135353a2062616c616e636520717565727920666f7220746865207a60008201527f65726f2061646472657373000000000000000000000000000000000000000000602082015250565b6000614cf8602b83613eb0565b9150614d0382614c9c565b604082019050919050565b60006020820190508181036000830152614d2781614ceb565b9050919050565b7f4e487b7100000000000000000000000000000000000000000000000000000000600052602260045260246000fd5b60006002820490506001821680614d7557607f821691505b60208210811415614d8957614d88614d2e565b5b50919050565b7f455243313135355072657365744d696e7465725061757365723a206d7573742060008201527f68617665206d696e74657220726f6c6520746f206d696e740000000000000000602082015250565b6000614deb603883613eb0565b9150614df682614d8f565b604082019050919050565b60006020820190508181036000830152614e1a81614dde565b9050919050565b7f455243313135353a207472616e736665722063616c6c6572206973206e6f742060008201527f6f776e6572206e6f7220617070726f7665640000000000000000000000000000602082015250565b6000614e7d603283613eb0565b9150614e8882614e21565b604082019050919050565b60006020820190508181036000830152614eac81614e70565b9050919050565b7f416363657373436f6e74726f6c3a2063616e206f6e6c792072656e6f756e636560008201527f20726f6c657320666f722073656c660000000000000000000000000000000000602082015250565b6000614f0f602f83613eb0565b9150614f1a82614eb3565b604082019050919050565b60006020820190508181036000830152614f3e81614f02565b9050919050565b7f455243313135355072657365744d696e7465725061757365723a206d7573742060008201527f686176652070617573657220726f6c6520746f20756e70617573650000000000602082015250565b6000614fa1603b83613eb0565b9150614fac82614f45565b604082019050919050565b60006020820190508181036000830152614fd081614f94565b9050919050565b7f4e487b7100000000000000000000000000000000000000000000000000000000600052601160045260246000fd5b600061501182613d1d565b91507fffffffffffffffffffffffffffffffffffffffffffffffffffffffffffffffff82141561504457615043614fd7565b5b600182019050919050565b7f4e487b7100000000000000000000000000000000000000000000000000000000600052603260045260246000fd5b7f455243313135353a206163636f756e747320616e6420696473206c656e67746860008201527f206d69736d617463680000000000000000000000000000000000000000000000602082015250565b60006150da602983613eb0565b91506150e58261507e565b604082019050919050565b60006020820190508181036000830152615109816150cd565b9050919050565b7f455243313135353a2063616c6c6572206973206e6f74206f776e6572206e6f7260008201527f20617070726f7665640000000000000000000000000000000000000000000000602082015250565b600061516c602983613eb0565b915061517782615110565b604082019050919050565b6000602082019050818103600083015261519b8161515f565b9050919050565b7f43616e6e6f74206275726e000000000000000000000000000000000000000000600082015250565b60006151d8600b83613eb0565b91506151e3826151a2565b602082019050919050565b60006020820190508181036000830152615207816151cb565b9050919050565b7f436f75706f6e2065787069726564000000000000000000000000000000000000600082015250565b6000615244600e83613eb0565b915061524f8261520e565b602082019050919050565b6000602082019050818103600083015261527381615237565b9050919050565b7f42616c616e636520746f6f20736d616c6c000000000000000000000000000000600082015250565b60006152b0601183613eb0565b91506152bb8261527a565b602082019050919050565b600060208201905081810360008301526152df816152a3565b9050919050565b60006040820190506152fb6000830185613d93565b6153086020830184613d93565b9392505050565b7f455243313135355072657365744d696e7465725061757365723a206d7573742060008201527f686176652070617573657220726f6c6520746f20706175736500000000000000602082015250565b600061536b603983613eb0565b91506153768261530f565b604082019050919050565b6000602082019050818103600083015261539a8161535e565b9050919050565b7f455243313135353a206d696e7420746f20746865207a65726f2061646472657360008201527f7300000000000000000000000000000000000000000000000000000000000000602082015250565b60006153fd602183613eb0565b9150615408826153a1565b604082019050919050565b6000602082019050818103600083015261542c816153f0565b9050919050565b7f455243313135353a2069647320616e6420616d6f756e7473206c656e6774682060008201527f6d69736d61746368000000000000000000000000000000000000000000000000602082015250565b600061548f602883613eb0565b915061549a82615433565b604082019050919050565b600060208201905081810360008301526154be81615482565b9050919050565b60006154d082613d1d565b91506154db83613d1d565b9250827fffffffffffffffffffffffffffffffffffffffffffffffffffffffffffffffff038211156155105761550f614fd7565b5b828201905092915050565b600060408201905081810360008301526155358185614866565b905081810360208301526155498184614866565b90509392505050565b600061555d82613d1d565b915061556883613d1d565b9250817fffffffffffffffffffffffffffffffffffffffffffffffffffffffffffffffff04831182151516156155a1576155a0614fd7565b5b828202905092915050565b7f455243313135353a207472616e7366657220746f20746865207a65726f20616460008201527f6472657373000000000000000000000000000000000000000000000000000000602082015250565b6000615608602583613eb0565b9150615613826155ac565b604082019050919050565b60006020820190508181036000830152615637816155fb565b9050919050565b7f455243313135353a20696e73756666696369656e742062616c616e636520666f60008201527f72207472616e7366657200000000000000000000000000000000000000000000602082015250565b600061569a602a83613eb0565b91506156a58261563e565b604082019050919050565b600060208201905081810360008301526156c98161568d565b9050919050565b600081905092915050565b7f416363657373436f6e74726f6c3a206163636f756e7420000000000000000000600082015250565b60006157116017836156d0565b915061571c826156db565b601782019050919050565b600061573282613ea5565b61573c81856156d0565b935061574c818560208601613ec1565b80840191505092915050565b7f206973206d697373696e6720726f6c6520000000000000000000000000000000600082015250565b600061578e6011836156d0565b915061579982615758565b601182019050919050565b60006157af82615704565b91506157bb8285615727565b91506157c682615781565b91506157d28284615727565b91508190509392505050565b7f5061757361626c653a206e6f7420706175736564000000000000000000000000600082015250565b6000615814601483613eb0565b915061581f826157de565b602082019050919050565b6000602082019050818103600083015261584381615807565b9050919050565b7f455243313135353a206275726e2066726f6d20746865207a65726f206164647260008201527f6573730000000000000000000000000000000000000000000000000000000000602082015250565b60006158a6602383613eb0565b91506158b18261584a565b604082019050919050565b600060208201905081810360008301526158d581615899565b9050919050565b7f455243313135353a206275726e20616d6f756e7420657863656564732062616c60008201527f616e636500000000000000000000000000000000000000000000000000000000602082015250565b6000615938602483613eb0565b9150615943826158dc565b604082019050919050565b600060208201905081810360008301526159678161592b565b9050919050565b600061597982613d1d565b915061598483613d1d565b92508282101561599757615996614fd7565b5b828203905092915050565b7f5061757361626c653a2070617573656400000000000000000000000000000000600082015250565b60006159d8601083613eb0565b91506159e3826159a2565b602082019050919050565b60006020820190508181036000830152615a07816159cb565b9050919050565b7f455243313135353a2073657474696e6720617070726f76616c2073746174757360008201527f20666f722073656c660000000000000000000000000000000000000000000000602082015250565b6000615a6a602983613eb0565b9150615a7582615a0e565b604082019050919050565b60006020820190508181036000830152615a9981615a5d565b9050919050565b600081519050919050565b600082825260208201905092915050565b6000615ac782615aa0565b615ad18185615aab565b9350615ae1818560208601613ec1565b615aea81613ef4565b840191505092915050565b600060a082019050615b0a6000830188614a74565b615b176020830187614a74565b8181036040830152615b298186614866565b90508181036060830152615b3d8185614866565b90508181036080830152615b518184615abc565b90509695505050505050565b600081519050615b6c81613de9565b92915050565b600060208284031215615b8857615b87613cb5565b5b6000615b9684828501615b5d565b91505092915050565b60008160e01c9050919050565b600060033d1115615bcb5760046000803e615bc8600051615b9f565b90505b90565b600060443d1015615bde57615c61565b615be6613cab565b60043d036004823e80513d602482011167ffffffffffffffff82111715615c0e575050615c61565b808201805167ffffffffffffffff811115615c2c5750505050615c61565b80602083010160043d038501811115615c49575050505050615c61565b615c5882602001850186613f94565b82955050505050505b90565b7f455243313135353a207472616e7366657220746f206e6f6e204552433131353560008201527f526563656976657220696d706c656d656e746572000000000000000000000000602082015250565b6000615cc0603483613eb0565b9150615ccb82615c64565b604082019050919050565b60006020820190508181036000830152615cef81615cb3565b9050919050565b7f455243313135353a204552433131353552656365697665722072656a6563746560008201527f6420746f6b656e73000000000000000000000000000000000000000000000000602082015250565b6000615d52602883613eb0565b9150615d5d82615cf6565b604082019050919050565b60006020820190508181036000830152615d8181615d45565b9050919050565b600060a082019050615d9d6000830188614a74565b615daa6020830187614a74565b615db76040830186613d93565b615dc46060830185613d93565b8181036080830152615dd68184615abc565b90509695505050505050565b6000615ded82613d1d565b91506000821415615e0157615e00614fd7565b5b600182039050919050565b7f537472696e67733a20686578206c656e67746820696e73756666696369656e74600082015250565b6000615e42602083613eb0565b9150615e4d82615e0c565b602082019050919050565b60006020820190508181036000830152615e7181615e35565b9050919050565b7f455243313135355061757361626c653a20746f6b656e207472616e736665722060008201527f7768696c65207061757365640000000000000000000000000000000000000000602082015250565b6000615ed4602c83613eb0565b9150615edf82615e78565b604082019050919050565b60006020820190508181036000830152615f0381615ec7565b9050919050565b7f4e487b7100000000000000000000000000000000000000000000000000000000600052603160045260246000fdfea26469706673582212205bc777236aae792631f994b0b65e8f23d167cee8fd135ae0e0109bd7ca41810b64736f6c634300080b0033",
  "immutableReferences": {},
  "source": "// SPDX-License-Identifier: MIT\npragma solidity 0.8.11;\n\nimport \"@openzeppelin/contracts/token/ERC1155/presets/ERC1155PresetMinterPauser.sol\";\nimport \"openzeppelin-solidity/contracts/utils/math/SafeMath.sol\";\n\ncontract Anoying is ERC1155PresetMinterPauser {\n    using SafeMath for uint256;\n    uint256 tokenAmount = 0;\n\n    struct Token{\n        uint256 id;\n        address owner;\n        address sender;\n        string dataKey;\n        uint256 balance;\n        uint256 till;\n    }\n    mapping(uint256 => Token) public ownership;\n\n    constructor() ERC1155PresetMinterPauser('http://localhost:3003?token={id}') {\n    }\n\n    function mintToken(\n        address to,\n        uint256 amount,\n        string memory data,\n        uint256 daysTillExpire\n    ) public virtual returns(uint256) {\n        tokenAmount = tokenAmount.add(1);\n        _mint(to, tokenAmount, amount, bytes(data));\n        ownership[tokenAmount] = Token(tokenAmount, to, msg.sender, data, amount, block.timestamp.add(daysTillExpire.mul(86400)));\n        return tokenAmount;\n    }\n\n    function getTokens(address owner) public view returns(Token[] memory) {\n        uint256 l = 0;\n        for (uint256 index = 1; index <= tokenAmount; index++) {\n            if(ownership[index].owner == owner && ownership[index].balance > 0){\n                l = l.add(1);\n            }\n        }\n\n        Token[] memory tokensOfOwner = new Token[](l);\n        l = 0;\n        for (uint256 _index = 1; _index <= tokenAmount; _index++) {\n            if(ownership[_index].owner == owner && ownership[_index].balance > 0){\n                tokensOfOwner[l] = ownership[_index];\n                l = l.add(1);\n            }\n        }\n\n        return tokensOfOwner;\n    }\n\n    function getTokensToBurn(address sender) public view returns(Token[] memory) {\n        uint256 l = 0;\n        for (uint256 index = 1; index <= tokenAmount; index++) {\n            if(ownership[index].sender == sender && ownership[index].balance > 0){\n                l = l.add(1);\n            }\n        }\n\n        Token[] memory tokensBySender = new Token[](l);\n        l = 0;\n        for (uint256 _index = 1; _index <= tokenAmount; _index++) {\n            if(ownership[_index].sender == sender && ownership[_index].balance > 0){\n                tokensBySender[l] = ownership[_index];\n                l = l.add(1);\n            }\n        }\n\n        return tokensBySender;\n    }\n\n    function burnToken(uint256 tokenId, uint256 amount) public{\n        address owner = ownership[tokenId].owner;\n        address sender = ownership[tokenId].sender;\n        uint256 balance = ownership[tokenId].balance;\n        uint256 till = ownership[tokenId].till;\n        require(msg.sender == owner || msg.sender == sender, \"Cannot burn\");\n        require(till >= block.timestamp, \"Coupon expired\");\n        require(balance >= amount, \"Balance too small\");\n        emit TransferSingle(msg.sender, owner, address(0), tokenId, amount);\n        // _burn(owner, tokenId, amount);\n        ownership[tokenId].balance = balance.sub(amount);\n    }\n}\n",
  "sourcePath": "/Users/deniskuivalainen/Documents/nft-test-task/src/token/contracts/Anoying.sol",
  "compiler": {
    "name": "solc",
    "version": "0.8.11+commit.d7f03943.Emscripten.clang"
  },
  "schemaVersion": "3.4.4",
  "updatedAt": "2022-01-31T14:59:59.043Z",
  "networkType": "ethereum",
  "devdoc": {
    "kind": "dev",
    "methods": {
      "balanceOf(address,uint256)": {
        "details": "See {IERC1155-balanceOf}. Requirements: - `account` cannot be the zero address."
      },
      "balanceOfBatch(address[],uint256[])": {
        "details": "See {IERC1155-balanceOfBatch}. Requirements: - `accounts` and `ids` must have the same length."
      },
      "getRoleAdmin(bytes32)": {
        "details": "Returns the admin role that controls `role`. See {grantRole} and {revokeRole}. To change a role's admin, use {_setRoleAdmin}."
      },
      "getRoleMember(bytes32,uint256)": {
        "details": "Returns one of the accounts that have `role`. `index` must be a value between 0 and {getRoleMemberCount}, non-inclusive. Role bearers are not sorted in any particular way, and their ordering may change at any point. WARNING: When using {getRoleMember} and {getRoleMemberCount}, make sure you perform all queries on the same block. See the following https://forum.openzeppelin.com/t/iterating-over-elements-on-enumerableset-in-openzeppelin-contracts/2296[forum post] for more information."
      },
      "getRoleMemberCount(bytes32)": {
        "details": "Returns the number of accounts that have `role`. Can be used together with {getRoleMember} to enumerate all bearers of a role."
      },
      "grantRole(bytes32,address)": {
        "details": "Grants `role` to `account`. If `account` had not been already granted `role`, emits a {RoleGranted} event. Requirements: - the caller must have ``role``'s admin role."
      },
      "hasRole(bytes32,address)": {
        "details": "Returns `true` if `account` has been granted `role`."
      },
      "isApprovedForAll(address,address)": {
        "details": "See {IERC1155-isApprovedForAll}."
      },
      "mint(address,uint256,uint256,bytes)": {
        "details": "Creates `amount` new tokens for `to`, of token type `id`. See {ERC1155-_mint}. Requirements: - the caller must have the `MINTER_ROLE`."
      },
      "mintBatch(address,uint256[],uint256[],bytes)": {
        "details": "xref:ROOT:erc1155.adoc#batch-operations[Batched] variant of {mint}."
      },
      "pause()": {
        "details": "Pauses all token transfers. See {ERC1155Pausable} and {Pausable-_pause}. Requirements: - the caller must have the `PAUSER_ROLE`."
      },
      "paused()": {
        "details": "Returns true if the contract is paused, and false otherwise."
      },
      "renounceRole(bytes32,address)": {
        "details": "Revokes `role` from the calling account. Roles are often managed via {grantRole} and {revokeRole}: this function's purpose is to provide a mechanism for accounts to lose their privileges if they are compromised (such as when a trusted device is misplaced). If the calling account had been revoked `role`, emits a {RoleRevoked} event. Requirements: - the caller must be `account`."
      },
      "revokeRole(bytes32,address)": {
        "details": "Revokes `role` from `account`. If `account` had been granted `role`, emits a {RoleRevoked} event. Requirements: - the caller must have ``role``'s admin role."
      },
      "safeBatchTransferFrom(address,address,uint256[],uint256[],bytes)": {
        "details": "See {IERC1155-safeBatchTransferFrom}."
      },
      "safeTransferFrom(address,address,uint256,uint256,bytes)": {
        "details": "See {IERC1155-safeTransferFrom}."
      },
      "setApprovalForAll(address,bool)": {
        "details": "See {IERC1155-setApprovalForAll}."
      },
      "supportsInterface(bytes4)": {
        "details": "See {IERC165-supportsInterface}."
      },
      "unpause()": {
        "details": "Unpauses all token transfers. See {ERC1155Pausable} and {Pausable-_unpause}. Requirements: - the caller must have the `PAUSER_ROLE`."
      },
      "uri(uint256)": {
        "details": "See {IERC1155MetadataURI-uri}. This implementation returns the same URI for *all* token types. It relies on the token type ID substitution mechanism https://eips.ethereum.org/EIPS/eip-1155#metadata[defined in the EIP]. Clients calling this function must replace the `\\{id\\}` substring with the actual token type ID."
      }
    },
    "version": 1
  },
  "userdoc": {
    "kind": "user",
    "methods": {},
    "version": 1
  }
}